{
  "contractName": "Staking",
  "abi": [
    {
      "inputs": [],
      "stateMutability": "nonpayable",
      "type": "constructor"
    },
    {
      "inputs": [
        {
          "internalType": "address",
          "name": "_addr",
          "type": "address"
        }
      ],
      "name": "setAddress",
      "outputs": [],
      "stateMutability": "nonpayable",
      "type": "function"
    },
    {
      "inputs": [
        {
          "internalType": "uint256",
          "name": "_currency",
          "type": "uint256"
        },
        {
          "internalType": "uint256",
          "name": "_energy",
          "type": "uint256"
        }
      ],
      "name": "StakeTokens",
      "outputs": [
        {
          "internalType": "string",
          "name": "",
          "type": "string"
        }
      ],
      "stateMutability": "nonpayable",
      "type": "function"
    },
    {
      "inputs": [
        {
          "internalType": "uint256",
          "name": "_currency",
          "type": "uint256"
        },
        {
          "internalType": "uint256",
          "name": "_energy",
          "type": "uint256"
        }
      ],
      "name": "UnstakeTokens",
      "outputs": [],
      "stateMutability": "nonpayable",
      "type": "function"
    },
    {
      "inputs": [
        {
          "internalType": "uint256",
          "name": "rewardRate",
          "type": "uint256"
        },
        {
          "internalType": "uint256",
          "name": "_lastClaim",
          "type": "uint256"
        }
      ],
      "name": "CalculateRewardAmount",
      "outputs": [
        {
          "internalType": "uint256",
          "name": "rewardAmount",
          "type": "uint256"
        }
      ],
      "stateMutability": "view",
      "type": "function",
      "constant": true
    },
    {
      "inputs": [
        {
          "internalType": "uint256",
          "name": "_currency",
          "type": "uint256"
        },
        {
          "internalType": "uint256",
          "name": "_energy",
          "type": "uint256"
        }
      ],
      "name": "CalculateRewardRate",
      "outputs": [
        {
          "internalType": "uint256",
          "name": "rewardRate6",
          "type": "uint256"
        }
      ],
      "stateMutability": "view",
      "type": "function",
      "constant": true
    },
    {
      "inputs": [],
      "name": "ClaimReward",
      "outputs": [
        {
          "internalType": "uint256",
          "name": "_reward",
          "type": "uint256"
        }
      ],
      "stateMutability": "nonpayable",
      "type": "function"
    },
    {
      "inputs": [
        {
          "internalType": "uint256",
          "name": "_id",
          "type": "uint256"
        },
        {
          "internalType": "uint256",
          "name": "_amount",
          "type": "uint256"
        }
      ],
      "name": "swapCurrency",
      "outputs": [],
      "stateMutability": "nonpayable",
      "type": "function"
    }
  ],
  "bytecode": "0x60806040526040518060400160405280600060ff168152602001600160ff1681525060019060026200003392919062000138565b50600260009054906101000a900473ffffffffffffffffffffffffffffffffffffffff16600360006101000a81548173ffffffffffffffffffffffffffffffffffffffff021916908373ffffffffffffffffffffffffffffffffffffffff160217905550670de0b6b3a7640000600754620000af9190620001e7565b600955633b9aca00600854620000c69190620001e7565b600a55670de0b6b3a7640000600854620000e19190620001e7565b600b55348015620000f157600080fd5b50336000806101000a81548173ffffffffffffffffffffffffffffffffffffffff021916908373ffffffffffffffffffffffffffffffffffffffff16021790555062000248565b8280548282559060005260206000209081019282156200017c579160200282015b828111156200017b578251829060ff1690559160200191906001019062000159565b5b5090506200018b91906200018f565b5090565b5b80821115620001aa57600081600090555060010162000190565b5090565b6000819050919050565b7f4e487b7100000000000000000000000000000000000000000000000000000000600052601160045260246000fd5b6000620001f482620001ae565b91506200020183620001ae565b9250817fffffffffffffffffffffffffffffffffffffffffffffffffffffffffffffffff04831182151516156200023d576200023c620001b8565b5b828202905092915050565b61227e80620002586000396000f3fe608060405234801561001057600080fd5b506004361061007d5760003560e01c8063b14309701161005b578063b1430970146100ec578063d580e1191461011c578063db35e2751461014c578063e30081a0146101685761007d565b80632c26b5fb1461008257806379372f9a146100b257806395fd900e146100d0575b600080fd5b61009c600480360381019061009791906114ef565b610184565b6040516100a9919061153e565b60405180910390f35b6100ba6101b0565b6040516100c7919061153e565b60405180910390f35b6100ea60048036038101906100e591906114ef565b6103ba565b005b610106600480360381019061010191906114ef565b6106c7565b60405161011391906115f2565b60405180910390f35b610136600480360381019061013191906114ef565b610b7a565b604051610143919061153e565b60405180910390f35b610166600480360381019061016191906114ef565b610c93565b005b610182600480360381019061017d9190611672565b61108a565b005b6000808390506000834261019891906116ce565b905080826101a69190611702565b9250505092915050565b60008060149054906101000a900460ff1615610201576040517f08c379a00000000000000000000000000000000000000000000000000000000081526004016101f8906117a8565b60405180910390fd5b6001600060146101000a81548160ff0219169083151502179055506000600460003373ffffffffffffffffffffffffffffffffffffffff1673ffffffffffffffffffffffffffffffffffffffff1681526020019081526020016000206040518060a001604052908160008201548152602001600182015481526020016002820154815260200160038201548152602001600482018054806020026020016040519081016040528092919081815260200182805480156102df57602002820191906000526020600020905b8154815260200190600101908083116102cb575b50505050508152505090506102fc81600001518260600151610184565b9150600360009054906101000a900473ffffffffffffffffffffffffffffffffffffffff1673ffffffffffffffffffffffffffffffffffffffff1663f242432a30336001866040518563ffffffff1660e01b81526004016103609493929190611879565b600060405180830381600087803b15801561037a57600080fd5b505af115801561038e573d6000803e3d6000fd5b50505050428160600181815250505060008060146101000a81548160ff02191690831515021790555090565b600060149054906101000a900460ff161561040a576040517f08c379a0000000000000000000000000000000000000000000000000000000008152600401610401906117a8565b60405180910390fd5b6001600060146101000a81548160ff0219169083151502179055506000600460003373ffffffffffffffffffffffffffffffffffffffff1673ffffffffffffffffffffffffffffffffffffffff1681526020019081526020016000206040518060a001604052908160008201548152602001600182015481526020016002820154815260200160038201548152602001600482018054806020026020016040519081016040528092919081815260200182805480156104e857602002820191906000526020600020905b8154815260200190600101908083116104d4575b5050505050815250509050828160400151101561053a576040517f08c379a00000000000000000000000000000000000000000000000000000000081526004016105319061191d565b60405180910390fd5b8181602001511015610581576040517f08c379a000000000000000000000000000000000000000000000000000000000815260040161057890611989565b60405180910390fd5b61058b8383610b7a565b81600001818152505081816020018181516105a691906116ce565b9150818152505082816040018181516105bf91906116ce565b915081815250508181608001516000815181106105df576105de6119a9565b5b602002602001018181525050828160800151600181518110610604576106036119a9565b5b602002602001018181525050600360009054906101000a900473ffffffffffffffffffffffffffffffffffffffff1673ffffffffffffffffffffffffffffffffffffffff16632eb2c2d63033600185608001516040518563ffffffff1660e01b81526004016106769493929190611bb8565b600060405180830381600087803b15801561069057600080fd5b505af11580156106a4573d6000803e3d6000fd5b505050505060008060146101000a81548160ff0219169083151502179055505050565b6060600060149054906101000a900460ff1615610719576040517f08c379a0000000000000000000000000000000000000000000000000000000008152600401610710906117a8565b60405180910390fd5b6001600060146101000a81548160ff02191690831515021790555082600360009054906101000a900473ffffffffffffffffffffffffffffffffffffffff1673ffffffffffffffffffffffffffffffffffffffff1662fdd58e3360016040518363ffffffff1660e01b8152600401610792929190611c1e565b602060405180830381865afa1580156107af573d6000803e3d6000fd5b505050506040513d601f19601f820116820180604052508101906107d39190611c5c565b1015610814576040517f08c379a000000000000000000000000000000000000000000000000000000000815260040161080b90611cd5565b60405180910390fd5b81600360009054906101000a900473ffffffffffffffffffffffffffffffffffffffff1673ffffffffffffffffffffffffffffffffffffffff1662fdd58e3360006040518363ffffffff1660e01b8152600401610872929190611d30565b602060405180830381865afa15801561088f573d6000803e3d6000fd5b505050506040513d601f19601f820116820180604052508101906108b39190611c5c565b10156108f4576040517f08c379a00000000000000000000000000000000000000000000000000000000081526004016108eb90611da5565b60405180910390fd5b6000600460003373ffffffffffffffffffffffffffffffffffffffff1673ffffffffffffffffffffffffffffffffffffffff1681526020019081526020016000206040518060a001604052908160008201548152602001600182015481526020016002820154815260200160038201548152602001600482018054806020026020016040519081016040528092919081815260200182805480156109b757602002820191906000526020600020905b8154815260200190600101908083116109a3575b50505050508152505090506109cc8484610b7a565b8160000181815250508281608001516000815181106109ee576109ed6119a9565b5b602002602001018181525050838160800151600181518110610a1357610a126119a9565b5b602002602001018181525050600360009054906101000a900473ffffffffffffffffffffffffffffffffffffffff1673ffffffffffffffffffffffffffffffffffffffff16632eb2c2d63330600185608001516040518563ffffffff1660e01b8152600401610a859493929190611e11565b600060405180830381600087803b158015610a9f57600080fd5b505af1158015610ab3573d6000803e3d6000fd5b505050508281602001818151610ac99190611e77565b915081815250508381604001818151610ae29190611e77565b91508181525050600081600001511115610b2057610afe6101b0565b5060405180606001604052806025815260200161222460259139915050610b5a565b6040518060400160405280601581526020017f5468616e6b20796f7520666f72207374616b696e6700000000000000000000008152509150505b60008060146101000a81548160ff02191690831515021790555092915050565b60008083600460003373ffffffffffffffffffffffffffffffffffffffff1673ffffffffffffffffffffffffffffffffffffffff16815260200190815260200160002060020154610bcb9190611e77565b9050600083600460003373ffffffffffffffffffffffffffffffffffffffff1673ffffffffffffffffffffffffffffffffffffffff16815260200190815260200160002060010154610c1d9190611e77565b90506000600554836064610c319190611702565b610c3b9190611efc565b90506000600654836064610c4f9190611702565b610c599190611efc565b905060008183610c699190611702565b90506161a8811115610c84576161a895505050505050610c8d565b80955050505050505b92915050565b60006064821115610cd9576040517f08c379a0000000000000000000000000000000000000000000000000000000008152600401610cd090611f9f565b60405180910390fd5b6001831415610de957600182610cef9190611e77565b600360009054906101000a900473ffffffffffffffffffffffffffffffffffffffff1673ffffffffffffffffffffffffffffffffffffffff1662fdd58e3360016040518363ffffffff1660e01b8152600401610d4c929190611c1e565b602060405180830381865afa158015610d69573d6000803e3d6000fd5b505050506040513d601f19601f82011682018060405250810190610d8d9190611c5c565b1015610dce576040517f08c379a0000000000000000000000000000000000000000000000000000000008152600401610dc590611cd5565b60405180910390fd5b60055460078190555060065460088190555060009050610f35565b6000831415610ef957600182610dff9190611e77565b600360009054906101000a900473ffffffffffffffffffffffffffffffffffffffff1673ffffffffffffffffffffffffffffffffffffffff1662fdd58e3360006040518363ffffffff1660e01b8152600401610e5c929190611d30565b602060405180830381865afa158015610e79573d6000803e3d6000fd5b505050506040513d601f19601f82011682018060405250810190610e9d9190611c5c565b1015610ede576040517f08c379a0000000000000000000000000000000000000000000000000000000008152600401610ed590611da5565b60405180910390fd5b60055460088190555060065460078190555060019050610f34565b6040517f08c379a0000000000000000000000000000000000000000000000000000000008152600401610f2b90612031565b60405180910390fd5b5b610f3d6111ec565b6000610f4883611336565b9050600360009054906101000a900473ffffffffffffffffffffffffffffffffffffffff1673ffffffffffffffffffffffffffffffffffffffff1663f242432a333087600188610f989190611e77565b6040518563ffffffff1660e01b8152600401610fb79493929190612077565b600060405180830381600087803b158015610fd157600080fd5b505af1158015610fe5573d6000803e3d6000fd5b50505050600360009054906101000a900473ffffffffffffffffffffffffffffffffffffffff1673ffffffffffffffffffffffffffffffffffffffff1663f242432a303385856040518563ffffffff1660e01b815260040161104a949392919061211b565b600060405180830381600087803b15801561106457600080fd5b505af1158015611078573d6000803e3d6000fd5b505050506110846111ec565b50505050565b3373ffffffffffffffffffffffffffffffffffffffff1660008054906101000a900473ffffffffffffffffffffffffffffffffffffffff1673ffffffffffffffffffffffffffffffffffffffff1614611118576040517f08c379a000000000000000000000000000000000000000000000000000000000815260040161110f906121bf565b60405180910390fd5b80600260006101000a81548173ffffffffffffffffffffffffffffffffffffffff021916908373ffffffffffffffffffffffffffffffffffffffff160217905550600360009054906101000a900473ffffffffffffffffffffffffffffffffffffffff1673ffffffffffffffffffffffffffffffffffffffff1663a22cb4653060016040518363ffffffff1660e01b81526004016111b79291906121fa565b600060405180830381600087803b1580156111d157600080fd5b505af11580156111e5573d6000803e3d6000fd5b5050505050565b600360009054906101000a900473ffffffffffffffffffffffffffffffffffffffff1673ffffffffffffffffffffffffffffffffffffffff1662fdd58e3060006040518363ffffffff1660e01b8152600401611249929190611d30565b602060405180830381865afa158015611266573d6000803e3d6000fd5b505050506040513d601f19601f8201168201806040525081019061128a9190611c5c565b600681905550600360009054906101000a900473ffffffffffffffffffffffffffffffffffffffff1673ffffffffffffffffffffffffffffffffffffffff1662fdd58e3060016040518363ffffffff1660e01b81526004016112ed929190611c1e565b602060405180830381865afa15801561130a573d6000803e3d6000fd5b505050506040513d601f19601f8201168201806040525081019061132e9190611c5c565b600581905550565b600061134182611348565b9050919050565b600080611354836113cb565b90506000633b9aca00846113689190611702565b9050600081836113789190611702565b9050600061138582611441565b9050600061139282611470565b9050600081836113a29190611702565b90506000670de0b6b3a7640000826113ba9190611efc565b905080975050505050505050919050565b600080670de0b6b3a7640000836113e29190611702565b90506000816009546113f49190611e77565b90506000670de0b6b3a76400008261140c9190611efc565b905060008160095461141e9190611efc565b90506000633b9aca00826114329190611efc565b90508095505050505050919050565b600080600a546009546114549190611efc565b9050600081846114649190611efc565b90508092505050919050565b600080633b9aca00836114839190611702565b9050600081600b5461149591906116ce565b90506000600a54826114a79190611efc565b9050809350505050919050565b600080fd5b6000819050919050565b6114cc816114b9565b81146114d757600080fd5b50565b6000813590506114e9816114c3565b92915050565b60008060408385031215611506576115056114b4565b5b6000611514858286016114da565b9250506020611525858286016114da565b9150509250929050565b611538816114b9565b82525050565b6000602082019050611553600083018461152f565b92915050565b600081519050919050565b600082825260208201905092915050565b60005b83811015611593578082015181840152602081019050611578565b838111156115a2576000848401525b50505050565b6000601f19601f8301169050919050565b60006115c482611559565b6115ce8185611564565b93506115de818560208601611575565b6115e7816115a8565b840191505092915050565b6000602082019050818103600083015261160c81846115b9565b905092915050565b600073ffffffffffffffffffffffffffffffffffffffff82169050919050565b600061163f82611614565b9050919050565b61164f81611634565b811461165a57600080fd5b50565b60008135905061166c81611646565b92915050565b600060208284031215611688576116876114b4565b5b60006116968482850161165d565b91505092915050565b7f4e487b7100000000000000000000000000000000000000000000000000000000600052601160045260246000fd5b60006116d9826114b9565b91506116e4836114b9565b9250828210156116f7576116f661169f565b5b828203905092915050565b600061170d826114b9565b9150611718836114b9565b9250817fffffffffffffffffffffffffffffffffffffffffffffffffffffffffffffffff04831182151516156117515761175061169f565b5b828202905092915050565b7f4e6f2072652d656e7472616e6379000000000000000000000000000000000000600082015250565b6000611792600e83611564565b915061179d8261175c565b602082019050919050565b600060208201905081810360008301526117c181611785565b9050919050565b6117d181611634565b82525050565b6000819050919050565b6000819050919050565b60006118066118016117fc846117d7565b6117e1565b6114b9565b9050919050565b611816816117eb565b82525050565b600082825260208201905092915050565b7f5468616e6b20796f7520666f72207374616b696e670000000000000000000000600082015250565b600061186360158361181c565b915061186e8261182d565b602082019050919050565b600060a08201905061188e60008301876117c8565b61189b60208301866117c8565b6118a8604083018561180d565b6118b5606083018461152f565b81810360808301526118c681611856565b905095945050505050565b7f6e6f7420656e6f7567682063757272656e6379207374616b6564000000000000600082015250565b6000611907601a83611564565b9150611912826118d1565b602082019050919050565b60006020820190508181036000830152611936816118fa565b9050919050565b7f6e6f7420656e6f75676820656e65726779207374616b65640000000000000000600082015250565b6000611973601883611564565b915061197e8261193d565b602082019050919050565b600060208201905081810360008301526119a281611966565b9050919050565b7f4e487b7100000000000000000000000000000000000000000000000000000000600052603260045260246000fd5b600081549050919050565b600082825260208201905092915050565b60008190508160005260206000209050919050565b611a12816114b9565b82525050565b6000611a248383611a09565b60208301905092915050565b60008160001c9050919050565b6000819050919050565b6000611a5a611a5583611a30565b611a3d565b9050919050565b6000611a6d8254611a47565b9050919050565b6000600182019050919050565b6000611a8c826119d8565b611a9681856119e3565b9350611aa1836119f4565b8060005b83811015611ad957611ab682611a61565b611ac08882611a18565b9750611acb83611a74565b925050600181019050611aa5565b5085935050505092915050565b600081519050919050565b6000819050602082019050919050565b6000602082019050919050565b6000611b1982611ae6565b611b2381856119e3565b9350611b2e83611af1565b8060005b83811015611b5f578151611b468882611a18565b9750611b5183611b01565b925050600181019050611b32565b5085935050505092915050565b7f546f6b656e732057697468647261776e00000000000000000000000000000000600082015250565b6000611ba260108361181c565b9150611bad82611b6c565b602082019050919050565b600060a082019050611bcd60008301876117c8565b611bda60208301866117c8565b8181036040830152611bec8185611a81565b90508181036060830152611c008184611b0e565b90508181036080830152611c1381611b95565b905095945050505050565b6000604082019050611c3360008301856117c8565b611c40602083018461180d565b9392505050565b600081519050611c56816114c3565b92915050565b600060208284031215611c7257611c716114b4565b5b6000611c8084828501611c47565b91505092915050565b7f6e6f7420656e6f7567682063757272656e637900000000000000000000000000600082015250565b6000611cbf601383611564565b9150611cca82611c89565b602082019050919050565b60006020820190508181036000830152611cee81611cb2565b9050919050565b6000819050919050565b6000611d1a611d15611d1084611cf5565b6117e1565b6114b9565b9050919050565b611d2a81611cff565b82525050565b6000604082019050611d4560008301856117c8565b611d526020830184611d21565b9392505050565b7f6e6f7420656e6f75676820656e65726779000000000000000000000000000000600082015250565b6000611d8f601183611564565b9150611d9a82611d59565b602082019050919050565b60006020820190508181036000830152611dbe81611d82565b9050919050565b7f546f6b656e732068617665206265656e207374616b6564000000000000000000600082015250565b6000611dfb60178361181c565b9150611e0682611dc5565b602082019050919050565b600060a082019050611e2660008301876117c8565b611e3360208301866117c8565b8181036040830152611e458185611a81565b90508181036060830152611e598184611b0e565b90508181036080830152611e6c81611dee565b905095945050505050565b6000611e82826114b9565b9150611e8d836114b9565b9250827fffffffffffffffffffffffffffffffffffffffffffffffffffffffffffffffff03821115611ec257611ec161169f565b5b828201905092915050565b7f4e487b7100000000000000000000000000000000000000000000000000000000600052601260045260246000fd5b6000611f07826114b9565b9150611f12836114b9565b925082611f2257611f21611ecd565b5b828204905092915050565b7f746f6f206d75636820737761702c20746869732069732067616d652c206e6f7460008201527f2065636f6e6f6d79000000000000000000000000000000000000000000000000602082015250565b6000611f89602883611564565b9150611f9482611f2d565b604082019050919050565b60006020820190508181036000830152611fb881611f7c565b9050919050565b7f496e76616c696420546f6b656e2049442c20676f20746f20756e69737761702060008201527f6f7220736f6d657468696e670000000000000000000000000000000000000000602082015250565b600061201b602c83611564565b915061202682611fbf565b604082019050919050565b6000602082019050818103600083015261204a8161200e565b9050919050565b50565b600061206160008361181c565b915061206c82612051565b600082019050919050565b600060a08201905061208c60008301876117c8565b61209960208301866117c8565b6120a6604083018561152f565b6120b3606083018461152f565b81810360808301526120c481612054565b905095945050505050565b7f5265636569766520546f6b656e00000000000000000000000000000000000000600082015250565b6000612105600d8361181c565b9150612110826120cf565b602082019050919050565b600060a08201905061213060008301876117c8565b61213d60208301866117c8565b61214a604083018561152f565b612157606083018461152f565b8181036080830152612168816120f8565b905095945050505050565b7f546869732069736e277420666f7220796f750000000000000000000000000000600082015250565b60006121a9601283611564565b91506121b482612173565b602082019050919050565b600060208201905081810360008301526121d88161219c565b9050919050565b60008115159050919050565b6121f4816121df565b82525050565b600060408201905061220f60008301856117c8565b61221c60208301846121eb565b939250505056fe52657761726420636c61696d65642e205468616e6b20796f7520666f72207374616b696e67a26469706673582212201abf96d59c25bda1385bbda06203608d7566a321bdb1e52540a5ed8920c7889164736f6c634300080c0033",
  "immutableReferences": {},
  "source": "// SPDX-License-Identifier: GPL-3.0\r\n\r\npragma solidity ^0.8.0;\r\n\r\nimport \"./BTokens.sol\";\r\n\r\ninterface IERC20 {\r\n    function safeTransferFrom(address _from, address _to, uint256 _id, uint256 _value, bytes calldata _data) external;\r\n    function safeBatchTransferFrom(address _from, address _to, uint256[] calldata _ids, uint256[] calldata _values, bytes calldata _data) external;\r\n    function balanceOf(address _owner, uint256 _id) external view returns (uint256);\r\n    function balanceOfBatch(address[] calldata _owners, uint256[] calldata _ids) external view returns (uint256[] memory);\r\n    function setApprovalForAll(address _operator, bool _approved) external;\r\n    function isApprovedForAll(address _owner, address _operator) external view returns (bool);\r\n}\r\n\r\ncontract Staking {\r\n\r\n    address owner;\r\n    bool internal locked;\r\n\r\n    uint256[] ids = [0,1];// energy,currency\r\n    \r\n\r\n    address ceAddress; \r\n    BTokens ce = BTokens(ceAddress);\r\n    \r\n    mapping(address => User) users;\r\n    struct User{\r\n        uint rewardRate;\r\n        uint stakedEnergy;\r\n        uint stakedCurrency;\r\n        uint lastWithdrawalTime;\r\n        uint[] inputAmounts;\r\n    }\r\n    \r\n    uint currencyLiquidity;\r\n    uint energyLiquidity;\r\n    // Liquidity Calc\r\n    uint swap; //\r\n    uint rcvd; //\r\n    uint swapPool18 = swap*10**18;\r\n    uint rcvdPool9 = rcvd*10**9;\r\n    uint rcvd18 = rcvd*10**18;\r\n    \r\nconstructor() {\r\n    owner = msg.sender;\r\n}\r\n\r\nmodifier noReentrant() {\r\n        require(!locked, \"No re-entrancy\");\r\n        locked = true;\r\n        _;\r\n        locked = false;\r\n        }\r\n\r\n    function setAddress(address _addr) external {\r\n        require(owner==msg.sender, \"This isn't for you\");\r\n        ceAddress = _addr;\r\n        ce.setApprovalForAll(address(this), true);\r\n    }         \r\n\r\n    function StakeTokens(uint _currency, uint _energy) public noReentrant returns (string memory)  {\r\n        require(ce.balanceOf(msg.sender, 1)>=_currency, \"not enough currency\");\r\n        require(ce.balanceOf(msg.sender, 0)>=_energy, \"not enough energy\");\r\n        User memory u = users[msg.sender];\r\n        u.rewardRate = CalculateRewardRate(_currency, _energy);\r\n        u.inputAmounts[0] = _energy;\r\n        u.inputAmounts[1] = _currency;\r\n        ce.safeBatchTransferFrom(msg.sender, address(this), ids, u.inputAmounts, \"Tokens have been staked\");\r\n        u.stakedEnergy += _energy;\r\n        u.stakedCurrency += _currency;\r\n        if(u.rewardRate>0){\r\n            ClaimReward();\r\n            return \"Reward claimed. Thank you for staking\";\r\n        } else {return \"Thank you for staking\";}\r\n    }\r\n\r\n    function UnstakeTokens(uint _currency, uint _energy) noReentrant public  {\r\n        User memory u = users[msg.sender];\r\n        require(u.stakedCurrency >= _currency, \"not enough currency staked\");\r\n        require(u.stakedEnergy >= _energy, \"not enough energy staked\");\r\n        u.rewardRate = CalculateRewardRate(_currency, _energy);\r\n        u.stakedEnergy -= _energy;\r\n        u.stakedCurrency -= _currency;\r\n        u.inputAmounts[0] = _energy;\r\n        u.inputAmounts[1] = _currency;\r\n        ce.safeBatchTransferFrom(address(this), msg.sender, ids, u.inputAmounts, \"Tokens Withdrawn\");\r\n    }\r\n\r\n    function CalculateRewardAmount(uint rewardRate, uint _lastClaim) public view returns (uint rewardAmount) {\r\n        uint _rewardRate = rewardRate;\r\n        uint _timeFrame = block.timestamp - _lastClaim;\r\n        return rewardAmount = _rewardRate * _timeFrame;\r\n    }\r\n\r\n    function CalculateRewardRate(uint _currency, uint _energy) public view returns (uint rewardRate6) {\r\n        uint _cStaking = users[msg.sender].stakedCurrency + _currency;\r\n        uint _eStaking = users[msg.sender].stakedEnergy + _energy;\r\n        uint _cStat = (100 * _cStaking) / currencyLiquidity;\r\n        uint _eStat = (100 * _eStaking) / energyLiquidity;\r\n        uint ProposedRewardRate = _cStat * _eStat;\r\n        if (ProposedRewardRate > 25000){\r\n            return 25000;\r\n        } else {\r\n            return ProposedRewardRate;\r\n        }\r\n    }\r\n\r\n    function ClaimReward() public noReentrant returns (uint _reward) {\r\n        // add reentrancy \r\n        User memory u = users[msg.sender];\r\n        _reward = CalculateRewardAmount(u.rewardRate, u.lastWithdrawalTime);\r\n        ce.safeTransferFrom(address(this), msg.sender, 1, _reward, \"Thank you for staking\");\r\n        u.lastWithdrawalTime = block.timestamp;\r\n    }\r\n\r\n    function swapCurrency(uint _id, uint _amount) external {\r\n        // noReentrancy\r\n        uint other;\r\n        require(_amount<=100, \"too much swap, this is game, not economy\");\r\n        if(_id==1){\r\n            require(ce.balanceOf(msg.sender, 1)>=_amount+1, \"not enough currency\");\r\n            swap = currencyLiquidity;\r\n            rcvd = energyLiquidity;\r\n            other = 0;\r\n        } else if(_id==0) {\r\n            require(ce.balanceOf(msg.sender, 0)>=_amount+1, \"not enough energy\");\r\n            rcvd = currencyLiquidity;\r\n            swap = energyLiquidity;\r\n            other = 1;\r\n        } else {\r\n            revert(\"Invalid Token ID, go to uniswap or something\");\r\n        }\r\n        //probably able to do a batch transfer for this one\r\n        UpdatePools();\r\n        uint returnValue = getSwapValue(_amount);\r\n        ce.safeTransferFrom(msg.sender, address(this), _id, _amount+1, \"\");\r\n        ce.safeTransferFrom(address(this), msg.sender, other, returnValue, \"Receive Token\");\r\n        UpdatePools();\r\n    }\r\n\r\n    function UpdatePools() private {\r\n        energyLiquidity = ce.balanceOf(address(this), 0);\r\n        currencyLiquidity = ce.balanceOf(address(this), 1);\r\n    }\r\n\r\n    // Liquidity Calculation\r\n\r\n    function discountValue(uint swapAmount) private view returns (uint) {\r\n        uint swapAmt18 = swapAmount*10**18; \r\n        uint newSwapPool18 = swapPool18 + swapAmt18;\r\n        uint newSwapPool = newSwapPool18/10**18;\r\n        uint discountRatio18 = swapPool18 / newSwapPool;\r\n        uint discountRatio9 = discountRatio18/10**9;\r\n        return (discountRatio9); \r\n    }\r\n\r\n    function ratioEquivalence(uint discountedSwapAmount18) private view returns (uint) {\r\n        uint ratio9 = swapPool18 / rcvdPool9;\r\n        uint DRAmount9 = discountedSwapAmount18 / ratio9;\r\n        return DRAmount9;\r\n    }\r\n\r\n    function discountValue2(uint DRAmount9) private view returns (uint) {\r\n        uint DRAmount18 = DRAmount9 * 10**9;\r\n        uint newrcvd18 = rcvd18 - DRAmount18;\r\n        uint ratio9 = newrcvd18 / rcvdPool9;  // I think we may need to switch these numbers\r\n        return ratio9; \r\n    }\r\n\r\n    function Combine(uint swapAmt) private view returns (uint) {\r\n        uint value9 = discountValue(swapAmt);\r\n        uint swapAmt9 = swapAmt * 10**9;\r\n        uint value18 = value9 * swapAmt9; \r\n        uint nothervalue9 = ratioEquivalence(value18);\r\n        uint thirdvalue9 = discountValue2(nothervalue9);\r\n        uint fourthvalue18 = nothervalue9 * thirdvalue9;\r\n        uint fifthvalue = fourthvalue18/10**18;\r\n        return  fifthvalue;\r\n    }\r\n\r\n    function getSwapValue(uint _amount) private view returns (uint returnAmount) {\r\n         returnAmount = Combine(_amount);\r\n    }\r\n\r\n}",
  "sourcePath": "C:\\Users\\raa42\\Documents\\Banguins\\contracts\\StakenSwap.sol",
  "compiler": {
    "name": "solc",
    "version": "0.8.12+commit.f00d7308.Emscripten.clang"
  },
  "schemaVersion": "3.4.6",
  "updatedAt": "2022-03-13T06:48:55.412Z",
  "networkType": "ethereum",
  "devdoc": {
    "kind": "dev",
    "methods": {},
    "version": 1
  },
  "userdoc": {
    "kind": "user",
    "methods": {},
    "version": 1
  }
}