{
  "contractName": "BTokens",
  "abi": [
    {
      "inputs": [
        {
          "internalType": "contract Players",
          "name": "_players",
          "type": "address"
        },
        {
          "internalType": "contract Monsters",
          "name": "_monsters",
          "type": "address"
        }
      ],
      "stateMutability": "nonpayable",
      "type": "constructor"
    },
    {
      "anonymous": false,
      "inputs": [
        {
          "indexed": true,
          "internalType": "address",
          "name": "account",
          "type": "address"
        },
        {
          "indexed": true,
          "internalType": "address",
          "name": "operator",
          "type": "address"
        },
        {
          "indexed": false,
          "internalType": "bool",
          "name": "approved",
          "type": "bool"
        }
      ],
      "name": "ApprovalForAll",
      "type": "event"
    },
    {
      "anonymous": false,
      "inputs": [
        {
          "indexed": false,
          "internalType": "address",
          "name": "account",
          "type": "address"
        }
      ],
      "name": "Paused",
      "type": "event"
    },
    {
      "anonymous": false,
      "inputs": [
        {
          "indexed": true,
          "internalType": "bytes32",
          "name": "role",
          "type": "bytes32"
        },
        {
          "indexed": true,
          "internalType": "bytes32",
          "name": "previousAdminRole",
          "type": "bytes32"
        },
        {
          "indexed": true,
          "internalType": "bytes32",
          "name": "newAdminRole",
          "type": "bytes32"
        }
      ],
      "name": "RoleAdminChanged",
      "type": "event"
    },
    {
      "anonymous": false,
      "inputs": [
        {
          "indexed": true,
          "internalType": "bytes32",
          "name": "role",
          "type": "bytes32"
        },
        {
          "indexed": true,
          "internalType": "address",
          "name": "account",
          "type": "address"
        },
        {
          "indexed": true,
          "internalType": "address",
          "name": "sender",
          "type": "address"
        }
      ],
      "name": "RoleGranted",
      "type": "event"
    },
    {
      "anonymous": false,
      "inputs": [
        {
          "indexed": true,
          "internalType": "bytes32",
          "name": "role",
          "type": "bytes32"
        },
        {
          "indexed": true,
          "internalType": "address",
          "name": "account",
          "type": "address"
        },
        {
          "indexed": true,
          "internalType": "address",
          "name": "sender",
          "type": "address"
        }
      ],
      "name": "RoleRevoked",
      "type": "event"
    },
    {
      "anonymous": false,
      "inputs": [
        {
          "indexed": true,
          "internalType": "address",
          "name": "operator",
          "type": "address"
        },
        {
          "indexed": true,
          "internalType": "address",
          "name": "from",
          "type": "address"
        },
        {
          "indexed": true,
          "internalType": "address",
          "name": "to",
          "type": "address"
        },
        {
          "indexed": false,
          "internalType": "uint256[]",
          "name": "ids",
          "type": "uint256[]"
        },
        {
          "indexed": false,
          "internalType": "uint256[]",
          "name": "values",
          "type": "uint256[]"
        }
      ],
      "name": "TransferBatch",
      "type": "event"
    },
    {
      "anonymous": false,
      "inputs": [
        {
          "indexed": true,
          "internalType": "address",
          "name": "operator",
          "type": "address"
        },
        {
          "indexed": true,
          "internalType": "address",
          "name": "from",
          "type": "address"
        },
        {
          "indexed": true,
          "internalType": "address",
          "name": "to",
          "type": "address"
        },
        {
          "indexed": false,
          "internalType": "uint256",
          "name": "id",
          "type": "uint256"
        },
        {
          "indexed": false,
          "internalType": "uint256",
          "name": "value",
          "type": "uint256"
        }
      ],
      "name": "TransferSingle",
      "type": "event"
    },
    {
      "anonymous": false,
      "inputs": [
        {
          "indexed": false,
          "internalType": "string",
          "name": "value",
          "type": "string"
        },
        {
          "indexed": true,
          "internalType": "uint256",
          "name": "id",
          "type": "uint256"
        }
      ],
      "name": "URI",
      "type": "event"
    },
    {
      "anonymous": false,
      "inputs": [
        {
          "indexed": false,
          "internalType": "address",
          "name": "account",
          "type": "address"
        }
      ],
      "name": "Unpaused",
      "type": "event"
    },
    {
      "inputs": [],
      "name": "DEFAULT_ADMIN_ROLE",
      "outputs": [
        {
          "internalType": "bytes32",
          "name": "",
          "type": "bytes32"
        }
      ],
      "stateMutability": "view",
      "type": "function",
      "constant": true
    },
    {
      "inputs": [],
      "name": "MINTER_ROLE",
      "outputs": [
        {
          "internalType": "bytes32",
          "name": "",
          "type": "bytes32"
        }
      ],
      "stateMutability": "view",
      "type": "function",
      "constant": true
    },
    {
      "inputs": [],
      "name": "PAUSER_ROLE",
      "outputs": [
        {
          "internalType": "bytes32",
          "name": "",
          "type": "bytes32"
        }
      ],
      "stateMutability": "view",
      "type": "function",
      "constant": true
    },
    {
      "inputs": [
        {
          "internalType": "address",
          "name": "account",
          "type": "address"
        },
        {
          "internalType": "uint256",
          "name": "id",
          "type": "uint256"
        }
      ],
      "name": "balanceOf",
      "outputs": [
        {
          "internalType": "uint256",
          "name": "",
          "type": "uint256"
        }
      ],
      "stateMutability": "view",
      "type": "function",
      "constant": true
    },
    {
      "inputs": [
        {
          "internalType": "address[]",
          "name": "accounts",
          "type": "address[]"
        },
        {
          "internalType": "uint256[]",
          "name": "ids",
          "type": "uint256[]"
        }
      ],
      "name": "balanceOfBatch",
      "outputs": [
        {
          "internalType": "uint256[]",
          "name": "",
          "type": "uint256[]"
        }
      ],
      "stateMutability": "view",
      "type": "function",
      "constant": true
    },
    {
      "inputs": [
        {
          "internalType": "address",
          "name": "account",
          "type": "address"
        },
        {
          "internalType": "uint256",
          "name": "id",
          "type": "uint256"
        },
        {
          "internalType": "uint256",
          "name": "value",
          "type": "uint256"
        }
      ],
      "name": "burn",
      "outputs": [],
      "stateMutability": "nonpayable",
      "type": "function"
    },
    {
      "inputs": [
        {
          "internalType": "address",
          "name": "account",
          "type": "address"
        },
        {
          "internalType": "uint256[]",
          "name": "ids",
          "type": "uint256[]"
        },
        {
          "internalType": "uint256[]",
          "name": "values",
          "type": "uint256[]"
        }
      ],
      "name": "burnBatch",
      "outputs": [],
      "stateMutability": "nonpayable",
      "type": "function"
    },
    {
      "inputs": [
        {
          "internalType": "bytes32",
          "name": "role",
          "type": "bytes32"
        }
      ],
      "name": "getRoleAdmin",
      "outputs": [
        {
          "internalType": "bytes32",
          "name": "",
          "type": "bytes32"
        }
      ],
      "stateMutability": "view",
      "type": "function",
      "constant": true
    },
    {
      "inputs": [
        {
          "internalType": "bytes32",
          "name": "role",
          "type": "bytes32"
        },
        {
          "internalType": "uint256",
          "name": "index",
          "type": "uint256"
        }
      ],
      "name": "getRoleMember",
      "outputs": [
        {
          "internalType": "address",
          "name": "",
          "type": "address"
        }
      ],
      "stateMutability": "view",
      "type": "function",
      "constant": true
    },
    {
      "inputs": [
        {
          "internalType": "bytes32",
          "name": "role",
          "type": "bytes32"
        }
      ],
      "name": "getRoleMemberCount",
      "outputs": [
        {
          "internalType": "uint256",
          "name": "",
          "type": "uint256"
        }
      ],
      "stateMutability": "view",
      "type": "function",
      "constant": true
    },
    {
      "inputs": [
        {
          "internalType": "bytes32",
          "name": "role",
          "type": "bytes32"
        },
        {
          "internalType": "address",
          "name": "account",
          "type": "address"
        }
      ],
      "name": "grantRole",
      "outputs": [],
      "stateMutability": "nonpayable",
      "type": "function"
    },
    {
      "inputs": [
        {
          "internalType": "bytes32",
          "name": "role",
          "type": "bytes32"
        },
        {
          "internalType": "address",
          "name": "account",
          "type": "address"
        }
      ],
      "name": "hasRole",
      "outputs": [
        {
          "internalType": "bool",
          "name": "",
          "type": "bool"
        }
      ],
      "stateMutability": "view",
      "type": "function",
      "constant": true
    },
    {
      "inputs": [
        {
          "internalType": "address",
          "name": "account",
          "type": "address"
        },
        {
          "internalType": "address",
          "name": "operator",
          "type": "address"
        }
      ],
      "name": "isApprovedForAll",
      "outputs": [
        {
          "internalType": "bool",
          "name": "",
          "type": "bool"
        }
      ],
      "stateMutability": "view",
      "type": "function",
      "constant": true
    },
    {
      "inputs": [
        {
          "internalType": "address",
          "name": "to",
          "type": "address"
        },
        {
          "internalType": "uint256",
          "name": "id",
          "type": "uint256"
        },
        {
          "internalType": "uint256",
          "name": "amount",
          "type": "uint256"
        },
        {
          "internalType": "bytes",
          "name": "data",
          "type": "bytes"
        }
      ],
      "name": "mint",
      "outputs": [],
      "stateMutability": "nonpayable",
      "type": "function"
    },
    {
      "inputs": [
        {
          "internalType": "address",
          "name": "to",
          "type": "address"
        },
        {
          "internalType": "uint256[]",
          "name": "ids",
          "type": "uint256[]"
        },
        {
          "internalType": "uint256[]",
          "name": "amounts",
          "type": "uint256[]"
        },
        {
          "internalType": "bytes",
          "name": "data",
          "type": "bytes"
        }
      ],
      "name": "mintBatch",
      "outputs": [],
      "stateMutability": "nonpayable",
      "type": "function"
    },
    {
      "inputs": [],
      "name": "pause",
      "outputs": [],
      "stateMutability": "nonpayable",
      "type": "function"
    },
    {
      "inputs": [],
      "name": "paused",
      "outputs": [
        {
          "internalType": "bool",
          "name": "",
          "type": "bool"
        }
      ],
      "stateMutability": "view",
      "type": "function",
      "constant": true
    },
    {
      "inputs": [
        {
          "internalType": "bytes32",
          "name": "role",
          "type": "bytes32"
        },
        {
          "internalType": "address",
          "name": "account",
          "type": "address"
        }
      ],
      "name": "renounceRole",
      "outputs": [],
      "stateMutability": "nonpayable",
      "type": "function"
    },
    {
      "inputs": [
        {
          "internalType": "bytes32",
          "name": "role",
          "type": "bytes32"
        },
        {
          "internalType": "address",
          "name": "account",
          "type": "address"
        }
      ],
      "name": "revokeRole",
      "outputs": [],
      "stateMutability": "nonpayable",
      "type": "function"
    },
    {
      "inputs": [
        {
          "internalType": "address",
          "name": "from",
          "type": "address"
        },
        {
          "internalType": "address",
          "name": "to",
          "type": "address"
        },
        {
          "internalType": "uint256[]",
          "name": "ids",
          "type": "uint256[]"
        },
        {
          "internalType": "uint256[]",
          "name": "amounts",
          "type": "uint256[]"
        },
        {
          "internalType": "bytes",
          "name": "data",
          "type": "bytes"
        }
      ],
      "name": "safeBatchTransferFrom",
      "outputs": [],
      "stateMutability": "nonpayable",
      "type": "function"
    },
    {
      "inputs": [
        {
          "internalType": "address",
          "name": "from",
          "type": "address"
        },
        {
          "internalType": "address",
          "name": "to",
          "type": "address"
        },
        {
          "internalType": "uint256",
          "name": "id",
          "type": "uint256"
        },
        {
          "internalType": "uint256",
          "name": "amount",
          "type": "uint256"
        },
        {
          "internalType": "bytes",
          "name": "data",
          "type": "bytes"
        }
      ],
      "name": "safeTransferFrom",
      "outputs": [],
      "stateMutability": "nonpayable",
      "type": "function"
    },
    {
      "inputs": [
        {
          "internalType": "address",
          "name": "operator",
          "type": "address"
        },
        {
          "internalType": "bool",
          "name": "approved",
          "type": "bool"
        }
      ],
      "name": "setApprovalForAll",
      "outputs": [],
      "stateMutability": "nonpayable",
      "type": "function"
    },
    {
      "inputs": [
        {
          "internalType": "bytes4",
          "name": "interfaceId",
          "type": "bytes4"
        }
      ],
      "name": "supportsInterface",
      "outputs": [
        {
          "internalType": "bool",
          "name": "",
          "type": "bool"
        }
      ],
      "stateMutability": "view",
      "type": "function",
      "constant": true
    },
    {
      "inputs": [],
      "name": "unpause",
      "outputs": [],
      "stateMutability": "nonpayable",
      "type": "function"
    },
    {
      "inputs": [
        {
          "internalType": "uint256",
          "name": "",
          "type": "uint256"
        }
      ],
      "name": "uri",
      "outputs": [
        {
          "internalType": "string",
          "name": "",
          "type": "string"
        }
      ],
      "stateMutability": "view",
      "type": "function",
      "constant": true
    },
    {
      "inputs": [
        {
          "internalType": "address",
          "name": "account",
          "type": "address"
        }
      ],
      "name": "buyPack",
      "outputs": [
        {
          "internalType": "uint256[]",
          "name": "",
          "type": "uint256[]"
        },
        {
          "internalType": "uint8[]",
          "name": "",
          "type": "uint8[]"
        }
      ],
      "stateMutability": "payable",
      "type": "function",
      "payable": true
    },
    {
      "inputs": [
        {
          "internalType": "address",
          "name": "account",
          "type": "address"
        }
      ],
      "name": "balanceOfPlayer",
      "outputs": [
        {
          "internalType": "uint256[]",
          "name": "",
          "type": "uint256[]"
        },
        {
          "internalType": "uint256[]",
          "name": "",
          "type": "uint256[]"
        }
      ],
      "stateMutability": "view",
      "type": "function",
      "constant": true
    },
    {
      "inputs": [
        {
          "internalType": "address",
          "name": "account",
          "type": "address"
        }
      ],
      "name": "generateDailyNRGY",
      "outputs": [],
      "stateMutability": "nonpayable",
      "type": "function"
    },
    {
      "inputs": [
        {
          "internalType": "address",
          "name": "player",
          "type": "address"
        },
        {
          "internalType": "address",
          "name": "operator",
          "type": "address"
        }
      ],
      "name": "setApprovalForPlayerTokens",
      "outputs": [],
      "stateMutability": "nonpayable",
      "type": "function"
    },
    {
      "inputs": [
        {
          "internalType": "address",
          "name": "account",
          "type": "address"
        }
      ],
      "name": "grantAdmin",
      "outputs": [],
      "stateMutability": "nonpayable",
      "type": "function"
    },
    {
      "inputs": [
        {
          "internalType": "address",
          "name": "account",
          "type": "address"
        }
      ],
      "name": "grantMinter",
      "outputs": [],
      "stateMutability": "nonpayable",
      "type": "function"
    }
  ],
  "bytecode": "0x60806040523480156200001157600080fd5b50604051620064cc380380620064cc833981810160405281019062000037919062000641565b6040518060400160405280601781526020017f697066732d626173652d7572692d676f65732d68657265000000000000000000815250806200007f816200021c60201b60201c565b506000600560006101000a81548160ff021916908315150217905550620000bf6000801b620000b36200023860201b60201c565b6200024060201b60201c565b620001007f9f2df0fed2c77648de5860a4cc508cd0818c85b8b8a1ab4ceeef8d981c8956a6620000f46200023860201b60201c565b6200024060201b60201c565b620001417f65d7a28e3265b37a6474929f336521b332c1681b933f6cb9f3376673440d862a620001356200023860201b60201c565b6200024060201b60201c565b5081600560016101000a81548173ffffffffffffffffffffffffffffffffffffffff021916908373ffffffffffffffffffffffffffffffffffffffff16021790555080600660006101000a81548173ffffffffffffffffffffffffffffffffffffffff021916908373ffffffffffffffffffffffffffffffffffffffff160217905550620001d46200023860201b60201c565b600760006101000a81548173ffffffffffffffffffffffffffffffffffffffff021916908373ffffffffffffffffffffffffffffffffffffffff1602179055505050620006ed565b806004908051906020019062000234929190620004ce565b5050565b600033905090565b6200025282826200025660201b60201c565b5050565b6200026d82826200029e60201b62001a4f1760201c565b6200029981600160008581526020019081526020016000206200038f60201b62001b2f1790919060201c565b505050565b620002b08282620003c760201b60201c565b6200038b57600160008084815260200190815260200160002060000160008373ffffffffffffffffffffffffffffffffffffffff1673ffffffffffffffffffffffffffffffffffffffff16815260200190815260200160002060006101000a81548160ff021916908315150217905550620003306200023860201b60201c565b73ffffffffffffffffffffffffffffffffffffffff168173ffffffffffffffffffffffffffffffffffffffff16837f2f8788117e7eff1d82e926ec794901d17c78024a50270940304540a733656f0d60405160405180910390a45b5050565b6000620003bf836000018373ffffffffffffffffffffffffffffffffffffffff1660001b6200043160201b60201c565b905092915050565b600080600084815260200190815260200160002060000160008373ffffffffffffffffffffffffffffffffffffffff1673ffffffffffffffffffffffffffffffffffffffff16815260200190815260200160002060009054906101000a900460ff16905092915050565b6000620004458383620004ab60201b60201c565b620004a0578260000182908060018154018082558091505060019003906000526020600020016000909190919091505582600001805490508360010160008481526020019081526020016000208190555060019050620004a5565b600090505b92915050565b600080836001016000848152602001908152602001600020541415905092915050565b828054620004dc90620006b7565b90600052602060002090601f0160209004810192826200050057600085556200054c565b82601f106200051b57805160ff19168380011785556200054c565b828001600101855582156200054c579182015b828111156200054b5782518255916020019190600101906200052e565b5b5090506200055b91906200055f565b5090565b5b808211156200057a57600081600090555060010162000560565b5090565b600080fd5b600073ffffffffffffffffffffffffffffffffffffffff82169050919050565b6000620005b08262000583565b9050919050565b6000620005c482620005a3565b9050919050565b620005d681620005b7565b8114620005e257600080fd5b50565b600081519050620005f681620005cb565b92915050565b60006200060982620005a3565b9050919050565b6200061b81620005fc565b81146200062757600080fd5b50565b6000815190506200063b8162000610565b92915050565b600080604083850312156200065b576200065a6200057e565b5b60006200066b85828601620005e5565b92505060206200067e858286016200062a565b9150509250929050565b7f4e487b7100000000000000000000000000000000000000000000000000000000600052602260045260246000fd5b60006002820490506001821680620006d057607f821691505b60208210811415620006e757620006e662000688565b5b50919050565b615dcf80620006fd6000396000f3fe6080604052600436106101d75760003560e01c80636b20c45411610102578063b74fce2811610095578063e63ab1e911610064578063e63ab1e9146106ce578063e985e9c5146106f9578063f242432a14610736578063f5298aca1461075f576101d7565b8063b74fce281461060c578063ca15c8731461063d578063d53913931461067a578063d547741f146106a5576101d7565b806391d14854116100d157806391d148541461055257806394af1ce51461058f578063a217fddf146105b8578063a22cb465146105e3576101d7565b80636b20c454146104ac578063731133e9146104d55780638456cb59146104fe5780639010d07c14610515576101d7565b80632eb2c2d61161017a5780633f4ba83a116101495780633f4ba83a146104045780634e1273f41461041b5780635c975abb1461045857806360c8dbdf14610483576101d7565b80632eb2c2d6146103605780632f2ff15d1461038957806335bb3e16146103b257806336568abe146103db576101d7565b80631f7fdffa116101b65780631f7fdffa14610293578063248a9ca3146102bc578063261707fa146102f95780632911982e14610322576101d7565b8062fdd58e146101dc57806301ffc9a7146102195780630e89341c14610256575b600080fd5b3480156101e857600080fd5b5061020360048036038101906101fe9190613a52565b610788565b6040516102109190613aa1565b60405180910390f35b34801561022557600080fd5b50610240600480360381019061023b9190613b14565b610852565b60405161024d9190613b5c565b60405180910390f35b34801561026257600080fd5b5061027d60048036038101906102789190613b77565b610864565b60405161028a9190613c3d565b60405180910390f35b34801561029f57600080fd5b506102ba60048036038101906102b59190613e5c565b6108f8565b005b3480156102c857600080fd5b506102e360048036038101906102de9190613f4d565b61097a565b6040516102f09190613f89565b60405180910390f35b34801561030557600080fd5b50610320600480360381019061031b9190613fa4565b610999565b005b34801561032e57600080fd5b5061034960048036038101906103449190613fa4565b6109dc565b60405161035792919061408f565b60405180910390f35b34801561036c57600080fd5b50610387600480360381019061038291906140c6565b610ca4565b005b34801561039557600080fd5b506103b060048036038101906103ab9190614195565b610d45565b005b3480156103be57600080fd5b506103d960048036038101906103d49190613fa4565b610d6e565b005b3480156103e757600080fd5b5061040260048036038101906103fd9190614195565b610d94565b005b34801561041057600080fd5b50610419610e17565b005b34801561042757600080fd5b50610442600480360381019061043d9190614298565b610e91565b60405161044f9190614310565b60405180910390f35b34801561046457600080fd5b5061046d610faa565b60405161047a9190613b5c565b60405180910390f35b34801561048f57600080fd5b506104aa60048036038101906104a59190614332565b610fc1565b005b3480156104b857600080fd5b506104d360048036038101906104ce9190614372565b610fe7565b005b3480156104e157600080fd5b506104fc60048036038101906104f791906143fd565b611084565b005b34801561050a57600080fd5b50610513611106565b005b34801561052157600080fd5b5061053c60048036038101906105379190614480565b611180565b60405161054991906144cf565b60405180910390f35b34801561055e57600080fd5b5061057960048036038101906105749190614195565b6111af565b6040516105869190613b5c565b60405180910390f35b34801561059b57600080fd5b506105b660048036038101906105b19190613fa4565b611219565b005b3480156105c457600080fd5b506105cd6114b4565b6040516105da9190613f89565b60405180910390f35b3480156105ef57600080fd5b5061060a60048036038101906106059190614516565b6114bb565b005b61062660048036038101906106219190613fa4565b6114d1565b604051610634929190614621565b60405180910390f35b34801561064957600080fd5b50610664600480360381019061065f9190613f4d565b6117e8565b6040516106719190613aa1565b60405180910390f35b34801561068657600080fd5b5061068f61180c565b60405161069c9190613f89565b60405180910390f35b3480156106b157600080fd5b506106cc60048036038101906106c79190614195565b611830565b005b3480156106da57600080fd5b506106e3611859565b6040516106f09190613f89565b60405180910390f35b34801561070557600080fd5b50610720600480360381019061071b9190614332565b61187d565b60405161072d9190613b5c565b60405180910390f35b34801561074257600080fd5b5061075d60048036038101906107589190614658565b611911565b005b34801561076b57600080fd5b50610786600480360381019061078191906146ef565b6119b2565b005b60008073ffffffffffffffffffffffffffffffffffffffff168373ffffffffffffffffffffffffffffffffffffffff1614156107f9576040517f08c379a00000000000000000000000000000000000000000000000000000000081526004016107f0906147b4565b60405180910390fd5b6002600083815260200190815260200160002060008473ffffffffffffffffffffffffffffffffffffffff1673ffffffffffffffffffffffffffffffffffffffff16815260200190815260200160002054905092915050565b600061085d82611b5f565b9050919050565b60606004805461087390614803565b80601f016020809104026020016040519081016040528092919081815260200182805461089f90614803565b80156108ec5780601f106108c1576101008083540402835291602001916108ec565b820191906000526020600020905b8154815290600101906020018083116108cf57829003601f168201915b50505050509050919050565b6109297f9f2df0fed2c77648de5860a4cc508cd0818c85b8b8a1ab4ceeef8d981c8956a6610924611c41565b6111af565b610968576040517f08c379a000000000000000000000000000000000000000000000000000000000815260040161095f906148a7565b60405180910390fd5b61097484848484611c49565b50505050565b6000806000838152602001908152602001600020600101549050919050565b6000801b6109ae816109a9611c41565b611e68565b6109d87f9f2df0fed2c77648de5860a4cc508cd0818c85b8b8a1ab4ceeef8d981c8956a683611f05565b5050565b6060806000805b6002600660009054906101000a900473ffffffffffffffffffffffffffffffffffffffff1673ffffffffffffffffffffffffffffffffffffffff16639087590e6040518163ffffffff1660e01b8152600401602060405180830381865afa158015610a52573d6000803e3d6000fd5b505050506040513d601f19601f82011682018060405250810190610a7691906148dc565b610a809190614938565b811015610ac6576000610a938683610788565b1180610a9f5750600281105b15610ab3578180610aaf9061498e565b9250505b8080610abe9061498e565b9150506109e3565b5060008167ffffffffffffffff811115610ae357610ae2613c64565b5b604051908082528060200260200182016040528015610b115781602001602082028036833780820191505090505b50905060008267ffffffffffffffff811115610b3057610b2f613c64565b5b604051908082528060200260200182016040528015610b5e5781602001602082028036833780820191505090505b5090506000805b6002600660009054906101000a900473ffffffffffffffffffffffffffffffffffffffff1673ffffffffffffffffffffffffffffffffffffffff16639087590e6040518163ffffffff1660e01b8152600401602060405180830381865afa158015610bd4573d6000803e3d6000fd5b505050506040513d601f19601f82011682018060405250810190610bf891906148dc565b610c029190614938565b811015610c94576000610c158983610788565b90506000811180610c265750600282105b15610c805781858460ff1681518110610c4257610c416149d7565b5b60200260200101818152505080848460ff1681518110610c6557610c646149d7565b5b6020026020010181815250508280610c7c90614a06565b9350505b508080610c8c9061498e565b915050610b65565b5082829550955050505050915091565b610cac611c41565b73ffffffffffffffffffffffffffffffffffffffff168573ffffffffffffffffffffffffffffffffffffffff161480610cf25750610cf185610cec611c41565b61187d565b5b610d31576040517f08c379a0000000000000000000000000000000000000000000000000000000008152600401610d2890614aa2565b60405180910390fd5b610d3e8585858585611f39565b5050505050565b610d4e8261097a565b610d5f81610d5a611c41565b611e68565b610d698383611f05565b505050565b6000801b610d8381610d7e611c41565b611e68565b610d906000801b83611f05565b5050565b610d9c611c41565b73ffffffffffffffffffffffffffffffffffffffff168173ffffffffffffffffffffffffffffffffffffffff1614610e09576040517f08c379a0000000000000000000000000000000000000000000000000000000008152600401610e0090614b34565b60405180910390fd5b610e138282612250565b5050565b610e487f65d7a28e3265b37a6474929f336521b332c1681b933f6cb9f3376673440d862a610e43611c41565b6111af565b610e87576040517f08c379a0000000000000000000000000000000000000000000000000000000008152600401610e7e90614bc6565b60405180910390fd5b610e8f612284565b565b60608151835114610ed7576040517f08c379a0000000000000000000000000000000000000000000000000000000008152600401610ece90614c58565b60405180910390fd5b6000835167ffffffffffffffff811115610ef457610ef3613c64565b5b604051908082528060200260200182016040528015610f225781602001602082028036833780820191505090505b50905060005b8451811015610f9f57610f6f858281518110610f4757610f466149d7565b5b6020026020010151858381518110610f6257610f616149d7565b5b6020026020010151610788565b828281518110610f8257610f816149d7565b5b60200260200101818152505080610f989061498e565b9050610f28565b508091505092915050565b6000600560009054906101000a900460ff16905090565b6000801b610fd681610fd1611c41565b611e68565b610fe283836001612326565b505050565b610fef611c41565b73ffffffffffffffffffffffffffffffffffffffff168373ffffffffffffffffffffffffffffffffffffffff16148061103557506110348361102f611c41565b61187d565b5b611074576040517f08c379a000000000000000000000000000000000000000000000000000000000815260040161106b90614cea565b60405180910390fd5b61107f838383612493565b505050565b6110b57f9f2df0fed2c77648de5860a4cc508cd0818c85b8b8a1ab4ceeef8d981c8956a66110b0611c41565b6111af565b6110f4576040517f08c379a00000000000000000000000000000000000000000000000000000000081526004016110eb906148a7565b60405180910390fd5b61110084848484612746565b50505050565b6111377f65d7a28e3265b37a6474929f336521b332c1681b933f6cb9f3376673440d862a611132611c41565b6111af565b611176576040517f08c379a000000000000000000000000000000000000000000000000000000000815260040161116d90614d7c565b60405180910390fd5b61117e6128dd565b565b60006111a7826001600086815260200190815260200160002061298090919063ffffffff16565b905092915050565b600080600084815260200190815260200160002060000160008373ffffffffffffffffffffffffffffffffffffffff1673ffffffffffffffffffffffffffffffffffffffff16815260200190815260200160002060009054906101000a900460ff16905092915050565b600162015180600560019054906101000a900473ffffffffffffffffffffffffffffffffffffffff1673ffffffffffffffffffffffffffffffffffffffff16630786e6e4846040518263ffffffff1660e01b815260040161127a91906144cf565b602060405180830381865afa158015611297573d6000803e3d6000fd5b505050506040513d601f19601f820116820180604052508101906112bb91906148dc565b6112c59190614dcb565b426112d09190614dfc565b11611310576040517f08c379a000000000000000000000000000000000000000000000000000000000815260040161130790614e7c565b60405180910390fd5b600560019054906101000a900473ffffffffffffffffffffffffffffffffffffffff1673ffffffffffffffffffffffffffffffffffffffff1663d531b97a826040518263ffffffff1660e01b815260040161136b91906144cf565b600060405180830381600087803b15801561138557600080fd5b505af1158015611399573d6000803e3d6000fd5b505050506000600560019054906101000a900473ffffffffffffffffffffffffffffffffffffffff1673ffffffffffffffffffffffffffffffffffffffff1663c23f85d6836040518263ffffffff1660e01b81526004016113fa91906144cf565b606060405180830381865afa158015611417573d6000803e3d6000fd5b505050506040513d601f19601f8201168201806040525081019061143b9190614e9c565b925050506000600a600561144f9190614eef565b60ff16600560ff16836114629190614f2a565b1161147c57600560ff16826114779190614f2a565b61148e565b600a600561148a9190614eef565b60ff165b90506114af83600060ff168360405180602001604052806000815250611084565b505050565b6000801b81565b6114cd6114c6611c41565b8383612326565b5050565b606080600360ff16341461151a576040517f08c379a000000000000000000000000000000000000000000000000000000000815260040161151190614fd0565b60405180910390fd5b6000600760009054906101000a900473ffffffffffffffffffffffffffffffffffffffff1673ffffffffffffffffffffffffffffffffffffffff163460405161156290615021565b60006040518083038185875af1925050503d806000811461159f576040519150601f19603f3d011682016040523d82523d6000602084013e6115a4565b606091505b50509050806115e8576040517f08c379a00000000000000000000000000000000000000000000000000000000081526004016115df90615082565b60405180910390fd5b600080600660009054906101000a900473ffffffffffffffffffffffffffffffffffffffff1673ffffffffffffffffffffffffffffffffffffffff16636972e45860036040518263ffffffff1660e01b815260040161164791906150b1565b6000604051808303816000875af1158015611666573d6000803e3d6000fd5b505050506040513d6000823e3d601f19601f8201168201806040525081019061168f9190615252565b915091506000600360ff1667ffffffffffffffff8111156116b3576116b2613c64565b5b6040519080825280602002602001820160405280156116e15781602001602082028036833780820191505090505b50905060005b600360ff168160ff16101561172d576001828260ff168151811061170e5761170d6149d7565b5b602002602001018181525050808061172590614a06565b9150506116e7565b50611749878483604051806020016040528060008152506108f8565b600560019054906101000a900473ffffffffffffffffffffffffffffffffffffffff1673ffffffffffffffffffffffffffffffffffffffff1663189b18c18860036040518363ffffffff1660e01b81526004016117a79291906152ca565b600060405180830381600087803b1580156117c157600080fd5b505af11580156117d5573d6000803e3d6000fd5b5050505082829550955050505050915091565b60006118056001600084815260200190815260200160002061299a565b9050919050565b7f9f2df0fed2c77648de5860a4cc508cd0818c85b8b8a1ab4ceeef8d981c8956a681565b6118398261097a565b61184a81611845611c41565b611e68565b6118548383612250565b505050565b7f65d7a28e3265b37a6474929f336521b332c1681b933f6cb9f3376673440d862a81565b6000600360008473ffffffffffffffffffffffffffffffffffffffff1673ffffffffffffffffffffffffffffffffffffffff16815260200190815260200160002060008373ffffffffffffffffffffffffffffffffffffffff1673ffffffffffffffffffffffffffffffffffffffff16815260200190815260200160002060009054906101000a900460ff16905092915050565b611919611c41565b73ffffffffffffffffffffffffffffffffffffffff168573ffffffffffffffffffffffffffffffffffffffff16148061195f575061195e85611959611c41565b61187d565b5b61199e576040517f08c379a000000000000000000000000000000000000000000000000000000000815260040161199590614cea565b60405180910390fd5b6119ab85858585856129af565b5050505050565b6119ba611c41565b73ffffffffffffffffffffffffffffffffffffffff168373ffffffffffffffffffffffffffffffffffffffff161480611a0057506119ff836119fa611c41565b61187d565b5b611a3f576040517f08c379a0000000000000000000000000000000000000000000000000000000008152600401611a3690614cea565b60405180910390fd5b611a4a838383612c34565b505050565b611a5982826111af565b611b2b57600160008084815260200190815260200160002060000160008373ffffffffffffffffffffffffffffffffffffffff1673ffffffffffffffffffffffffffffffffffffffff16815260200190815260200160002060006101000a81548160ff021916908315150217905550611ad0611c41565b73ffffffffffffffffffffffffffffffffffffffff168173ffffffffffffffffffffffffffffffffffffffff16837f2f8788117e7eff1d82e926ec794901d17c78024a50270940304540a733656f0d60405160405180910390a45b5050565b6000611b57836000018373ffffffffffffffffffffffffffffffffffffffff1660001b612e53565b905092915050565b60007fd9b67a26000000000000000000000000000000000000000000000000000000007bffffffffffffffffffffffffffffffffffffffffffffffffffffffff1916827bffffffffffffffffffffffffffffffffffffffffffffffffffffffff19161480611c2a57507f0e89341c000000000000000000000000000000000000000000000000000000007bffffffffffffffffffffffffffffffffffffffffffffffffffffffff1916827bffffffffffffffffffffffffffffffffffffffffffffffffffffffff1916145b80611c3a5750611c3982612ec3565b5b9050919050565b600033905090565b600073ffffffffffffffffffffffffffffffffffffffff168473ffffffffffffffffffffffffffffffffffffffff161415611cb9576040517f08c379a0000000000000000000000000000000000000000000000000000000008152600401611cb090615365565b60405180910390fd5b8151835114611cfd576040517f08c379a0000000000000000000000000000000000000000000000000000000008152600401611cf4906153f7565b60405180910390fd5b6000611d07611c41565b9050611d1881600087878787612f3d565b60005b8451811015611dd257838181518110611d3757611d366149d7565b5b602002602001015160026000878481518110611d5657611d556149d7565b5b6020026020010151815260200190815260200160002060008873ffffffffffffffffffffffffffffffffffffffff1673ffffffffffffffffffffffffffffffffffffffff1681526020019081526020016000206000828254611db89190614938565b925050819055508080611dca9061498e565b915050611d1b565b508473ffffffffffffffffffffffffffffffffffffffff16600073ffffffffffffffffffffffffffffffffffffffff168273ffffffffffffffffffffffffffffffffffffffff167f4a39dc06d4c0dbc64b70af90fd698a233a518aa5d07e595d983b8c0526c8f7fb8787604051611e4a92919061408f565b60405180910390a4611e6181600087878787612f53565b5050505050565b611e7282826111af565b611f0157611e978173ffffffffffffffffffffffffffffffffffffffff16601461312b565b611ea58360001c602061312b565b604051602001611eb69291906154eb565b6040516020818303038152906040526040517f08c379a0000000000000000000000000000000000000000000000000000000008152600401611ef89190613c3d565b60405180910390fd5b5050565b611f0f8282611a4f565b611f348160016000858152602001908152602001600020611b2f90919063ffffffff16565b505050565b8151835114611f7d576040517f08c379a0000000000000000000000000000000000000000000000000000000008152600401611f74906153f7565b60405180910390fd5b600073ffffffffffffffffffffffffffffffffffffffff168473ffffffffffffffffffffffffffffffffffffffff161415611fed576040517f08c379a0000000000000000000000000000000000000000000000000000000008152600401611fe490615597565b60405180910390fd5b6000611ff7611c41565b9050612007818787878787612f3d565b60005b84518110156121bb576000858281518110612028576120276149d7565b5b602002602001015190506000858381518110612047576120466149d7565b5b6020026020010151905060006002600084815260200190815260200160002060008b73ffffffffffffffffffffffffffffffffffffffff1673ffffffffffffffffffffffffffffffffffffffff168152602001908152602001600020549050818110156120e9576040517f08c379a00000000000000000000000000000000000000000000000000000000081526004016120e090615629565b60405180910390fd5b8181036002600085815260200190815260200160002060008c73ffffffffffffffffffffffffffffffffffffffff1673ffffffffffffffffffffffffffffffffffffffff16815260200190815260200160002081905550816002600085815260200190815260200160002060008b73ffffffffffffffffffffffffffffffffffffffff1673ffffffffffffffffffffffffffffffffffffffff16815260200190815260200160002060008282546121a09190614938565b92505081905550505050806121b49061498e565b905061200a565b508473ffffffffffffffffffffffffffffffffffffffff168673ffffffffffffffffffffffffffffffffffffffff168273ffffffffffffffffffffffffffffffffffffffff167f4a39dc06d4c0dbc64b70af90fd698a233a518aa5d07e595d983b8c0526c8f7fb878760405161223292919061408f565b60405180910390a4612248818787878787612f53565b505050505050565b61225a8282613367565b61227f816001600085815260200190815260200160002061344890919063ffffffff16565b505050565b61228c610faa565b6122cb576040517f08c379a00000000000000000000000000000000000000000000000000000000081526004016122c290615695565b60405180910390fd5b6000600560006101000a81548160ff0219169083151502179055507f5db9ee0a495bf2e6ff9c91a7834c1ba4fdd244a5e8aa4e537bd38aeae4b073aa61230f611c41565b60405161231c91906144cf565b60405180910390a1565b8173ffffffffffffffffffffffffffffffffffffffff168373ffffffffffffffffffffffffffffffffffffffff161415612395576040517f08c379a000000000000000000000000000000000000000000000000000000000815260040161238c90615727565b60405180910390fd5b80600360008573ffffffffffffffffffffffffffffffffffffffff1673ffffffffffffffffffffffffffffffffffffffff16815260200190815260200160002060008473ffffffffffffffffffffffffffffffffffffffff1673ffffffffffffffffffffffffffffffffffffffff16815260200190815260200160002060006101000a81548160ff0219169083151502179055508173ffffffffffffffffffffffffffffffffffffffff168373ffffffffffffffffffffffffffffffffffffffff167f17307eab39ab6107e8899845ad3d59bd9653f200f220920489ca2b5937696c31836040516124869190613b5c565b60405180910390a3505050565b600073ffffffffffffffffffffffffffffffffffffffff168373ffffffffffffffffffffffffffffffffffffffff161415612503576040517f08c379a00000000000000000000000000000000000000000000000000000000081526004016124fa906157b9565b60405180910390fd5b8051825114612547576040517f08c379a000000000000000000000000000000000000000000000000000000000815260040161253e906153f7565b60405180910390fd5b6000612551611c41565b905061257181856000868660405180602001604052806000815250612f3d565b60005b83518110156126c0576000848281518110612592576125916149d7565b5b6020026020010151905060008483815181106125b1576125b06149d7565b5b6020026020010151905060006002600084815260200190815260200160002060008973ffffffffffffffffffffffffffffffffffffffff1673ffffffffffffffffffffffffffffffffffffffff16815260200190815260200160002054905081811015612653576040517f08c379a000000000000000000000000000000000000000000000000000000000815260040161264a9061584b565b60405180910390fd5b8181036002600085815260200190815260200160002060008a73ffffffffffffffffffffffffffffffffffffffff1673ffffffffffffffffffffffffffffffffffffffff1681526020019081526020016000208190555050505080806126b89061498e565b915050612574565b50600073ffffffffffffffffffffffffffffffffffffffff168473ffffffffffffffffffffffffffffffffffffffff168273ffffffffffffffffffffffffffffffffffffffff167f4a39dc06d4c0dbc64b70af90fd698a233a518aa5d07e595d983b8c0526c8f7fb868660405161273892919061408f565b60405180910390a450505050565b600073ffffffffffffffffffffffffffffffffffffffff168473ffffffffffffffffffffffffffffffffffffffff1614156127b6576040517f08c379a00000000000000000000000000000000000000000000000000000000081526004016127ad90615365565b60405180910390fd5b60006127c0611c41565b90506127e1816000876127d288613478565b6127db88613478565b87612f3d565b826002600086815260200190815260200160002060008773ffffffffffffffffffffffffffffffffffffffff1673ffffffffffffffffffffffffffffffffffffffff16815260200190815260200160002060008282546128419190614938565b925050819055508473ffffffffffffffffffffffffffffffffffffffff16600073ffffffffffffffffffffffffffffffffffffffff168273ffffffffffffffffffffffffffffffffffffffff167fc3d58168c5ae7397731d063d5bbf3d657854427343f4c083240f7aacaa2d0f6287876040516128bf92919061586b565b60405180910390a46128d6816000878787876134f2565b5050505050565b6128e5610faa565b15612925576040517f08c379a000000000000000000000000000000000000000000000000000000000815260040161291c906158e0565b60405180910390fd5b6001600560006101000a81548160ff0219169083151502179055507f62e78cea01bee320cd4e420270b5ea74000d11b0c9f74754ebdbfc544b05a258612969611c41565b60405161297691906144cf565b60405180910390a1565b600061298f83600001836136ca565b60001c905092915050565b60006129a8826000016136f5565b9050919050565b600073ffffffffffffffffffffffffffffffffffffffff168473ffffffffffffffffffffffffffffffffffffffff161415612a1f576040517f08c379a0000000000000000000000000000000000000000000000000000000008152600401612a1690615597565b60405180910390fd5b6000612a29611c41565b9050612a49818787612a3a88613478565b612a4388613478565b87612f3d565b60006002600086815260200190815260200160002060008873ffffffffffffffffffffffffffffffffffffffff1673ffffffffffffffffffffffffffffffffffffffff16815260200190815260200160002054905083811015612ae1576040517f08c379a0000000000000000000000000000000000000000000000000000000008152600401612ad890615629565b60405180910390fd5b8381036002600087815260200190815260200160002060008973ffffffffffffffffffffffffffffffffffffffff1673ffffffffffffffffffffffffffffffffffffffff16815260200190815260200160002081905550836002600087815260200190815260200160002060008873ffffffffffffffffffffffffffffffffffffffff1673ffffffffffffffffffffffffffffffffffffffff1681526020019081526020016000206000828254612b989190614938565b925050819055508573ffffffffffffffffffffffffffffffffffffffff168773ffffffffffffffffffffffffffffffffffffffff168373ffffffffffffffffffffffffffffffffffffffff167fc3d58168c5ae7397731d063d5bbf3d657854427343f4c083240f7aacaa2d0f628888604051612c1592919061586b565b60405180910390a4612c2b8288888888886134f2565b50505050505050565b600073ffffffffffffffffffffffffffffffffffffffff168373ffffffffffffffffffffffffffffffffffffffff161415612ca4576040517f08c379a0000000000000000000000000000000000000000000000000000000008152600401612c9b906157b9565b60405180910390fd5b6000612cae611c41565b9050612cde81856000612cc087613478565b612cc987613478565b60405180602001604052806000815250612f3d565b60006002600085815260200190815260200160002060008673ffffffffffffffffffffffffffffffffffffffff1673ffffffffffffffffffffffffffffffffffffffff16815260200190815260200160002054905082811015612d76576040517f08c379a0000000000000000000000000000000000000000000000000000000008152600401612d6d9061584b565b60405180910390fd5b8281036002600086815260200190815260200160002060008773ffffffffffffffffffffffffffffffffffffffff1673ffffffffffffffffffffffffffffffffffffffff16815260200190815260200160002081905550600073ffffffffffffffffffffffffffffffffffffffff168573ffffffffffffffffffffffffffffffffffffffff168373ffffffffffffffffffffffffffffffffffffffff167fc3d58168c5ae7397731d063d5bbf3d657854427343f4c083240f7aacaa2d0f628787604051612e4492919061586b565b60405180910390a45050505050565b6000612e5f8383613706565b612eb8578260000182908060018154018082558091505060019003906000526020600020016000909190919091505582600001805490508360010160008481526020019081526020016000208190555060019050612ebd565b600090505b92915050565b60007f5a05180f000000000000000000000000000000000000000000000000000000007bffffffffffffffffffffffffffffffffffffffffffffffffffffffff1916827bffffffffffffffffffffffffffffffffffffffffffffffffffffffff19161480612f365750612f3582613729565b5b9050919050565b612f4b8686868686866137a3565b505050505050565b612f728473ffffffffffffffffffffffffffffffffffffffff16613801565b15613123578373ffffffffffffffffffffffffffffffffffffffff1663bc197c8187878686866040518663ffffffff1660e01b8152600401612fb8959493929190615955565b6020604051808303816000875af1925050508015612ff457506040513d601f19601f82011682018060405250810190612ff191906159d2565b60015b61309a57613000615a0c565b806308c379a0141561305d5750613015615a2e565b80613020575061305f565b806040517f08c379a00000000000000000000000000000000000000000000000000000000081526004016130549190613c3d565b60405180910390fd5b505b6040517f08c379a000000000000000000000000000000000000000000000000000000000815260040161309190615b36565b60405180910390fd5b63bc197c8160e01b7bffffffffffffffffffffffffffffffffffffffffffffffffffffffff1916817bffffffffffffffffffffffffffffffffffffffffffffffffffffffff191614613121576040517f08c379a000000000000000000000000000000000000000000000000000000000815260040161311890615bc8565b60405180910390fd5b505b505050505050565b60606000600283600261313e9190614f2a565b6131489190614938565b67ffffffffffffffff81111561316157613160613c64565b5b6040519080825280601f01601f1916602001820160405280156131935781602001600182028036833780820191505090505b5090507f3000000000000000000000000000000000000000000000000000000000000000816000815181106131cb576131ca6149d7565b5b60200101907effffffffffffffffffffffffffffffffffffffffffffffffffffffffffffff1916908160001a9053507f78000000000000000000000000000000000000000000000000000000000000008160018151811061322f5761322e6149d7565b5b60200101907effffffffffffffffffffffffffffffffffffffffffffffffffffffffffffff1916908160001a9053506000600184600261326f9190614f2a565b6132799190614938565b90505b6001811115613319577f3031323334353637383961626364656600000000000000000000000000000000600f8616601081106132bb576132ba6149d7565b5b1a60f81b8282815181106132d2576132d16149d7565b5b60200101907effffffffffffffffffffffffffffffffffffffffffffffffffffffffffffff1916908160001a905350600485901c94508061331290615be8565b905061327c565b506000841461335d576040517f08c379a000000000000000000000000000000000000000000000000000000000815260040161335490615c5e565b60405180910390fd5b8091505092915050565b61337182826111af565b1561344457600080600084815260200190815260200160002060000160008373ffffffffffffffffffffffffffffffffffffffff1673ffffffffffffffffffffffffffffffffffffffff16815260200190815260200160002060006101000a81548160ff0219169083151502179055506133e9611c41565b73ffffffffffffffffffffffffffffffffffffffff168173ffffffffffffffffffffffffffffffffffffffff16837ff6391f5c32d9c69d2a47ea670b442974b53935d1edc7fd64eb21e047a839171b60405160405180910390a45b5050565b6000613470836000018373ffffffffffffffffffffffffffffffffffffffff1660001b613824565b905092915050565b60606000600167ffffffffffffffff81111561349757613496613c64565b5b6040519080825280602002602001820160405280156134c55781602001602082028036833780820191505090505b50905082816000815181106134dd576134dc6149d7565b5b60200260200101818152505080915050919050565b6135118473ffffffffffffffffffffffffffffffffffffffff16613801565b156136c2578373ffffffffffffffffffffffffffffffffffffffff1663f23a6e6187878686866040518663ffffffff1660e01b8152600401613557959493929190615c7e565b6020604051808303816000875af192505050801561359357506040513d601f19601f8201168201806040525081019061359091906159d2565b60015b6136395761359f615a0c565b806308c379a014156135fc57506135b4615a2e565b806135bf57506135fe565b806040517f08c379a00000000000000000000000000000000000000000000000000000000081526004016135f39190613c3d565b60405180910390fd5b505b6040517f08c379a000000000000000000000000000000000000000000000000000000000815260040161363090615b36565b60405180910390fd5b63f23a6e6160e01b7bffffffffffffffffffffffffffffffffffffffffffffffffffffffff1916817bffffffffffffffffffffffffffffffffffffffffffffffffffffffff1916146136c0576040517f08c379a00000000000000000000000000000000000000000000000000000000081526004016136b790615bc8565b60405180910390fd5b505b505050505050565b60008260000182815481106136e2576136e16149d7565b5b9060005260206000200154905092915050565b600081600001805490509050919050565b600080836001016000848152602001908152602001600020541415905092915050565b60007f7965db0b000000000000000000000000000000000000000000000000000000007bffffffffffffffffffffffffffffffffffffffffffffffffffffffff1916827bffffffffffffffffffffffffffffffffffffffffffffffffffffffff1916148061379c575061379b82613938565b5b9050919050565b6137b18686868686866139a2565b6137b9610faa565b156137f9576040517f08c379a00000000000000000000000000000000000000000000000000000000081526004016137f090615d4a565b60405180910390fd5b505050505050565b6000808273ffffffffffffffffffffffffffffffffffffffff163b119050919050565b6000808360010160008481526020019081526020016000205490506000811461392c5760006001826138569190614dfc565b905060006001866000018054905061386e9190614dfc565b90508181146138dd57600086600001828154811061388f5761388e6149d7565b5b90600052602060002001549050808760000184815481106138b3576138b26149d7565b5b90600052602060002001819055508387600101600083815260200190815260200160002081905550505b856000018054806138f1576138f0615d6a565b5b600190038181906000526020600020016000905590558560010160008681526020019081526020016000206000905560019350505050613932565b60009150505b92915050565b60007f01ffc9a7000000000000000000000000000000000000000000000000000000007bffffffffffffffffffffffffffffffffffffffffffffffffffffffff1916827bffffffffffffffffffffffffffffffffffffffffffffffffffffffff1916149050919050565b505050505050565b6000604051905090565b600080fd5b600080fd5b600073ffffffffffffffffffffffffffffffffffffffff82169050919050565b60006139e9826139be565b9050919050565b6139f9816139de565b8114613a0457600080fd5b50565b600081359050613a16816139f0565b92915050565b6000819050919050565b613a2f81613a1c565b8114613a3a57600080fd5b50565b600081359050613a4c81613a26565b92915050565b60008060408385031215613a6957613a686139b4565b5b6000613a7785828601613a07565b9250506020613a8885828601613a3d565b9150509250929050565b613a9b81613a1c565b82525050565b6000602082019050613ab66000830184613a92565b92915050565b60007fffffffff0000000000000000000000000000000000000000000000000000000082169050919050565b613af181613abc565b8114613afc57600080fd5b50565b600081359050613b0e81613ae8565b92915050565b600060208284031215613b2a57613b296139b4565b5b6000613b3884828501613aff565b91505092915050565b60008115159050919050565b613b5681613b41565b82525050565b6000602082019050613b716000830184613b4d565b92915050565b600060208284031215613b8d57613b8c6139b4565b5b6000613b9b84828501613a3d565b91505092915050565b600081519050919050565b600082825260208201905092915050565b60005b83811015613bde578082015181840152602081019050613bc3565b83811115613bed576000848401525b50505050565b6000601f19601f8301169050919050565b6000613c0f82613ba4565b613c198185613baf565b9350613c29818560208601613bc0565b613c3281613bf3565b840191505092915050565b60006020820190508181036000830152613c578184613c04565b905092915050565b600080fd5b7f4e487b7100000000000000000000000000000000000000000000000000000000600052604160045260246000fd5b613c9c82613bf3565b810181811067ffffffffffffffff82111715613cbb57613cba613c64565b5b80604052505050565b6000613cce6139aa565b9050613cda8282613c93565b919050565b600067ffffffffffffffff821115613cfa57613cf9613c64565b5b602082029050602081019050919050565b600080fd5b6000613d23613d1e84613cdf565b613cc4565b90508083825260208201905060208402830185811115613d4657613d45613d0b565b5b835b81811015613d6f5780613d5b8882613a3d565b845260208401935050602081019050613d48565b5050509392505050565b600082601f830112613d8e57613d8d613c5f565b5b8135613d9e848260208601613d10565b91505092915050565b600080fd5b600067ffffffffffffffff821115613dc757613dc6613c64565b5b613dd082613bf3565b9050602081019050919050565b82818337600083830152505050565b6000613dff613dfa84613dac565b613cc4565b905082815260208101848484011115613e1b57613e1a613da7565b5b613e26848285613ddd565b509392505050565b600082601f830112613e4357613e42613c5f565b5b8135613e53848260208601613dec565b91505092915050565b60008060008060808587031215613e7657613e756139b4565b5b6000613e8487828801613a07565b945050602085013567ffffffffffffffff811115613ea557613ea46139b9565b5b613eb187828801613d79565b935050604085013567ffffffffffffffff811115613ed257613ed16139b9565b5b613ede87828801613d79565b925050606085013567ffffffffffffffff811115613eff57613efe6139b9565b5b613f0b87828801613e2e565b91505092959194509250565b6000819050919050565b613f2a81613f17565b8114613f3557600080fd5b50565b600081359050613f4781613f21565b92915050565b600060208284031215613f6357613f626139b4565b5b6000613f7184828501613f38565b91505092915050565b613f8381613f17565b82525050565b6000602082019050613f9e6000830184613f7a565b92915050565b600060208284031215613fba57613fb96139b4565b5b6000613fc884828501613a07565b91505092915050565b600081519050919050565b600082825260208201905092915050565b6000819050602082019050919050565b61400681613a1c565b82525050565b60006140188383613ffd565b60208301905092915050565b6000602082019050919050565b600061403c82613fd1565b6140468185613fdc565b935061405183613fed565b8060005b83811015614082578151614069888261400c565b975061407483614024565b925050600181019050614055565b5085935050505092915050565b600060408201905081810360008301526140a98185614031565b905081810360208301526140bd8184614031565b90509392505050565b600080600080600060a086880312156140e2576140e16139b4565b5b60006140f088828901613a07565b955050602061410188828901613a07565b945050604086013567ffffffffffffffff811115614122576141216139b9565b5b61412e88828901613d79565b935050606086013567ffffffffffffffff81111561414f5761414e6139b9565b5b61415b88828901613d79565b925050608086013567ffffffffffffffff81111561417c5761417b6139b9565b5b61418888828901613e2e565b9150509295509295909350565b600080604083850312156141ac576141ab6139b4565b5b60006141ba85828601613f38565b92505060206141cb85828601613a07565b9150509250929050565b600067ffffffffffffffff8211156141f0576141ef613c64565b5b602082029050602081019050919050565b600061421461420f846141d5565b613cc4565b9050808382526020820190506020840283018581111561423757614236613d0b565b5b835b81811015614260578061424c8882613a07565b845260208401935050602081019050614239565b5050509392505050565b600082601f83011261427f5761427e613c5f565b5b813561428f848260208601614201565b91505092915050565b600080604083850312156142af576142ae6139b4565b5b600083013567ffffffffffffffff8111156142cd576142cc6139b9565b5b6142d98582860161426a565b925050602083013567ffffffffffffffff8111156142fa576142f96139b9565b5b61430685828601613d79565b9150509250929050565b6000602082019050818103600083015261432a8184614031565b905092915050565b60008060408385031215614349576143486139b4565b5b600061435785828601613a07565b925050602061436885828601613a07565b9150509250929050565b60008060006060848603121561438b5761438a6139b4565b5b600061439986828701613a07565b935050602084013567ffffffffffffffff8111156143ba576143b96139b9565b5b6143c686828701613d79565b925050604084013567ffffffffffffffff8111156143e7576143e66139b9565b5b6143f386828701613d79565b9150509250925092565b60008060008060808587031215614417576144166139b4565b5b600061442587828801613a07565b945050602061443687828801613a3d565b935050604061444787828801613a3d565b925050606085013567ffffffffffffffff811115614468576144676139b9565b5b61447487828801613e2e565b91505092959194509250565b60008060408385031215614497576144966139b4565b5b60006144a585828601613f38565b92505060206144b685828601613a3d565b9150509250929050565b6144c9816139de565b82525050565b60006020820190506144e460008301846144c0565b92915050565b6144f381613b41565b81146144fe57600080fd5b50565b600081359050614510816144ea565b92915050565b6000806040838503121561452d5761452c6139b4565b5b600061453b85828601613a07565b925050602061454c85828601614501565b9150509250929050565b600081519050919050565b600082825260208201905092915050565b6000819050602082019050919050565b600060ff82169050919050565b61459881614582565b82525050565b60006145aa838361458f565b60208301905092915050565b6000602082019050919050565b60006145ce82614556565b6145d88185614561565b93506145e383614572565b8060005b838110156146145781516145fb888261459e565b9750614606836145b6565b9250506001810190506145e7565b5085935050505092915050565b6000604082019050818103600083015261463b8185614031565b9050818103602083015261464f81846145c3565b90509392505050565b600080600080600060a08688031215614674576146736139b4565b5b600061468288828901613a07565b955050602061469388828901613a07565b94505060406146a488828901613a3d565b93505060606146b588828901613a3d565b925050608086013567ffffffffffffffff8111156146d6576146d56139b9565b5b6146e288828901613e2e565b9150509295509295909350565b600080600060608486031215614708576147076139b4565b5b600061471686828701613a07565b935050602061472786828701613a3d565b925050604061473886828701613a3d565b9150509250925092565b7f455243313135353a2062616c616e636520717565727920666f7220746865207a60008201527f65726f2061646472657373000000000000000000000000000000000000000000602082015250565b600061479e602b83613baf565b91506147a982614742565b604082019050919050565b600060208201905081810360008301526147cd81614791565b9050919050565b7f4e487b7100000000000000000000000000000000000000000000000000000000600052602260045260246000fd5b6000600282049050600182168061481b57607f821691505b6020821081141561482f5761482e6147d4565b5b50919050565b7f455243313135355072657365744d696e7465725061757365723a206d7573742060008201527f68617665206d696e74657220726f6c6520746f206d696e740000000000000000602082015250565b6000614891603883613baf565b915061489c82614835565b604082019050919050565b600060208201905081810360008301526148c081614884565b9050919050565b6000815190506148d681613a26565b92915050565b6000602082840312156148f2576148f16139b4565b5b6000614900848285016148c7565b91505092915050565b7f4e487b7100000000000000000000000000000000000000000000000000000000600052601160045260246000fd5b600061494382613a1c565b915061494e83613a1c565b9250827fffffffffffffffffffffffffffffffffffffffffffffffffffffffffffffffff0382111561498357614982614909565b5b828201905092915050565b600061499982613a1c565b91507fffffffffffffffffffffffffffffffffffffffffffffffffffffffffffffffff8214156149cc576149cb614909565b5b600182019050919050565b7f4e487b7100000000000000000000000000000000000000000000000000000000600052603260045260246000fd5b6000614a1182614582565b915060ff821415614a2557614a24614909565b5b600182019050919050565b7f455243313135353a207472616e736665722063616c6c6572206973206e6f742060008201527f6f776e6572206e6f7220617070726f7665640000000000000000000000000000602082015250565b6000614a8c603283613baf565b9150614a9782614a30565b604082019050919050565b60006020820190508181036000830152614abb81614a7f565b9050919050565b7f416363657373436f6e74726f6c3a2063616e206f6e6c792072656e6f756e636560008201527f20726f6c657320666f722073656c660000000000000000000000000000000000602082015250565b6000614b1e602f83613baf565b9150614b2982614ac2565b604082019050919050565b60006020820190508181036000830152614b4d81614b11565b9050919050565b7f455243313135355072657365744d696e7465725061757365723a206d7573742060008201527f686176652070617573657220726f6c6520746f20756e70617573650000000000602082015250565b6000614bb0603b83613baf565b9150614bbb82614b54565b604082019050919050565b60006020820190508181036000830152614bdf81614ba3565b9050919050565b7f455243313135353a206163636f756e747320616e6420696473206c656e67746860008201527f206d69736d617463680000000000000000000000000000000000000000000000602082015250565b6000614c42602983613baf565b9150614c4d82614be6565b604082019050919050565b60006020820190508181036000830152614c7181614c35565b9050919050565b7f455243313135353a2063616c6c6572206973206e6f74206f776e6572206e6f7260008201527f20617070726f7665640000000000000000000000000000000000000000000000602082015250565b6000614cd4602983613baf565b9150614cdf82614c78565b604082019050919050565b60006020820190508181036000830152614d0381614cc7565b9050919050565b7f455243313135355072657365744d696e7465725061757365723a206d7573742060008201527f686176652070617573657220726f6c6520746f20706175736500000000000000602082015250565b6000614d66603983613baf565b9150614d7182614d0a565b604082019050919050565b60006020820190508181036000830152614d9581614d59565b9050919050565b7f4e487b7100000000000000000000000000000000000000000000000000000000600052601260045260246000fd5b6000614dd682613a1c565b9150614de183613a1c565b925082614df157614df0614d9c565b5b828204905092915050565b6000614e0782613a1c565b9150614e1283613a1c565b925082821015614e2557614e24614909565b5b828203905092915050565b7f616c726561647920636865636b656420696e0000000000000000000000000000600082015250565b6000614e66601283613baf565b9150614e7182614e30565b602082019050919050565b60006020820190508181036000830152614e9581614e59565b9050919050565b600080600060608486031215614eb557614eb46139b4565b5b6000614ec3868287016148c7565b9350506020614ed4868287016148c7565b9250506040614ee5868287016148c7565b9150509250925092565b6000614efa82614582565b9150614f0583614582565b92508160ff0483118215151615614f1f57614f1e614909565b5b828202905092915050565b6000614f3582613a1c565b9150614f4083613a1c565b9250817fffffffffffffffffffffffffffffffffffffffffffffffffffffffffffffffff0483118215151615614f7957614f78614909565b5b828202905092915050565b7f696e636f72726563742070617920616d6f756e74000000000000000000000000600082015250565b6000614fba601483613baf565b9150614fc582614f84565b602082019050919050565b60006020820190508181036000830152614fe981614fad565b9050919050565b600081905092915050565b50565b600061500b600083614ff0565b915061501682614ffb565b600082019050919050565b600061502c82614ffe565b9150819050919050565b7f7061796d656e74206661696c6564000000000000000000000000000000000000600082015250565b600061506c600e83613baf565b915061507782615036565b602082019050919050565b6000602082019050818103600083015261509b8161505f565b9050919050565b6150ab81614582565b82525050565b60006020820190506150c660008301846150a2565b92915050565b60006150df6150da84613cdf565b613cc4565b9050808382526020820190506020840283018581111561510257615101613d0b565b5b835b8181101561512b578061511788826148c7565b845260208401935050602081019050615104565b5050509392505050565b600082601f83011261514a57615149613c5f565b5b815161515a8482602086016150cc565b91505092915050565b600067ffffffffffffffff82111561517e5761517d613c64565b5b602082029050602081019050919050565b61519881614582565b81146151a357600080fd5b50565b6000815190506151b58161518f565b92915050565b60006151ce6151c984615163565b613cc4565b905080838252602082019050602084028301858111156151f1576151f0613d0b565b5b835b8181101561521a578061520688826151a6565b8452602084019350506020810190506151f3565b5050509392505050565b600082601f83011261523957615238613c5f565b5b81516152498482602086016151bb565b91505092915050565b60008060408385031215615269576152686139b4565b5b600083015167ffffffffffffffff811115615287576152866139b9565b5b61529385828601615135565b925050602083015167ffffffffffffffff8111156152b4576152b36139b9565b5b6152c085828601615224565b9150509250929050565b60006040820190506152df60008301856144c0565b6152ec60208301846150a2565b9392505050565b7f455243313135353a206d696e7420746f20746865207a65726f2061646472657360008201527f7300000000000000000000000000000000000000000000000000000000000000602082015250565b600061534f602183613baf565b915061535a826152f3565b604082019050919050565b6000602082019050818103600083015261537e81615342565b9050919050565b7f455243313135353a2069647320616e6420616d6f756e7473206c656e6774682060008201527f6d69736d61746368000000000000000000000000000000000000000000000000602082015250565b60006153e1602883613baf565b91506153ec82615385565b604082019050919050565b60006020820190508181036000830152615410816153d4565b9050919050565b600081905092915050565b7f416363657373436f6e74726f6c3a206163636f756e7420000000000000000000600082015250565b6000615458601783615417565b915061546382615422565b601782019050919050565b600061547982613ba4565b6154838185615417565b9350615493818560208601613bc0565b80840191505092915050565b7f206973206d697373696e6720726f6c6520000000000000000000000000000000600082015250565b60006154d5601183615417565b91506154e08261549f565b601182019050919050565b60006154f68261544b565b9150615502828561546e565b915061550d826154c8565b9150615519828461546e565b91508190509392505050565b7f455243313135353a207472616e7366657220746f20746865207a65726f20616460008201527f6472657373000000000000000000000000000000000000000000000000000000602082015250565b6000615581602583613baf565b915061558c82615525565b604082019050919050565b600060208201905081810360008301526155b081615574565b9050919050565b7f455243313135353a20696e73756666696369656e742062616c616e636520666f60008201527f72207472616e7366657200000000000000000000000000000000000000000000602082015250565b6000615613602a83613baf565b915061561e826155b7565b604082019050919050565b6000602082019050818103600083015261564281615606565b9050919050565b7f5061757361626c653a206e6f7420706175736564000000000000000000000000600082015250565b600061567f601483613baf565b915061568a82615649565b602082019050919050565b600060208201905081810360008301526156ae81615672565b9050919050565b7f455243313135353a2073657474696e6720617070726f76616c2073746174757360008201527f20666f722073656c660000000000000000000000000000000000000000000000602082015250565b6000615711602983613baf565b915061571c826156b5565b604082019050919050565b6000602082019050818103600083015261574081615704565b9050919050565b7f455243313135353a206275726e2066726f6d20746865207a65726f206164647260008201527f6573730000000000000000000000000000000000000000000000000000000000602082015250565b60006157a3602383613baf565b91506157ae82615747565b604082019050919050565b600060208201905081810360008301526157d281615796565b9050919050565b7f455243313135353a206275726e20616d6f756e7420657863656564732062616c60008201527f616e636500000000000000000000000000000000000000000000000000000000602082015250565b6000615835602483613baf565b9150615840826157d9565b604082019050919050565b6000602082019050818103600083015261586481615828565b9050919050565b60006040820190506158806000830185613a92565b61588d6020830184613a92565b9392505050565b7f5061757361626c653a2070617573656400000000000000000000000000000000600082015250565b60006158ca601083613baf565b91506158d582615894565b602082019050919050565b600060208201905081810360008301526158f9816158bd565b9050919050565b600081519050919050565b600082825260208201905092915050565b600061592782615900565b615931818561590b565b9350615941818560208601613bc0565b61594a81613bf3565b840191505092915050565b600060a08201905061596a60008301886144c0565b61597760208301876144c0565b81810360408301526159898186614031565b9050818103606083015261599d8185614031565b905081810360808301526159b1818461591c565b90509695505050505050565b6000815190506159cc81613ae8565b92915050565b6000602082840312156159e8576159e76139b4565b5b60006159f6848285016159bd565b91505092915050565b60008160e01c9050919050565b600060033d1115615a2b5760046000803e615a286000516159ff565b90505b90565b600060443d1015615a3e57615ac1565b615a466139aa565b60043d036004823e80513d602482011167ffffffffffffffff82111715615a6e575050615ac1565b808201805167ffffffffffffffff811115615a8c5750505050615ac1565b80602083010160043d038501811115615aa9575050505050615ac1565b615ab882602001850186613c93565b82955050505050505b90565b7f455243313135353a207472616e7366657220746f206e6f6e204552433131353560008201527f526563656976657220696d706c656d656e746572000000000000000000000000602082015250565b6000615b20603483613baf565b9150615b2b82615ac4565b604082019050919050565b60006020820190508181036000830152615b4f81615b13565b9050919050565b7f455243313135353a204552433131353552656365697665722072656a6563746560008201527f6420746f6b656e73000000000000000000000000000000000000000000000000602082015250565b6000615bb2602883613baf565b9150615bbd82615b56565b604082019050919050565b60006020820190508181036000830152615be181615ba5565b9050919050565b6000615bf382613a1c565b91506000821415615c0757615c06614909565b5b600182039050919050565b7f537472696e67733a20686578206c656e67746820696e73756666696369656e74600082015250565b6000615c48602083613baf565b9150615c5382615c12565b602082019050919050565b60006020820190508181036000830152615c7781615c3b565b9050919050565b600060a082019050615c9360008301886144c0565b615ca060208301876144c0565b615cad6040830186613a92565b615cba6060830185613a92565b8181036080830152615ccc818461591c565b90509695505050505050565b7f455243313135355061757361626c653a20746f6b656e207472616e736665722060008201527f7768696c65207061757365640000000000000000000000000000000000000000602082015250565b6000615d34602c83613baf565b9150615d3f82615cd8565b604082019050919050565b60006020820190508181036000830152615d6381615d27565b9050919050565b7f4e487b7100000000000000000000000000000000000000000000000000000000600052603160045260246000fdfea2646970667358221220f582449390ee6aa1cd0d6e2d82aee5f9f257e5119210a109f0e39ba10eaefdaf64736f6c634300080c0033",
  "immutableReferences": {},
  "source": "// SPDX-License-Identifier: MIT\r\npragma solidity >=0.8.7;\r\n\r\nimport \"@openzeppelin/contracts/token/ERC1155/presets/ERC1155PresetMinterPauser.sol\";\r\nimport \"./Players.sol\";\r\nimport \"./Monsters.sol\";\r\nimport \"./GameConstants.sol\";\r\n\r\n\r\ncontract BTokens is ERC1155PresetMinterPauser {\r\n\r\n    Players private players;\r\n    Monsters private monsters;\r\n\r\n    address payable owner;\r\n\r\n    constructor(Players _players, Monsters _monsters) ERC1155PresetMinterPauser(\"ipfs-base-uri-goes-here\") {\r\n        players = _players;\r\n        monsters = _monsters;\r\n        owner = payable(_msgSender());\r\n    }\r\n\r\n    // emit an event when a pack is minted\r\n    function buyPack(address account) external payable returns (uint256[] memory, uint8[] memory) {\r\n        // Handle payment\r\n        require(msg.value == GameConstants.PACK_PRICE, \"incorrect pay amount\");\r\n        (bool success,) = owner.call{value: msg.value}(\"\");\r\n        require(success, \"payment failed\");\r\n\r\n        // Generate monsters, monsters contract handles increasing numMonsters and storing rarities\r\n        (uint256[] memory ids, uint8[] memory rarities) = monsters.getRandomMonster(GameConstants.PACK_SIZE);\r\n        uint256[] memory amounts = new uint256[](GameConstants.PACK_SIZE);\r\n        for (uint8 i; i < GameConstants.PACK_SIZE; i++) {\r\n            amounts[i] = 1;\r\n        }\r\n\r\n        // Mint tokens\r\n        mintBatch(account, ids, amounts, \"\");\r\n        players.increaseMonsters(account, GameConstants.PACK_SIZE);\r\n\r\n        return (ids, rarities);\r\n    }\r\n\r\n    function balanceOfPlayer(address account) public view returns (uint256[] memory, uint256[] memory) {\r\n        uint256 numTokens;\r\n        for (uint256 i; i < monsters.numMonsters() + 2; i++) {\r\n            if (balanceOf(account, i) > 0 || i < 2) {\r\n                numTokens++;\r\n            }\r\n        }\r\n\r\n        uint256[] memory ids = new uint256[](numTokens);\r\n        uint256[] memory amounts = new uint256[](numTokens);\r\n        uint8 counter;\r\n        for (uint256 i; i < monsters.numMonsters() + 2; i++) {\r\n            uint256 amount = balanceOf(account, i);\r\n            if (amount > 0 || i < 2) {\r\n                ids[counter] = i;\r\n                amounts[counter] = amount;\r\n                counter++;\r\n            }\r\n        }\r\n\r\n        return (ids, amounts);\r\n    }\r\n    \r\n    function generateDailyNRGY(address account) external {\r\n        require(block.timestamp - players.getCheckIn(account) / 1 days > 1, \"already checked in\");\r\n        // Set last check in timestamp to now\r\n        players.doCheckIn(account);\r\n        \r\n        // Transfer amount of energy based on number of monsters, capped at limit\r\n        ( , , uint256 numPlayerMonsters) = players.getStats(account);\r\n        uint256 dailyNRGY = numPlayerMonsters * GameConstants.MONSTER_NRGY_RATE > GameConstants.MAX_DAILY_NRGY \r\n                                ? GameConstants.MAX_DAILY_NRGY \r\n                                : numPlayerMonsters * GameConstants.MONSTER_NRGY_RATE;\r\n        mint(account, GameConstants.NRGY, dailyNRGY, \"\");\r\n    }\r\n\r\n    function setApprovalForPlayerTokens(address player, address operator) external onlyRole(DEFAULT_ADMIN_ROLE) {\r\n        _setApprovalForAll(player, operator, true);\r\n    }\r\n\r\n    function grantAdmin(address account) external onlyRole(DEFAULT_ADMIN_ROLE) {\r\n        _grantRole(DEFAULT_ADMIN_ROLE, account);\r\n    }\r\n\r\n    function grantMinter(address account) external onlyRole(DEFAULT_ADMIN_ROLE) {\r\n        _grantRole(MINTER_ROLE, account);\r\n    }\r\n    \r\n}",
  "sourcePath": "C:\\Users\\raa42\\Documents\\Banguins\\contracts\\BTokens.sol",
  "compiler": {
    "name": "solc",
    "version": "0.8.12+commit.f00d7308.Emscripten.clang"
  },
  "schemaVersion": "3.4.6",
  "updatedAt": "2022-03-13T03:25:01.259Z",
  "networkType": "ethereum",
  "devdoc": {
    "kind": "dev",
    "methods": {
      "balanceOf(address,uint256)": {
        "details": "See {IERC1155-balanceOf}. Requirements: - `account` cannot be the zero address."
      },
      "balanceOfBatch(address[],uint256[])": {
        "details": "See {IERC1155-balanceOfBatch}. Requirements: - `accounts` and `ids` must have the same length."
      },
      "getRoleAdmin(bytes32)": {
        "details": "Returns the admin role that controls `role`. See {grantRole} and {revokeRole}. To change a role's admin, use {_setRoleAdmin}."
      },
      "getRoleMember(bytes32,uint256)": {
        "details": "Returns one of the accounts that have `role`. `index` must be a value between 0 and {getRoleMemberCount}, non-inclusive. Role bearers are not sorted in any particular way, and their ordering may change at any point. WARNING: When using {getRoleMember} and {getRoleMemberCount}, make sure you perform all queries on the same block. See the following https://forum.openzeppelin.com/t/iterating-over-elements-on-enumerableset-in-openzeppelin-contracts/2296[forum post] for more information."
      },
      "getRoleMemberCount(bytes32)": {
        "details": "Returns the number of accounts that have `role`. Can be used together with {getRoleMember} to enumerate all bearers of a role."
      },
      "grantRole(bytes32,address)": {
        "details": "Grants `role` to `account`. If `account` had not been already granted `role`, emits a {RoleGranted} event. Requirements: - the caller must have ``role``'s admin role."
      },
      "hasRole(bytes32,address)": {
        "details": "Returns `true` if `account` has been granted `role`."
      },
      "isApprovedForAll(address,address)": {
        "details": "See {IERC1155-isApprovedForAll}."
      },
      "mint(address,uint256,uint256,bytes)": {
        "details": "Creates `amount` new tokens for `to`, of token type `id`. See {ERC1155-_mint}. Requirements: - the caller must have the `MINTER_ROLE`."
      },
      "mintBatch(address,uint256[],uint256[],bytes)": {
        "details": "xref:ROOT:erc1155.adoc#batch-operations[Batched] variant of {mint}."
      },
      "pause()": {
        "details": "Pauses all token transfers. See {ERC1155Pausable} and {Pausable-_pause}. Requirements: - the caller must have the `PAUSER_ROLE`."
      },
      "paused()": {
        "details": "Returns true if the contract is paused, and false otherwise."
      },
      "renounceRole(bytes32,address)": {
        "details": "Revokes `role` from the calling account. Roles are often managed via {grantRole} and {revokeRole}: this function's purpose is to provide a mechanism for accounts to lose their privileges if they are compromised (such as when a trusted device is misplaced). If the calling account had been revoked `role`, emits a {RoleRevoked} event. Requirements: - the caller must be `account`."
      },
      "revokeRole(bytes32,address)": {
        "details": "Revokes `role` from `account`. If `account` had been granted `role`, emits a {RoleRevoked} event. Requirements: - the caller must have ``role``'s admin role."
      },
      "safeBatchTransferFrom(address,address,uint256[],uint256[],bytes)": {
        "details": "See {IERC1155-safeBatchTransferFrom}."
      },
      "safeTransferFrom(address,address,uint256,uint256,bytes)": {
        "details": "See {IERC1155-safeTransferFrom}."
      },
      "setApprovalForAll(address,bool)": {
        "details": "See {IERC1155-setApprovalForAll}."
      },
      "supportsInterface(bytes4)": {
        "details": "See {IERC165-supportsInterface}."
      },
      "unpause()": {
        "details": "Unpauses all token transfers. See {ERC1155Pausable} and {Pausable-_unpause}. Requirements: - the caller must have the `PAUSER_ROLE`."
      },
      "uri(uint256)": {
        "details": "See {IERC1155MetadataURI-uri}. This implementation returns the same URI for *all* token types. It relies on the token type ID substitution mechanism https://eips.ethereum.org/EIPS/eip-1155#metadata[defined in the EIP]. Clients calling this function must replace the `\\{id\\}` substring with the actual token type ID."
      }
    },
    "version": 1
  },
  "userdoc": {
    "kind": "user",
    "methods": {},
    "version": 1
  }
}