{
  "contractName": "GameConstants",
  "abi": [
    {
      "inputs": [],
      "name": "CRNCY",
      "outputs": [
        {
          "internalType": "uint8",
          "name": "",
          "type": "uint8"
        }
      ],
      "stateMutability": "view",
      "type": "function",
      "constant": true
    },
    {
      "inputs": [],
      "name": "CRNCY_WIN_AMOUNT",
      "outputs": [
        {
          "internalType": "uint8",
          "name": "",
          "type": "uint8"
        }
      ],
      "stateMutability": "view",
      "type": "function",
      "constant": true
    },
    {
      "inputs": [],
      "name": "MAX_DAILY_NRGY",
      "outputs": [
        {
          "internalType": "uint8",
          "name": "",
          "type": "uint8"
        }
      ],
      "stateMutability": "view",
      "type": "function",
      "constant": true
    },
    {
      "inputs": [],
      "name": "MONSTER_NRGY_RATE",
      "outputs": [
        {
          "internalType": "uint8",
          "name": "",
          "type": "uint8"
        }
      ],
      "stateMutability": "view",
      "type": "function",
      "constant": true
    },
    {
      "inputs": [],
      "name": "NRGY",
      "outputs": [
        {
          "internalType": "uint8",
          "name": "",
          "type": "uint8"
        }
      ],
      "stateMutability": "view",
      "type": "function",
      "constant": true
    },
    {
      "inputs": [],
      "name": "PACK_PRICE",
      "outputs": [
        {
          "internalType": "uint8",
          "name": "",
          "type": "uint8"
        }
      ],
      "stateMutability": "view",
      "type": "function",
      "constant": true
    },
    {
      "inputs": [],
      "name": "PACK_SIZE",
      "outputs": [
        {
          "internalType": "uint8",
          "name": "",
          "type": "uint8"
        }
      ],
      "stateMutability": "view",
      "type": "function",
      "constant": true
    }
  ],
  "bytecode": "0x610264610053600b82828239805160001a607314610046577f4e487b7100000000000000000000000000000000000000000000000000000000600052600060045260246000fd5b30600052607381538281f3fe73000000000000000000000000000000000000000030146080604052600436106100875760003560e01c806363db43521161006557806363db4352146100e65780639ad3613714610104578063d5baa9a714610122578063eb5a13bf1461014057610087565b80630b049e251461008c5780633d0c9cc4146100aa5780635043dd88146100c8575b600080fd5b61009461015e565b6040516100a191906101a9565b60405180910390f35b6100b2610163565b6040516100bf91906101a9565b60405180910390f35b6100d0610168565b6040516100dd91906101a9565b60405180910390f35b6100ee61016d565b6040516100fb91906101a9565b60405180910390f35b61010c610172565b60405161011991906101a9565b60405180910390f35b61012a610177565b60405161013791906101a9565b60405180910390f35b61014861017c565b60405161015591906101a9565b60405180910390f35b600581565b600381565b600081565b606481565b600381565b600181565b600a600561018a91906101f3565b81565b600060ff82169050919050565b6101a38161018d565b82525050565b60006020820190506101be600083018461019a565b92915050565b7f4e487b7100000000000000000000000000000000000000000000000000000000600052601160045260246000fd5b60006101fe8261018d565b91506102098361018d565b92508160ff0483118215151615610223576102226101c4565b5b82820290509291505056fea264697066735822122006001270a261550f119eae568f60c7027ffb25fcd10d6b75a52254504f302ddd64736f6c634300080c0033",
  "immutableReferences": {},
  "source": "// SPDX-License-Identifier: MIT\r\npragma solidity >=0.8.7;\r\n\r\nlibrary GameConstants {\r\n    uint8 public constant NRGY = 0;\r\n    uint8 public constant CRNCY = 1;\r\n    uint8 public constant MONSTER_NRGY_RATE = 5;\r\n    uint8 public constant MAX_DAILY_NRGY = MONSTER_NRGY_RATE * 10;\r\n    uint8 public constant PACK_PRICE = 3;\r\n    uint8 public constant PACK_SIZE = 3;\r\n    uint8 public constant CRNCY_WIN_AMOUNT = 100;\r\n}",
  "sourcePath": "C:\\Users\\raa42\\Documents\\Banguins\\contracts\\GameConstants.sol",
  "compiler": {
    "name": "solc",
    "version": "0.8.12+commit.f00d7308.Emscripten.clang"
  },
  "schemaVersion": "3.4.6",
  "updatedAt": "2022-03-13T03:25:01.237Z",
  "networkType": "ethereum",
  "devdoc": {
    "kind": "dev",
    "methods": {},
    "version": 1
  },
  "userdoc": {
    "kind": "user",
    "methods": {},
    "version": 1
  }
}