{
  "contractName": "Marketplace",
  "abi": [
    {
      "inputs": [
        {
          "internalType": "contract BTokens",
          "name": "_token",
          "type": "address"
        },
        {
          "internalType": "contract Players",
          "name": "_player",
          "type": "address"
        }
      ],
      "stateMutability": "nonpayable",
      "type": "constructor"
    },
    {
      "anonymous": false,
      "inputs": [
        {
          "indexed": true,
          "internalType": "bytes32",
          "name": "role",
          "type": "bytes32"
        },
        {
          "indexed": true,
          "internalType": "bytes32",
          "name": "previousAdminRole",
          "type": "bytes32"
        },
        {
          "indexed": true,
          "internalType": "bytes32",
          "name": "newAdminRole",
          "type": "bytes32"
        }
      ],
      "name": "RoleAdminChanged",
      "type": "event"
    },
    {
      "anonymous": false,
      "inputs": [
        {
          "indexed": true,
          "internalType": "bytes32",
          "name": "role",
          "type": "bytes32"
        },
        {
          "indexed": true,
          "internalType": "address",
          "name": "account",
          "type": "address"
        },
        {
          "indexed": true,
          "internalType": "address",
          "name": "sender",
          "type": "address"
        }
      ],
      "name": "RoleGranted",
      "type": "event"
    },
    {
      "anonymous": false,
      "inputs": [
        {
          "indexed": true,
          "internalType": "bytes32",
          "name": "role",
          "type": "bytes32"
        },
        {
          "indexed": true,
          "internalType": "address",
          "name": "account",
          "type": "address"
        },
        {
          "indexed": true,
          "internalType": "address",
          "name": "sender",
          "type": "address"
        }
      ],
      "name": "RoleRevoked",
      "type": "event"
    },
    {
      "inputs": [],
      "name": "DEFAULT_ADMIN_ROLE",
      "outputs": [
        {
          "internalType": "bytes32",
          "name": "",
          "type": "bytes32"
        }
      ],
      "stateMutability": "view",
      "type": "function",
      "constant": true
    },
    {
      "inputs": [
        {
          "internalType": "bytes32",
          "name": "role",
          "type": "bytes32"
        }
      ],
      "name": "getRoleAdmin",
      "outputs": [
        {
          "internalType": "bytes32",
          "name": "",
          "type": "bytes32"
        }
      ],
      "stateMutability": "view",
      "type": "function",
      "constant": true
    },
    {
      "inputs": [
        {
          "internalType": "bytes32",
          "name": "role",
          "type": "bytes32"
        },
        {
          "internalType": "address",
          "name": "account",
          "type": "address"
        }
      ],
      "name": "grantRole",
      "outputs": [],
      "stateMutability": "nonpayable",
      "type": "function"
    },
    {
      "inputs": [
        {
          "internalType": "bytes32",
          "name": "role",
          "type": "bytes32"
        },
        {
          "internalType": "address",
          "name": "account",
          "type": "address"
        }
      ],
      "name": "hasRole",
      "outputs": [
        {
          "internalType": "bool",
          "name": "",
          "type": "bool"
        }
      ],
      "stateMutability": "view",
      "type": "function",
      "constant": true
    },
    {
      "inputs": [
        {
          "internalType": "bytes32",
          "name": "role",
          "type": "bytes32"
        },
        {
          "internalType": "address",
          "name": "account",
          "type": "address"
        }
      ],
      "name": "renounceRole",
      "outputs": [],
      "stateMutability": "nonpayable",
      "type": "function"
    },
    {
      "inputs": [
        {
          "internalType": "bytes32",
          "name": "role",
          "type": "bytes32"
        },
        {
          "internalType": "address",
          "name": "account",
          "type": "address"
        }
      ],
      "name": "revokeRole",
      "outputs": [],
      "stateMutability": "nonpayable",
      "type": "function"
    },
    {
      "inputs": [
        {
          "internalType": "bytes4",
          "name": "interfaceId",
          "type": "bytes4"
        }
      ],
      "name": "supportsInterface",
      "outputs": [
        {
          "internalType": "bool",
          "name": "",
          "type": "bool"
        }
      ],
      "stateMutability": "view",
      "type": "function",
      "constant": true
    },
    {
      "inputs": [
        {
          "internalType": "address",
          "name": "from",
          "type": "address"
        },
        {
          "internalType": "address",
          "name": "to",
          "type": "address"
        },
        {
          "internalType": "uint256",
          "name": "id",
          "type": "uint256"
        },
        {
          "internalType": "uint256",
          "name": "price",
          "type": "uint256"
        }
      ],
      "name": "buyMonster",
      "outputs": [],
      "stateMutability": "nonpayable",
      "type": "function"
    }
  ],
  "bytecode": "0x60806040523480156200001157600080fd5b506040516200174038038062001740833981810160405281019062000037919062000321565b81600260006101000a81548173ffffffffffffffffffffffffffffffffffffffff021916908373ffffffffffffffffffffffffffffffffffffffff16021790555080600160006101000a81548173ffffffffffffffffffffffffffffffffffffffff021916908373ffffffffffffffffffffffffffffffffffffffff160217905550620000dd6000801b620000d1620000e560201b60201c565b620000ed60201b60201c565b505062000368565b600033905090565b620000ff82826200010360201b60201c565b5050565b620001158282620001f460201b60201c565b620001f057600160008084815260200190815260200160002060000160008373ffffffffffffffffffffffffffffffffffffffff1673ffffffffffffffffffffffffffffffffffffffff16815260200190815260200160002060006101000a81548160ff02191690831515021790555062000195620000e560201b60201c565b73ffffffffffffffffffffffffffffffffffffffff168173ffffffffffffffffffffffffffffffffffffffff16837f2f8788117e7eff1d82e926ec794901d17c78024a50270940304540a733656f0d60405160405180910390a45b5050565b600080600084815260200190815260200160002060000160008373ffffffffffffffffffffffffffffffffffffffff1673ffffffffffffffffffffffffffffffffffffffff16815260200190815260200160002060009054906101000a900460ff16905092915050565b600080fd5b600073ffffffffffffffffffffffffffffffffffffffff82169050919050565b6000620002908262000263565b9050919050565b6000620002a48262000283565b9050919050565b620002b68162000297565b8114620002c257600080fd5b50565b600081519050620002d681620002ab565b92915050565b6000620002e98262000283565b9050919050565b620002fb81620002dc565b81146200030757600080fd5b50565b6000815190506200031b81620002f0565b92915050565b600080604083850312156200033b576200033a6200025e565b5b60006200034b85828601620002c5565b92505060206200035e858286016200030a565b9150509250929050565b6113c880620003786000396000f3fe608060405234801561001057600080fd5b50600436106100885760003560e01c80635173b2d41161005b5780635173b2d41461012557806391d1485414610141578063a217fddf14610171578063d547741f1461018f57610088565b806301ffc9a71461008d578063248a9ca3146100bd5780632f2ff15d146100ed57806336568abe14610109575b600080fd5b6100a760048036038101906100a29190610b57565b6101ab565b6040516100b49190610b9f565b60405180910390f35b6100d760048036038101906100d29190610bf0565b610225565b6040516100e49190610c2c565b60405180910390f35b61010760048036038101906101029190610ca5565b610244565b005b610123600480360381019061011e9190610ca5565b61026d565b005b61013f600480360381019061013a9190610d1b565b6102f0565b005b61015b60048036038101906101569190610ca5565b610554565b6040516101689190610b9f565b60405180910390f35b6101796105be565b6040516101869190610c2c565b60405180910390f35b6101a960048036038101906101a49190610ca5565b6105c5565b005b60007f7965db0b000000000000000000000000000000000000000000000000000000007bffffffffffffffffffffffffffffffffffffffffffffffffffffffff1916827bffffffffffffffffffffffffffffffffffffffffffffffffffffffff1916148061021e575061021d826105ee565b5b9050919050565b6000806000838152602001908152602001600020600101549050919050565b61024d82610225565b61025e81610259610658565b610660565b61026883836106fd565b505050565b610275610658565b73ffffffffffffffffffffffffffffffffffffffff168173ffffffffffffffffffffffffffffffffffffffff16146102e2576040517f08c379a00000000000000000000000000000000000000000000000000000000081526004016102d990610e05565b60405180910390fd5b6102ec82826107dd565b5050565b6000801b61030581610300610658565b610660565b600260009054906101000a900473ffffffffffffffffffffffffffffffffffffffff1673ffffffffffffffffffffffffffffffffffffffff1663f242432a86868660016040518563ffffffff1660e01b81526004016103679493929190610ebf565b600060405180830381600087803b15801561038157600080fd5b505af1158015610395573d6000803e3d6000fd5b50505050600160009054906101000a900473ffffffffffffffffffffffffffffffffffffffff1673ffffffffffffffffffffffffffffffffffffffff1663862165c38660016040518363ffffffff1660e01b81526004016103f7929190610f55565b600060405180830381600087803b15801561041157600080fd5b505af1158015610425573d6000803e3d6000fd5b50505050600160009054906101000a900473ffffffffffffffffffffffffffffffffffffffff1673ffffffffffffffffffffffffffffffffffffffff1663189b18c18560016040518363ffffffff1660e01b8152600401610487929190610f55565b600060405180830381600087803b1580156104a157600080fd5b505af11580156104b5573d6000803e3d6000fd5b50505050600260009054906101000a900473ffffffffffffffffffffffffffffffffffffffff1673ffffffffffffffffffffffffffffffffffffffff1663f242432a85876001866040518563ffffffff1660e01b815260040161051b9493929190610faf565b600060405180830381600087803b15801561053557600080fd5b505af1158015610549573d6000803e3d6000fd5b505050505050505050565b600080600084815260200190815260200160002060000160008373ffffffffffffffffffffffffffffffffffffffff1673ffffffffffffffffffffffffffffffffffffffff16815260200190815260200160002060009054906101000a900460ff16905092915050565b6000801b81565b6105ce82610225565b6105df816105da610658565b610660565b6105e983836107dd565b505050565b60007f01ffc9a7000000000000000000000000000000000000000000000000000000007bffffffffffffffffffffffffffffffffffffffffffffffffffffffff1916827bffffffffffffffffffffffffffffffffffffffffffffffffffffffff1916149050919050565b600033905090565b61066a8282610554565b6106f95761068f8173ffffffffffffffffffffffffffffffffffffffff1660146108be565b61069d8360001c60206108be565b6040516020016106ae929190611119565b6040516020818303038152906040526040517f08c379a00000000000000000000000000000000000000000000000000000000081526004016106f0919061119d565b60405180910390fd5b5050565b6107078282610554565b6107d957600160008084815260200190815260200160002060000160008373ffffffffffffffffffffffffffffffffffffffff1673ffffffffffffffffffffffffffffffffffffffff16815260200190815260200160002060006101000a81548160ff02191690831515021790555061077e610658565b73ffffffffffffffffffffffffffffffffffffffff168173ffffffffffffffffffffffffffffffffffffffff16837f2f8788117e7eff1d82e926ec794901d17c78024a50270940304540a733656f0d60405160405180910390a45b5050565b6107e78282610554565b156108ba57600080600084815260200190815260200160002060000160008373ffffffffffffffffffffffffffffffffffffffff1673ffffffffffffffffffffffffffffffffffffffff16815260200190815260200160002060006101000a81548160ff02191690831515021790555061085f610658565b73ffffffffffffffffffffffffffffffffffffffff168173ffffffffffffffffffffffffffffffffffffffff16837ff6391f5c32d9c69d2a47ea670b442974b53935d1edc7fd64eb21e047a839171b60405160405180910390a45b5050565b6060600060028360026108d191906111ee565b6108db9190611248565b67ffffffffffffffff8111156108f4576108f361129e565b5b6040519080825280601f01601f1916602001820160405280156109265781602001600182028036833780820191505090505b5090507f30000000000000000000000000000000000000000000000000000000000000008160008151811061095e5761095d6112cd565b5b60200101907effffffffffffffffffffffffffffffffffffffffffffffffffffffffffffff1916908160001a9053507f7800000000000000000000000000000000000000000000000000000000000000816001815181106109c2576109c16112cd565b5b60200101907effffffffffffffffffffffffffffffffffffffffffffffffffffffffffffff1916908160001a90535060006001846002610a0291906111ee565b610a0c9190611248565b90505b6001811115610aac577f3031323334353637383961626364656600000000000000000000000000000000600f861660108110610a4e57610a4d6112cd565b5b1a60f81b828281518110610a6557610a646112cd565b5b60200101907effffffffffffffffffffffffffffffffffffffffffffffffffffffffffffff1916908160001a905350600485901c945080610aa5906112fc565b9050610a0f565b5060008414610af0576040517f08c379a0000000000000000000000000000000000000000000000000000000008152600401610ae790611372565b60405180910390fd5b8091505092915050565b600080fd5b60007fffffffff0000000000000000000000000000000000000000000000000000000082169050919050565b610b3481610aff565b8114610b3f57600080fd5b50565b600081359050610b5181610b2b565b92915050565b600060208284031215610b6d57610b6c610afa565b5b6000610b7b84828501610b42565b91505092915050565b60008115159050919050565b610b9981610b84565b82525050565b6000602082019050610bb46000830184610b90565b92915050565b6000819050919050565b610bcd81610bba565b8114610bd857600080fd5b50565b600081359050610bea81610bc4565b92915050565b600060208284031215610c0657610c05610afa565b5b6000610c1484828501610bdb565b91505092915050565b610c2681610bba565b82525050565b6000602082019050610c416000830184610c1d565b92915050565b600073ffffffffffffffffffffffffffffffffffffffff82169050919050565b6000610c7282610c47565b9050919050565b610c8281610c67565b8114610c8d57600080fd5b50565b600081359050610c9f81610c79565b92915050565b60008060408385031215610cbc57610cbb610afa565b5b6000610cca85828601610bdb565b9250506020610cdb85828601610c90565b9150509250929050565b6000819050919050565b610cf881610ce5565b8114610d0357600080fd5b50565b600081359050610d1581610cef565b92915050565b60008060008060808587031215610d3557610d34610afa565b5b6000610d4387828801610c90565b9450506020610d5487828801610c90565b9350506040610d6587828801610d06565b9250506060610d7687828801610d06565b91505092959194509250565b600082825260208201905092915050565b7f416363657373436f6e74726f6c3a2063616e206f6e6c792072656e6f756e636560008201527f20726f6c657320666f722073656c660000000000000000000000000000000000602082015250565b6000610def602f83610d82565b9150610dfa82610d93565b604082019050919050565b60006020820190508181036000830152610e1e81610de2565b9050919050565b610e2e81610c67565b82525050565b610e3d81610ce5565b82525050565b6000819050919050565b6000819050919050565b6000610e72610e6d610e6884610e43565b610e4d565b610ce5565b9050919050565b610e8281610e57565b82525050565b600082825260208201905092915050565b50565b6000610ea9600083610e88565b9150610eb482610e99565b600082019050919050565b600060a082019050610ed46000830187610e25565b610ee16020830186610e25565b610eee6040830185610e34565b610efb6060830184610e79565b8181036080830152610f0c81610e9c565b905095945050505050565b600060ff82169050919050565b6000610f3f610f3a610f3584610e43565b610e4d565b610f17565b9050919050565b610f4f81610f24565b82525050565b6000604082019050610f6a6000830185610e25565b610f776020830184610f46565b9392505050565b6000610f99610f94610f8f84610f17565b610e4d565b610ce5565b9050919050565b610fa981610f7e565b82525050565b600060a082019050610fc46000830187610e25565b610fd16020830186610e25565b610fde6040830185610fa0565b610feb6060830184610e34565b8181036080830152610ffc81610e9c565b905095945050505050565b600081905092915050565b7f416363657373436f6e74726f6c3a206163636f756e7420000000000000000000600082015250565b6000611048601783611007565b915061105382611012565b601782019050919050565b600081519050919050565b60005b8381101561108757808201518184015260208101905061106c565b83811115611096576000848401525b50505050565b60006110a78261105e565b6110b18185611007565b93506110c1818560208601611069565b80840191505092915050565b7f206973206d697373696e6720726f6c6520000000000000000000000000000000600082015250565b6000611103601183611007565b915061110e826110cd565b601182019050919050565b60006111248261103b565b9150611130828561109c565b915061113b826110f6565b9150611147828461109c565b91508190509392505050565b6000601f19601f8301169050919050565b600061116f8261105e565b6111798185610d82565b9350611189818560208601611069565b61119281611153565b840191505092915050565b600060208201905081810360008301526111b78184611164565b905092915050565b7f4e487b7100000000000000000000000000000000000000000000000000000000600052601160045260246000fd5b60006111f982610ce5565b915061120483610ce5565b9250817fffffffffffffffffffffffffffffffffffffffffffffffffffffffffffffffff048311821515161561123d5761123c6111bf565b5b828202905092915050565b600061125382610ce5565b915061125e83610ce5565b9250827fffffffffffffffffffffffffffffffffffffffffffffffffffffffffffffffff03821115611293576112926111bf565b5b828201905092915050565b7f4e487b7100000000000000000000000000000000000000000000000000000000600052604160045260246000fd5b7f4e487b7100000000000000000000000000000000000000000000000000000000600052603260045260246000fd5b600061130782610ce5565b9150600082141561131b5761131a6111bf565b5b600182039050919050565b7f537472696e67733a20686578206c656e67746820696e73756666696369656e74600082015250565b600061135c602083610d82565b915061136782611326565b602082019050919050565b6000602082019050818103600083015261138b8161134f565b905091905056fea2646970667358221220f04d54f6877cb271fc59749b8739afdabd42adf3de5d9250f8f207de5d29a3cf64736f6c634300080c0033",
  "immutableReferences": {},
  "source": "// SPDX-License-Identifier: MIT\r\npragma solidity >=0.8.0;\r\n\r\nimport \"./Players.sol\";\r\nimport \"./BTokens.sol\";\r\nimport \"@openzeppelin/contracts/access/AccessControl.sol\";\r\n\r\n\r\ncontract Marketplace is AccessControl {\r\n\r\n    Players private players;\r\n    BTokens private token;\r\n\r\n    constructor(BTokens _token, Players _player) {\r\n        token = _token;\r\n        players = _player;\r\n        // Setup roles for creator\r\n        _setupRole(DEFAULT_ADMIN_ROLE, _msgSender());\r\n    }\r\n\r\n    function buyMonster(address from, address to, uint256 id, uint256 price) external onlyRole(DEFAULT_ADMIN_ROLE) {\r\n        token.safeTransferFrom(from, to, id, 1, \"\");\r\n        players.decreaseMonsters(from, 1);\r\n        players.increaseMonsters(to, 1);\r\n        token.safeTransferFrom(to, from, GameConstants.CRNCY, price, \"\");\r\n    }\r\n}",
  "sourcePath": "C:\\Users\\raa42\\Documents\\Banguins\\contracts\\Marketplace.sol",
  "compiler": {
    "name": "solc",
    "version": "0.8.12+commit.f00d7308.Emscripten.clang"
  },
  "schemaVersion": "3.4.6",
  "updatedAt": "2022-03-13T03:25:01.268Z",
  "networkType": "ethereum",
  "devdoc": {
    "kind": "dev",
    "methods": {
      "getRoleAdmin(bytes32)": {
        "details": "Returns the admin role that controls `role`. See {grantRole} and {revokeRole}. To change a role's admin, use {_setRoleAdmin}."
      },
      "grantRole(bytes32,address)": {
        "details": "Grants `role` to `account`. If `account` had not been already granted `role`, emits a {RoleGranted} event. Requirements: - the caller must have ``role``'s admin role."
      },
      "hasRole(bytes32,address)": {
        "details": "Returns `true` if `account` has been granted `role`."
      },
      "renounceRole(bytes32,address)": {
        "details": "Revokes `role` from the calling account. Roles are often managed via {grantRole} and {revokeRole}: this function's purpose is to provide a mechanism for accounts to lose their privileges if they are compromised (such as when a trusted device is misplaced). If the calling account had been revoked `role`, emits a {RoleRevoked} event. Requirements: - the caller must be `account`."
      },
      "revokeRole(bytes32,address)": {
        "details": "Revokes `role` from `account`. If `account` had been granted `role`, emits a {RoleRevoked} event. Requirements: - the caller must have ``role``'s admin role."
      },
      "supportsInterface(bytes4)": {
        "details": "See {IERC165-supportsInterface}."
      }
    },
    "version": 1
  },
  "userdoc": {
    "kind": "user",
    "methods": {},
    "version": 1
  }
}