{
  "contractName": "Battle",
  "abi": [
    {
      "inputs": [
        {
          "internalType": "contract BTokens",
          "name": "_tokens",
          "type": "address"
        },
        {
          "internalType": "contract Players",
          "name": "_players",
          "type": "address"
        }
      ],
      "stateMutability": "nonpayable",
      "type": "constructor"
    },
    {
      "anonymous": false,
      "inputs": [
        {
          "indexed": true,
          "internalType": "bytes32",
          "name": "role",
          "type": "bytes32"
        },
        {
          "indexed": true,
          "internalType": "bytes32",
          "name": "previousAdminRole",
          "type": "bytes32"
        },
        {
          "indexed": true,
          "internalType": "bytes32",
          "name": "newAdminRole",
          "type": "bytes32"
        }
      ],
      "name": "RoleAdminChanged",
      "type": "event"
    },
    {
      "anonymous": false,
      "inputs": [
        {
          "indexed": true,
          "internalType": "bytes32",
          "name": "role",
          "type": "bytes32"
        },
        {
          "indexed": true,
          "internalType": "address",
          "name": "account",
          "type": "address"
        },
        {
          "indexed": true,
          "internalType": "address",
          "name": "sender",
          "type": "address"
        }
      ],
      "name": "RoleGranted",
      "type": "event"
    },
    {
      "anonymous": false,
      "inputs": [
        {
          "indexed": true,
          "internalType": "bytes32",
          "name": "role",
          "type": "bytes32"
        },
        {
          "indexed": true,
          "internalType": "address",
          "name": "account",
          "type": "address"
        },
        {
          "indexed": true,
          "internalType": "address",
          "name": "sender",
          "type": "address"
        }
      ],
      "name": "RoleRevoked",
      "type": "event"
    },
    {
      "inputs": [],
      "name": "DEFAULT_ADMIN_ROLE",
      "outputs": [
        {
          "internalType": "bytes32",
          "name": "",
          "type": "bytes32"
        }
      ],
      "stateMutability": "view",
      "type": "function"
    },
    {
      "inputs": [
        {
          "internalType": "bytes32",
          "name": "role",
          "type": "bytes32"
        }
      ],
      "name": "getRoleAdmin",
      "outputs": [
        {
          "internalType": "bytes32",
          "name": "",
          "type": "bytes32"
        }
      ],
      "stateMutability": "view",
      "type": "function"
    },
    {
      "inputs": [
        {
          "internalType": "bytes32",
          "name": "role",
          "type": "bytes32"
        },
        {
          "internalType": "address",
          "name": "account",
          "type": "address"
        }
      ],
      "name": "grantRole",
      "outputs": [],
      "stateMutability": "nonpayable",
      "type": "function"
    },
    {
      "inputs": [
        {
          "internalType": "bytes32",
          "name": "role",
          "type": "bytes32"
        },
        {
          "internalType": "address",
          "name": "account",
          "type": "address"
        }
      ],
      "name": "hasRole",
      "outputs": [
        {
          "internalType": "bool",
          "name": "",
          "type": "bool"
        }
      ],
      "stateMutability": "view",
      "type": "function"
    },
    {
      "inputs": [
        {
          "internalType": "bytes32",
          "name": "role",
          "type": "bytes32"
        },
        {
          "internalType": "address",
          "name": "account",
          "type": "address"
        }
      ],
      "name": "renounceRole",
      "outputs": [],
      "stateMutability": "nonpayable",
      "type": "function"
    },
    {
      "inputs": [
        {
          "internalType": "bytes32",
          "name": "role",
          "type": "bytes32"
        },
        {
          "internalType": "address",
          "name": "account",
          "type": "address"
        }
      ],
      "name": "revokeRole",
      "outputs": [],
      "stateMutability": "nonpayable",
      "type": "function"
    },
    {
      "inputs": [
        {
          "internalType": "bytes4",
          "name": "interfaceId",
          "type": "bytes4"
        }
      ],
      "name": "supportsInterface",
      "outputs": [
        {
          "internalType": "bool",
          "name": "",
          "type": "bool"
        }
      ],
      "stateMutability": "view",
      "type": "function"
    },
    {
      "inputs": [
        {
          "internalType": "address",
          "name": "playerOne",
          "type": "address"
        },
        {
          "internalType": "address",
          "name": "playerTwo",
          "type": "address"
        },
        {
          "internalType": "uint256",
          "name": "energyAmountOne",
          "type": "uint256"
        },
        {
          "internalType": "uint256",
          "name": "energyAmountTwo",
          "type": "uint256"
        }
      ],
      "name": "startBattle",
      "outputs": [],
      "stateMutability": "nonpayable",
      "type": "function"
    },
    {
      "inputs": [
        {
          "internalType": "address",
          "name": "victor",
          "type": "address"
        },
        {
          "internalType": "address",
          "name": "loser",
          "type": "address"
        }
      ],
      "name": "endBattle",
      "outputs": [],
      "stateMutability": "nonpayable",
      "type": "function"
    }
  ],
  "bytecode": "0x60806040523480156200001157600080fd5b50604051620017a1380380620017a1833981810160405281019062000037919062000321565b81600160006101000a81548173ffffffffffffffffffffffffffffffffffffffff021916908373ffffffffffffffffffffffffffffffffffffffff16021790555080600260006101000a81548173ffffffffffffffffffffffffffffffffffffffff021916908373ffffffffffffffffffffffffffffffffffffffff160217905550620000dd6000801b620000d1620000e560201b60201c565b620000ed60201b60201c565b505062000368565b600033905090565b620000ff82826200010360201b60201c565b5050565b620001158282620001f460201b60201c565b620001f057600160008084815260200190815260200160002060000160008373ffffffffffffffffffffffffffffffffffffffff1673ffffffffffffffffffffffffffffffffffffffff16815260200190815260200160002060006101000a81548160ff02191690831515021790555062000195620000e560201b60201c565b73ffffffffffffffffffffffffffffffffffffffff168173ffffffffffffffffffffffffffffffffffffffff16837f2f8788117e7eff1d82e926ec794901d17c78024a50270940304540a733656f0d60405160405180910390a45b5050565b600080600084815260200190815260200160002060000160008373ffffffffffffffffffffffffffffffffffffffff1673ffffffffffffffffffffffffffffffffffffffff16815260200190815260200160002060009054906101000a900460ff16905092915050565b600080fd5b600073ffffffffffffffffffffffffffffffffffffffff82169050919050565b6000620002908262000263565b9050919050565b6000620002a48262000283565b9050919050565b620002b68162000297565b8114620002c257600080fd5b50565b600081519050620002d681620002ab565b92915050565b6000620002e98262000283565b9050919050565b620002fb81620002dc565b81146200030757600080fd5b50565b6000815190506200031b81620002f0565b92915050565b600080604083850312156200033b576200033a6200025e565b5b60006200034b85828601620002c5565b92505060206200035e858286016200030a565b9150509250929050565b61142980620003786000396000f3fe608060405234801561001057600080fd5b50600436106100935760003560e01c806391d148541161006657806391d1485414610130578063a217fddf14610160578063a96ccc6d1461017e578063ae05d0311461019a578063d547741f146101b657610093565b806301ffc9a714610098578063248a9ca3146100c85780632f2ff15d146100f857806336568abe14610114575b600080fd5b6100b260048036038101906100ad9190610c21565b6101d2565b6040516100bf9190610c69565b60405180910390f35b6100e260048036038101906100dd9190610cba565b61024c565b6040516100ef9190610cf6565b60405180910390f35b610112600480360381019061010d9190610d6f565b61026b565b005b61012e60048036038101906101299190610d6f565b610294565b005b61014a60048036038101906101459190610d6f565b610317565b6040516101579190610c69565b60405180910390f35b610168610381565b6040516101759190610cf6565b60405180910390f35b61019860048036038101906101939190610de5565b610388565b005b6101b460048036038101906101af9190610e4c565b6104c8565b005b6101d060048036038101906101cb9190610d6f565b61068f565b005b60007f7965db0b000000000000000000000000000000000000000000000000000000007bffffffffffffffffffffffffffffffffffffffffffffffffffffffff1916827bffffffffffffffffffffffffffffffffffffffffffffffffffffffff191614806102455750610244826106b8565b5b9050919050565b6000806000838152602001908152602001600020600101549050919050565b6102748261024c565b61028581610280610722565b61072a565b61028f83836107c7565b505050565b61029c610722565b73ffffffffffffffffffffffffffffffffffffffff168173ffffffffffffffffffffffffffffffffffffffff1614610309576040517f08c379a000000000000000000000000000000000000000000000000000000000815260040161030090610f0f565b60405180910390fd5b61031382826108a7565b5050565b600080600084815260200190815260200160002060000160008373ffffffffffffffffffffffffffffffffffffffff1673ffffffffffffffffffffffffffffffffffffffff16815260200190815260200160002060009054906101000a900460ff16905092915050565b6000801b81565b6000801b61039d81610398610722565b61072a565b600160009054906101000a900473ffffffffffffffffffffffffffffffffffffffff1673ffffffffffffffffffffffffffffffffffffffff1663f5298aca866000866040518463ffffffff1660e01b81526004016103fd93929190610f95565b600060405180830381600087803b15801561041757600080fd5b505af115801561042b573d6000803e3d6000fd5b50505050600160009054906101000a900473ffffffffffffffffffffffffffffffffffffffff1673ffffffffffffffffffffffffffffffffffffffff1663f5298aca856000856040518463ffffffff1660e01b815260040161048f93929190610f95565b600060405180830381600087803b1580156104a957600080fd5b505af11580156104bd573d6000803e3d6000fd5b505050505050505050565b6000801b6104dd816104d8610722565b61072a565b600260009054906101000a900473ffffffffffffffffffffffffffffffffffffffff1673ffffffffffffffffffffffffffffffffffffffff16639b9db6f5846040518263ffffffff1660e01b81526004016105389190610fcc565b600060405180830381600087803b15801561055257600080fd5b505af1158015610566573d6000803e3d6000fd5b50505050600260009054906101000a900473ffffffffffffffffffffffffffffffffffffffff1673ffffffffffffffffffffffffffffffffffffffff1663ec0a660a836040518263ffffffff1660e01b81526004016105c59190610fcc565b600060405180830381600087803b1580156105df57600080fd5b505af11580156105f3573d6000803e3d6000fd5b50505050600160009054906101000a900473ffffffffffffffffffffffffffffffffffffffff1673ffffffffffffffffffffffffffffffffffffffff1663731133e984600160646040518463ffffffff1660e01b81526004016106589392919061101e565b600060405180830381600087803b15801561067257600080fd5b505af1158015610686573d6000803e3d6000fd5b50505050505050565b6106988261024c565b6106a9816106a4610722565b61072a565b6106b383836108a7565b505050565b60007f01ffc9a7000000000000000000000000000000000000000000000000000000007bffffffffffffffffffffffffffffffffffffffffffffffffffffffff1916827bffffffffffffffffffffffffffffffffffffffffffffffffffffffff1916149050919050565b600033905090565b6107348282610317565b6107c3576107598173ffffffffffffffffffffffffffffffffffffffff166014610988565b6107678360001c6020610988565b60405160200161077892919061117a565b6040516020818303038152906040526040517f08c379a00000000000000000000000000000000000000000000000000000000081526004016107ba91906111fe565b60405180910390fd5b5050565b6107d18282610317565b6108a357600160008084815260200190815260200160002060000160008373ffffffffffffffffffffffffffffffffffffffff1673ffffffffffffffffffffffffffffffffffffffff16815260200190815260200160002060006101000a81548160ff021916908315150217905550610848610722565b73ffffffffffffffffffffffffffffffffffffffff168173ffffffffffffffffffffffffffffffffffffffff16837f2f8788117e7eff1d82e926ec794901d17c78024a50270940304540a733656f0d60405160405180910390a45b5050565b6108b18282610317565b1561098457600080600084815260200190815260200160002060000160008373ffffffffffffffffffffffffffffffffffffffff1673ffffffffffffffffffffffffffffffffffffffff16815260200190815260200160002060006101000a81548160ff021916908315150217905550610929610722565b73ffffffffffffffffffffffffffffffffffffffff168173ffffffffffffffffffffffffffffffffffffffff16837ff6391f5c32d9c69d2a47ea670b442974b53935d1edc7fd64eb21e047a839171b60405160405180910390a45b5050565b60606000600283600261099b919061124f565b6109a591906112a9565b67ffffffffffffffff8111156109be576109bd6112ff565b5b6040519080825280601f01601f1916602001820160405280156109f05781602001600182028036833780820191505090505b5090507f300000000000000000000000000000000000000000000000000000000000000081600081518110610a2857610a2761132e565b5b60200101907effffffffffffffffffffffffffffffffffffffffffffffffffffffffffffff1916908160001a9053507f780000000000000000000000000000000000000000000000000000000000000081600181518110610a8c57610a8b61132e565b5b60200101907effffffffffffffffffffffffffffffffffffffffffffffffffffffffffffff1916908160001a90535060006001846002610acc919061124f565b610ad691906112a9565b90505b6001811115610b76577f3031323334353637383961626364656600000000000000000000000000000000600f861660108110610b1857610b1761132e565b5b1a60f81b828281518110610b2f57610b2e61132e565b5b60200101907effffffffffffffffffffffffffffffffffffffffffffffffffffffffffffff1916908160001a905350600485901c945080610b6f9061135d565b9050610ad9565b5060008414610bba576040517f08c379a0000000000000000000000000000000000000000000000000000000008152600401610bb1906113d3565b60405180910390fd5b8091505092915050565b600080fd5b60007fffffffff0000000000000000000000000000000000000000000000000000000082169050919050565b610bfe81610bc9565b8114610c0957600080fd5b50565b600081359050610c1b81610bf5565b92915050565b600060208284031215610c3757610c36610bc4565b5b6000610c4584828501610c0c565b91505092915050565b60008115159050919050565b610c6381610c4e565b82525050565b6000602082019050610c7e6000830184610c5a565b92915050565b6000819050919050565b610c9781610c84565b8114610ca257600080fd5b50565b600081359050610cb481610c8e565b92915050565b600060208284031215610cd057610ccf610bc4565b5b6000610cde84828501610ca5565b91505092915050565b610cf081610c84565b82525050565b6000602082019050610d0b6000830184610ce7565b92915050565b600073ffffffffffffffffffffffffffffffffffffffff82169050919050565b6000610d3c82610d11565b9050919050565b610d4c81610d31565b8114610d5757600080fd5b50565b600081359050610d6981610d43565b92915050565b60008060408385031215610d8657610d85610bc4565b5b6000610d9485828601610ca5565b9250506020610da585828601610d5a565b9150509250929050565b6000819050919050565b610dc281610daf565b8114610dcd57600080fd5b50565b600081359050610ddf81610db9565b92915050565b60008060008060808587031215610dff57610dfe610bc4565b5b6000610e0d87828801610d5a565b9450506020610e1e87828801610d5a565b9350506040610e2f87828801610dd0565b9250506060610e4087828801610dd0565b91505092959194509250565b60008060408385031215610e6357610e62610bc4565b5b6000610e7185828601610d5a565b9250506020610e8285828601610d5a565b9150509250929050565b600082825260208201905092915050565b7f416363657373436f6e74726f6c3a2063616e206f6e6c792072656e6f756e636560008201527f20726f6c657320666f722073656c660000000000000000000000000000000000602082015250565b6000610ef9602f83610e8c565b9150610f0482610e9d565b604082019050919050565b60006020820190508181036000830152610f2881610eec565b9050919050565b610f3881610d31565b82525050565b600060ff82169050919050565b6000819050919050565b6000610f70610f6b610f6684610f3e565b610f4b565b610daf565b9050919050565b610f8081610f55565b82525050565b610f8f81610daf565b82525050565b6000606082019050610faa6000830186610f2f565b610fb76020830185610f77565b610fc46040830184610f86565b949350505050565b6000602082019050610fe16000830184610f2f565b92915050565b600082825260208201905092915050565b50565b6000611008600083610fe7565b915061101382610ff8565b600082019050919050565b60006080820190506110336000830186610f2f565b6110406020830185610f77565b61104d6040830184610f77565b818103606083015261105e81610ffb565b9050949350505050565b600081905092915050565b7f416363657373436f6e74726f6c3a206163636f756e7420000000000000000000600082015250565b60006110a9601783611068565b91506110b482611073565b601782019050919050565b600081519050919050565b60005b838110156110e85780820151818401526020810190506110cd565b838111156110f7576000848401525b50505050565b6000611108826110bf565b6111128185611068565b93506111228185602086016110ca565b80840191505092915050565b7f206973206d697373696e6720726f6c6520000000000000000000000000000000600082015250565b6000611164601183611068565b915061116f8261112e565b601182019050919050565b60006111858261109c565b915061119182856110fd565b915061119c82611157565b91506111a882846110fd565b91508190509392505050565b6000601f19601f8301169050919050565b60006111d0826110bf565b6111da8185610e8c565b93506111ea8185602086016110ca565b6111f3816111b4565b840191505092915050565b6000602082019050818103600083015261121881846111c5565b905092915050565b7f4e487b7100000000000000000000000000000000000000000000000000000000600052601160045260246000fd5b600061125a82610daf565b915061126583610daf565b9250817fffffffffffffffffffffffffffffffffffffffffffffffffffffffffffffffff048311821515161561129e5761129d611220565b5b828202905092915050565b60006112b482610daf565b91506112bf83610daf565b9250827fffffffffffffffffffffffffffffffffffffffffffffffffffffffffffffffff038211156112f4576112f3611220565b5b828201905092915050565b7f4e487b7100000000000000000000000000000000000000000000000000000000600052604160045260246000fd5b7f4e487b7100000000000000000000000000000000000000000000000000000000600052603260045260246000fd5b600061136882610daf565b9150600082141561137c5761137b611220565b5b600182039050919050565b7f537472696e67733a20686578206c656e67746820696e73756666696369656e74600082015250565b60006113bd602083610e8c565b91506113c882611387565b602082019050919050565b600060208201905081810360008301526113ec816113b0565b905091905056fea2646970667358221220b3c51ed87dea29f35ae718d99203986479980b635e9b8ac082d7e1bd6f85dc7564736f6c634300080c0033",
  "immutableReferences": {},
  "source": "// SPDX-License-Identifier: MIT\r\npragma solidity >=0.8.0;\r\n\r\nimport \"./BTokens.sol\";\r\nimport \"./Players.sol\";\r\nimport \"@openzeppelin/contracts/access/AccessControl.sol\";\r\nimport \"./GameConstants.sol\";\r\n\r\ncontract Battle is AccessControl {\r\n    // Instance of BTokens to access balances of tokens for each player\r\n    BTokens private tokens;\r\n    Players private players;\r\n\r\n    constructor(BTokens _tokens, Players _players) {\r\n        tokens = _tokens;\r\n        players = _players;\r\n        _setupRole(DEFAULT_ADMIN_ROLE, _msgSender());\r\n    }\r\n\r\n    // Players submit their energy before a battle starts\r\n    // In cases of disconnecting or rage quitting the energy will still be consumed\r\n    function startBattle(\r\n        address playerOne, \r\n        address playerTwo, \r\n        uint256 energyAmountOne, \r\n        uint256 energyAmountTwo\r\n    ) external onlyRole(DEFAULT_ADMIN_ROLE) {\r\n        // Burn tokens\r\n        tokens.burn(playerOne, GameConstants.NRGY, energyAmountOne);\r\n        tokens.burn(playerTwo, GameConstants.NRGY, energyAmountTwo);\r\n    }\r\n\r\n    // Reward CRNCY to victor and update player stats\r\n    function endBattle(address victor, address loser) external onlyRole(DEFAULT_ADMIN_ROLE) {\r\n        players.increaseWins(victor);\r\n        players.increaseLosses(loser);\r\n        tokens.mint(victor, GameConstants.CRNCY, GameConstants.CRNCY_WIN_AMOUNT, \"\");\r\n    }\r\n}\r\n",
  "sourcePath": "C:\\Users\\raa42\\Documents\\Banguins\\contracts\\Battle.sol",
  "compiler": {
    "name": "solc",
    "version": "0.8.12+commit.f00d7308.Emscripten.clang"
  },
  "schemaVersion": "3.4.6",
  "updatedAt": "2022-03-13T06:48:01.587Z",
  "devdoc": {
    "kind": "dev",
    "methods": {
      "getRoleAdmin(bytes32)": {
        "details": "Returns the admin role that controls `role`. See {grantRole} and {revokeRole}. To change a role's admin, use {_setRoleAdmin}."
      },
      "grantRole(bytes32,address)": {
        "details": "Grants `role` to `account`. If `account` had not been already granted `role`, emits a {RoleGranted} event. Requirements: - the caller must have ``role``'s admin role."
      },
      "hasRole(bytes32,address)": {
        "details": "Returns `true` if `account` has been granted `role`."
      },
      "renounceRole(bytes32,address)": {
        "details": "Revokes `role` from the calling account. Roles are often managed via {grantRole} and {revokeRole}: this function's purpose is to provide a mechanism for accounts to lose their privileges if they are compromised (such as when a trusted device is misplaced). If the calling account had been revoked `role`, emits a {RoleRevoked} event. Requirements: - the caller must be `account`."
      },
      "revokeRole(bytes32,address)": {
        "details": "Revokes `role` from `account`. If `account` had been granted `role`, emits a {RoleRevoked} event. Requirements: - the caller must have ``role``'s admin role."
      },
      "supportsInterface(bytes4)": {
        "details": "See {IERC165-supportsInterface}."
      }
    },
    "version": 1
  },
  "userdoc": {
    "kind": "user",
    "methods": {},
    "version": 1
  }
}