{
  "contractName": "Monsters",
  "abi": [
    {
      "inputs": [
        {
          "internalType": "contract PseudoRandomNumbers",
          "name": "_rng",
          "type": "address"
        }
      ],
      "stateMutability": "nonpayable",
      "type": "constructor"
    },
    {
      "anonymous": false,
      "inputs": [
        {
          "indexed": true,
          "internalType": "bytes32",
          "name": "role",
          "type": "bytes32"
        },
        {
          "indexed": true,
          "internalType": "bytes32",
          "name": "previousAdminRole",
          "type": "bytes32"
        },
        {
          "indexed": true,
          "internalType": "bytes32",
          "name": "newAdminRole",
          "type": "bytes32"
        }
      ],
      "name": "RoleAdminChanged",
      "type": "event"
    },
    {
      "anonymous": false,
      "inputs": [
        {
          "indexed": true,
          "internalType": "bytes32",
          "name": "role",
          "type": "bytes32"
        },
        {
          "indexed": true,
          "internalType": "address",
          "name": "account",
          "type": "address"
        },
        {
          "indexed": true,
          "internalType": "address",
          "name": "sender",
          "type": "address"
        }
      ],
      "name": "RoleGranted",
      "type": "event"
    },
    {
      "anonymous": false,
      "inputs": [
        {
          "indexed": true,
          "internalType": "bytes32",
          "name": "role",
          "type": "bytes32"
        },
        {
          "indexed": true,
          "internalType": "address",
          "name": "account",
          "type": "address"
        },
        {
          "indexed": true,
          "internalType": "address",
          "name": "sender",
          "type": "address"
        }
      ],
      "name": "RoleRevoked",
      "type": "event"
    },
    {
      "inputs": [],
      "name": "DEFAULT_ADMIN_ROLE",
      "outputs": [
        {
          "internalType": "bytes32",
          "name": "",
          "type": "bytes32"
        }
      ],
      "stateMutability": "view",
      "type": "function",
      "constant": true
    },
    {
      "inputs": [
        {
          "internalType": "bytes32",
          "name": "role",
          "type": "bytes32"
        }
      ],
      "name": "getRoleAdmin",
      "outputs": [
        {
          "internalType": "bytes32",
          "name": "",
          "type": "bytes32"
        }
      ],
      "stateMutability": "view",
      "type": "function",
      "constant": true
    },
    {
      "inputs": [
        {
          "internalType": "bytes32",
          "name": "role",
          "type": "bytes32"
        },
        {
          "internalType": "address",
          "name": "account",
          "type": "address"
        }
      ],
      "name": "grantRole",
      "outputs": [],
      "stateMutability": "nonpayable",
      "type": "function"
    },
    {
      "inputs": [
        {
          "internalType": "bytes32",
          "name": "role",
          "type": "bytes32"
        },
        {
          "internalType": "address",
          "name": "account",
          "type": "address"
        }
      ],
      "name": "hasRole",
      "outputs": [
        {
          "internalType": "bool",
          "name": "",
          "type": "bool"
        }
      ],
      "stateMutability": "view",
      "type": "function",
      "constant": true
    },
    {
      "inputs": [],
      "name": "numMonsters",
      "outputs": [
        {
          "internalType": "uint256",
          "name": "",
          "type": "uint256"
        }
      ],
      "stateMutability": "view",
      "type": "function",
      "constant": true
    },
    {
      "inputs": [
        {
          "internalType": "enum Monsters.Rarity",
          "name": "",
          "type": "uint8"
        },
        {
          "internalType": "uint256",
          "name": "",
          "type": "uint256"
        }
      ],
      "name": "rarityToMonsters",
      "outputs": [
        {
          "internalType": "uint256",
          "name": "",
          "type": "uint256"
        }
      ],
      "stateMutability": "view",
      "type": "function",
      "constant": true
    },
    {
      "inputs": [
        {
          "internalType": "bytes32",
          "name": "role",
          "type": "bytes32"
        },
        {
          "internalType": "address",
          "name": "account",
          "type": "address"
        }
      ],
      "name": "renounceRole",
      "outputs": [],
      "stateMutability": "nonpayable",
      "type": "function"
    },
    {
      "inputs": [
        {
          "internalType": "bytes32",
          "name": "role",
          "type": "bytes32"
        },
        {
          "internalType": "address",
          "name": "account",
          "type": "address"
        }
      ],
      "name": "revokeRole",
      "outputs": [],
      "stateMutability": "nonpayable",
      "type": "function"
    },
    {
      "inputs": [
        {
          "internalType": "bytes4",
          "name": "interfaceId",
          "type": "bytes4"
        }
      ],
      "name": "supportsInterface",
      "outputs": [
        {
          "internalType": "bool",
          "name": "",
          "type": "bool"
        }
      ],
      "stateMutability": "view",
      "type": "function",
      "constant": true
    },
    {
      "inputs": [
        {
          "internalType": "uint256",
          "name": "id",
          "type": "uint256"
        },
        {
          "internalType": "enum Monsters.Rarity",
          "name": "rarity",
          "type": "uint8"
        }
      ],
      "name": "addMonster",
      "outputs": [],
      "stateMutability": "nonpayable",
      "type": "function"
    },
    {
      "inputs": [
        {
          "internalType": "uint8",
          "name": "num",
          "type": "uint8"
        }
      ],
      "name": "getRandomMonster",
      "outputs": [
        {
          "internalType": "uint256[]",
          "name": "",
          "type": "uint256[]"
        },
        {
          "internalType": "uint8[]",
          "name": "",
          "type": "uint8[]"
        }
      ],
      "stateMutability": "nonpayable",
      "type": "function"
    },
    {
      "inputs": [
        {
          "internalType": "enum Monsters.Rarity",
          "name": "rarity",
          "type": "uint8"
        },
        {
          "internalType": "uint256",
          "name": "prob",
          "type": "uint256"
        }
      ],
      "name": "setRarityProbability",
      "outputs": [],
      "stateMutability": "nonpayable",
      "type": "function"
    },
    {
      "inputs": [
        {
          "internalType": "enum Monsters.Rarity",
          "name": "rarity",
          "type": "uint8"
        }
      ],
      "name": "getRarityProbability",
      "outputs": [
        {
          "internalType": "uint256",
          "name": "",
          "type": "uint256"
        }
      ],
      "stateMutability": "view",
      "type": "function",
      "constant": true
    },
    {
      "inputs": [
        {
          "internalType": "uint256",
          "name": "prob",
          "type": "uint256"
        }
      ],
      "name": "setMaxProbability",
      "outputs": [],
      "stateMutability": "nonpayable",
      "type": "function"
    },
    {
      "inputs": [],
      "name": "getMaxProbability",
      "outputs": [
        {
          "internalType": "uint256",
          "name": "",
          "type": "uint256"
        }
      ],
      "stateMutability": "view",
      "type": "function",
      "constant": true
    },
    {
      "inputs": [
        {
          "internalType": "address",
          "name": "account",
          "type": "address"
        }
      ],
      "name": "grantAdmin",
      "outputs": [],
      "stateMutability": "nonpayable",
      "type": "function"
    }
  ],
  "bytecode": "0x60806040523480156200001157600080fd5b5060405162002704380380620027048339818101604052810190620000379190620003b9565b620186a060038190555061ea60600260008060038111156200005e576200005d620003eb565b5b6003811115620000735762000072620003eb565b5b81526020019081526020016000208190555062014c086002600060016003811115620000a457620000a3620003eb565b5b6003811115620000b957620000b8620003eb565b5b81526020019081526020016000208190555062017cdc6002600060026003811115620000ea57620000e9620003eb565b5b6003811115620000ff57620000fe620003eb565b5b815260200190815260200160002081905550620186a0600260006003808111156200012f576200012e620003eb565b5b6003811115620001445762000143620003eb565b5b81526020019081526020016000208190555080600560006101000a81548173ffffffffffffffffffffffffffffffffffffffff021916908373ffffffffffffffffffffffffffffffffffffffff160217905550620001bb6000801b620001af620001c260201b60201c565b620001ca60201b60201c565b506200041a565b600033905090565b620001dc8282620001e060201b60201c565b5050565b620001f28282620002d160201b60201c565b620002cd57600160008084815260200190815260200160002060000160008373ffffffffffffffffffffffffffffffffffffffff1673ffffffffffffffffffffffffffffffffffffffff16815260200190815260200160002060006101000a81548160ff02191690831515021790555062000272620001c260201b60201c565b73ffffffffffffffffffffffffffffffffffffffff168173ffffffffffffffffffffffffffffffffffffffff16837f2f8788117e7eff1d82e926ec794901d17c78024a50270940304540a733656f0d60405160405180910390a45b5050565b600080600084815260200190815260200160002060000160008373ffffffffffffffffffffffffffffffffffffffff1673ffffffffffffffffffffffffffffffffffffffff16815260200190815260200160002060009054906101000a900460ff16905092915050565b600080fd5b600073ffffffffffffffffffffffffffffffffffffffff82169050919050565b60006200036d8262000340565b9050919050565b6000620003818262000360565b9050919050565b620003938162000374565b81146200039f57600080fd5b50565b600081519050620003b38162000388565b92915050565b600060208284031215620003d257620003d16200033b565b5b6000620003e284828501620003a2565b91505092915050565b7f4e487b7100000000000000000000000000000000000000000000000000000000600052602160045260246000fd5b6122da806200042a6000396000f3fe608060405234801561001057600080fd5b50600436106101005760003560e01c806335bb3e16116100975780639087590e116100665780639087590e146102bc57806391d14854146102da578063a217fddf1461030a578063d547741f1461032857610100565b806335bb3e161461022357806336568abe1461023f5780633b200ca11461025b5780636972e4581461028b57610100565b8063248a9ca3116100d3578063248a9ca31461019f5780632f2ff15d146101cf5780632f5eb2f5146101eb57806332a95f591461020757610100565b806301ffc9a714610105578063108605181461013557806313850eee14610165578063150c777e14610183575b600080fd5b61011f600480360381019061011a91906113f6565b610344565b60405161012c919061143e565b60405180910390f35b61014f600480360381019061014a91906114b4565b6103be565b60405161015c9190611503565b60405180910390f35b61016d6103ef565b60405161017a9190611503565b60405180910390f35b61019d6004803603810190610198919061151e565b61044c565b005b6101b960048036038101906101b49190611594565b6105d0565b6040516101c691906115d0565b60405180910390f35b6101e960048036038101906101e49190611649565b6105ef565b005b610205600480360381019061020091906114b4565b610618565b005b610221600480360381019061021c9190611689565b6106ab565b005b61023d600480360381019061023891906116b6565b610708565b005b61025960048036038101906102549190611649565b61072e565b005b610275600480360381019061027091906116e3565b6107b1565b6040516102829190611503565b60405180910390f35b6102a560048036038101906102a09190611749565b610845565b6040516102b39291906118f2565b60405180910390f35b6102c4610d0e565b6040516102d19190611503565b60405180910390f35b6102f460048036038101906102ef9190611649565b610d14565b604051610301919061143e565b60405180910390f35b610312610d7e565b60405161031f91906115d0565b60405180910390f35b610342600480360381019061033d9190611649565b610d85565b005b60007f7965db0b000000000000000000000000000000000000000000000000000000007bffffffffffffffffffffffffffffffffffffffffffffffffffffffff1916827bffffffffffffffffffffffffffffffffffffffffffffffffffffffff191614806103b757506103b682610dae565b5b9050919050565b600160205281600052604060002081815481106103da57600080fd5b90600052602060002001600091509150505481565b60006104056000801b610400610e18565b610d14565b610444576040517f08c379a000000000000000000000000000000000000000000000000000000000815260040161043b906119ac565b60405180910390fd5b600354905090565b6104606000801b61045b610e18565b610d14565b61049f576040517f08c379a0000000000000000000000000000000000000000000000000000000008152600401610496906119ac565b60405180910390fd5b60026004546104ae91906119fb565b82146104ef576040517f08c379a00000000000000000000000000000000000000000000000000000000081526004016104e690611a9d565b60405180910390fd5b60038081111561050257610501611abd565b5b81600381111561051557610514611abd565b5b1115610556576040517f08c379a000000000000000000000000000000000000000000000000000000000815260040161054d90611b38565b60405180910390fd5b6004600081548092919061056990611b58565b91905055506001600082600381111561058557610584611abd565b5b600381111561059757610596611abd565b5b81526020019081526020016000208290806001815401808255809150506001900390600052602060002001600090919091909150555050565b6000806000838152602001908152602001600020600101549050919050565b6105f8826105d0565b61060981610604610e18565b610e20565b6106138383610ebd565b505050565b61062c6000801b610627610e18565b610d14565b61066b576040517f08c379a0000000000000000000000000000000000000000000000000000000008152600401610662906119ac565b60405180910390fd5b806002600084600381111561068357610682611abd565b5b600381111561069557610694611abd565b5b8152602001908152602001600020819055505050565b6106bf6000801b6106ba610e18565b610d14565b6106fe576040517f08c379a00000000000000000000000000000000000000000000000000000000081526004016106f5906119ac565b60405180910390fd5b8060038190555050565b6000801b61071d81610718610e18565b610e20565b61072a6000801b83610ebd565b5050565b610736610e18565b73ffffffffffffffffffffffffffffffffffffffff168173ffffffffffffffffffffffffffffffffffffffff16146107a3576040517f08c379a000000000000000000000000000000000000000000000000000000000815260040161079a90611c13565b60405180910390fd5b6107ad8282610f9d565b5050565b60006107c76000801b6107c2610e18565b610d14565b610806576040517f08c379a00000000000000000000000000000000000000000000000000000000081526004016107fd906119ac565b60405180910390fd5b6002600083600381111561081d5761081c611abd565b5b600381111561082f5761082e611abd565b5b8152602001908152602001600020549050919050565b60608061085c6000801b610857610e18565b610d14565b61089b576040517f08c379a0000000000000000000000000000000000000000000000000000000008152600401610892906119ac565b60405180910390fd5b60fa8360ff1611156108e2576040517f08c379a00000000000000000000000000000000000000000000000000000000081526004016108d990611ca5565b60405180910390fd5b60008360ff1667ffffffffffffffff81111561090157610900611cc5565b5b60405190808252806020026020018201604052801561092f5781602001602082028036833780820191505090505b50905060008460ff1667ffffffffffffffff81111561095157610950611cc5565b5b60405190808252806020026020018201604052801561097f5781602001602082028036833780820191505090505b5090506000600560009054906101000a900473ffffffffffffffffffffffffffffffffffffffff1673ffffffffffffffffffffffffffffffffffffffff1663218cc7a38760026109cf9190611cf4565b6040518263ffffffff1660e01b81526004016109eb9190611d7a565b6000604051808303816000875af1158015610a0a573d6000803e3d6000fd5b505050506040513d6000823e3d601f19601f82011682018060405250810190610a339190611ed4565b905060005b8660ff168160ff161015610cff57600060035483836002610a599190611cf4565b60ff1681518110610a6d57610a6c611f1d565b5b6020026020010151610a7f9190611f7b565b90506000610a8c8261107e565b905060008160ff166003811115610aa657610aa5611abd565b5b905060006001600454610ab991906119fb565b866001876002610ac99190611cf4565b610ad39190611fac565b60ff1681518110610ae757610ae6611f1d565b5b6020026020010151610af99190611f7b565b905060016000836003811115610b1257610b11611abd565b5b6003811115610b2457610b23611abd565b5b815260200190815260200160002080549050811015610bf55760016000836003811115610b5457610b53611abd565b5b6003811115610b6657610b65611abd565b5b81526020019081526020016000208181548110610b8657610b85611f1d565b5b9060005260206000200154888660ff1681518110610ba757610ba6611f1d565b5b602002602001018181525050816003811115610bc657610bc5611abd565b5b878660ff1681518110610bdc57610bdb611f1d565b5b602002602001019060ff16908160ff1681525050610ce8565b6002600454610c0491906119fb565b888660ff1681518110610c1a57610c19611f1d565b5b602002602001018181525050816003811115610c3957610c38611abd565b5b878660ff1681518110610c4f57610c4e611f1d565b5b602002602001019060ff16908160ff168152505060016000836003811115610c7a57610c79611abd565b5b6003811115610c8c57610c8b611abd565b5b81526020019081526020016000206002600454610ca991906119fb565b908060018154018082558091505060019003906000526020600020016000909190919091505560046000815480929190610ce290611b58565b91905055505b505050508080610cf790611fe3565b915050610a38565b50828294509450505050915091565b60045481565b600080600084815260200190815260200160002060000160008373ffffffffffffffffffffffffffffffffffffffff1673ffffffffffffffffffffffffffffffffffffffff16815260200190815260200160002060009054906101000a900460ff16905092915050565b6000801b81565b610d8e826105d0565b610d9f81610d9a610e18565b610e20565b610da98383610f9d565b505050565b60007f01ffc9a7000000000000000000000000000000000000000000000000000000007bffffffffffffffffffffffffffffffffffffffffffffffffffffffff1916827bffffffffffffffffffffffffffffffffffffffffffffffffffffffff1916149050919050565b600033905090565b610e2a8282610d14565b610eb957610e4f8173ffffffffffffffffffffffffffffffffffffffff16601461114e565b610e5d8360001c602061114e565b604051602001610e6e92919061211f565b6040516020818303038152906040526040517f08c379a0000000000000000000000000000000000000000000000000000000008152600401610eb09190612192565b60405180910390fd5b5050565b610ec78282610d14565b610f9957600160008084815260200190815260200160002060000160008373ffffffffffffffffffffffffffffffffffffffff1673ffffffffffffffffffffffffffffffffffffffff16815260200190815260200160002060006101000a81548160ff021916908315150217905550610f3e610e18565b73ffffffffffffffffffffffffffffffffffffffff168173ffffffffffffffffffffffffffffffffffffffff16837f2f8788117e7eff1d82e926ec794901d17c78024a50270940304540a733656f0d60405160405180910390a45b5050565b610fa78282610d14565b1561107a57600080600084815260200190815260200160002060000160008373ffffffffffffffffffffffffffffffffffffffff1673ffffffffffffffffffffffffffffffffffffffff16815260200190815260200160002060006101000a81548160ff02191690831515021790555061101f610e18565b73ffffffffffffffffffffffffffffffffffffffff168173ffffffffffffffffffffffffffffffffffffffff16837ff6391f5c32d9c69d2a47ea670b442974b53935d1edc7fd64eb21e047a839171b60405160405180910390a45b5050565b6000806000600381111561109557611094611abd565b5b905060008060038111156110ac576110ab611abd565b5b90505b6003808111156110c2576110c1611abd565b5b60ff168160ff16116111445760008160ff1660038111156110e6576110e5611abd565b5b9050600260008260038111156110ff576110fe611abd565b5b600381111561111157611110611abd565b5b8152602001908152602001600020548510156111305781925050611144565b50808061113c90611fe3565b9150506110af565b5080915050919050565b60606000600283600261116191906121b4565b61116b91906119fb565b67ffffffffffffffff81111561118457611183611cc5565b5b6040519080825280601f01601f1916602001820160405280156111b65781602001600182028036833780820191505090505b5090507f3000000000000000000000000000000000000000000000000000000000000000816000815181106111ee576111ed611f1d565b5b60200101907effffffffffffffffffffffffffffffffffffffffffffffffffffffffffffff1916908160001a9053507f78000000000000000000000000000000000000000000000000000000000000008160018151811061125257611251611f1d565b5b60200101907effffffffffffffffffffffffffffffffffffffffffffffffffffffffffffff1916908160001a9053506000600184600261129291906121b4565b61129c91906119fb565b90505b600181111561133c577f3031323334353637383961626364656600000000000000000000000000000000600f8616601081106112de576112dd611f1d565b5b1a60f81b8282815181106112f5576112f4611f1d565b5b60200101907effffffffffffffffffffffffffffffffffffffffffffffffffffffffffffff1916908160001a905350600485901c9450806113359061220e565b905061129f565b5060008414611380576040517f08c379a000000000000000000000000000000000000000000000000000000000815260040161137790612284565b60405180910390fd5b8091505092915050565b6000604051905090565b600080fd5b600080fd5b60007fffffffff0000000000000000000000000000000000000000000000000000000082169050919050565b6113d38161139e565b81146113de57600080fd5b50565b6000813590506113f0816113ca565b92915050565b60006020828403121561140c5761140b611394565b5b600061141a848285016113e1565b91505092915050565b60008115159050919050565b61143881611423565b82525050565b6000602082019050611453600083018461142f565b92915050565b6004811061146657600080fd5b50565b60008135905061147881611459565b92915050565b6000819050919050565b6114918161147e565b811461149c57600080fd5b50565b6000813590506114ae81611488565b92915050565b600080604083850312156114cb576114ca611394565b5b60006114d985828601611469565b92505060206114ea8582860161149f565b9150509250929050565b6114fd8161147e565b82525050565b600060208201905061151860008301846114f4565b92915050565b6000806040838503121561153557611534611394565b5b60006115438582860161149f565b925050602061155485828601611469565b9150509250929050565b6000819050919050565b6115718161155e565b811461157c57600080fd5b50565b60008135905061158e81611568565b92915050565b6000602082840312156115aa576115a9611394565b5b60006115b88482850161157f565b91505092915050565b6115ca8161155e565b82525050565b60006020820190506115e560008301846115c1565b92915050565b600073ffffffffffffffffffffffffffffffffffffffff82169050919050565b6000611616826115eb565b9050919050565b6116268161160b565b811461163157600080fd5b50565b6000813590506116438161161d565b92915050565b600080604083850312156116605761165f611394565b5b600061166e8582860161157f565b925050602061167f85828601611634565b9150509250929050565b60006020828403121561169f5761169e611394565b5b60006116ad8482850161149f565b91505092915050565b6000602082840312156116cc576116cb611394565b5b60006116da84828501611634565b91505092915050565b6000602082840312156116f9576116f8611394565b5b600061170784828501611469565b91505092915050565b600060ff82169050919050565b61172681611710565b811461173157600080fd5b50565b6000813590506117438161171d565b92915050565b60006020828403121561175f5761175e611394565b5b600061176d84828501611734565b91505092915050565b600081519050919050565b600082825260208201905092915050565b6000819050602082019050919050565b6117ab8161147e565b82525050565b60006117bd83836117a2565b60208301905092915050565b6000602082019050919050565b60006117e182611776565b6117eb8185611781565b93506117f683611792565b8060005b8381101561182757815161180e88826117b1565b9750611819836117c9565b9250506001810190506117fa565b5085935050505092915050565b600081519050919050565b600082825260208201905092915050565b6000819050602082019050919050565b61186981611710565b82525050565b600061187b8383611860565b60208301905092915050565b6000602082019050919050565b600061189f82611834565b6118a9818561183f565b93506118b483611850565b8060005b838110156118e55781516118cc888261186f565b97506118d783611887565b9250506001810190506118b8565b5085935050505092915050565b6000604082019050818103600083015261190c81856117d6565b905081810360208301526119208184611894565b90509392505050565b600082825260208201905092915050565b7f4d75737420686176652061646d696e20726f6c6520746f2072756e207468697360008201527f2066756e6374696f6e0000000000000000000000000000000000000000000000602082015250565b6000611996602983611929565b91506119a18261193a565b604082019050919050565b600060208201905081810360008301526119c581611989565b9050919050565b7f4e487b7100000000000000000000000000000000000000000000000000000000600052601160045260246000fd5b6000611a068261147e565b9150611a118361147e565b9250827fffffffffffffffffffffffffffffffffffffffffffffffffffffffffffffffff03821115611a4657611a456119cc565b5b828201905092915050565b7f63616e206f6e6c7920616464206e6577206d6f6e737465727320696473000000600082015250565b6000611a87601d83611929565b9150611a9282611a51565b602082019050919050565b60006020820190508181036000830152611ab681611a7a565b9050919050565b7f4e487b7100000000000000000000000000000000000000000000000000000000600052602160045260246000fd5b7f6e6f7420612076616c69642072617269747920656e756d000000000000000000600082015250565b6000611b22601783611929565b9150611b2d82611aec565b602082019050919050565b60006020820190508181036000830152611b5181611b15565b9050919050565b6000611b638261147e565b91507fffffffffffffffffffffffffffffffffffffffffffffffffffffffffffffffff821415611b9657611b956119cc565b5b600182019050919050565b7f416363657373436f6e74726f6c3a2063616e206f6e6c792072656e6f756e636560008201527f20726f6c657320666f722073656c660000000000000000000000000000000000602082015250565b6000611bfd602f83611929565b9150611c0882611ba1565b604082019050919050565b60006020820190508181036000830152611c2c81611bf0565b9050919050565b7f63616e6e6f74206d696e74206d6f7265207468616e20323530206d6f6e73746560008201527f727320617420612074696d650000000000000000000000000000000000000000602082015250565b6000611c8f602c83611929565b9150611c9a82611c33565b604082019050919050565b60006020820190508181036000830152611cbe81611c82565b9050919050565b7f4e487b7100000000000000000000000000000000000000000000000000000000600052604160045260246000fd5b6000611cff82611710565b9150611d0a83611710565b92508160ff0483118215151615611d2457611d236119cc565b5b828202905092915050565b600063ffffffff82169050919050565b6000819050919050565b6000611d64611d5f611d5a84611710565b611d3f565b611d2f565b9050919050565b611d7481611d49565b82525050565b6000602082019050611d8f6000830184611d6b565b92915050565b600080fd5b6000601f19601f8301169050919050565b611db482611d9a565b810181811067ffffffffffffffff82111715611dd357611dd2611cc5565b5b80604052505050565b6000611de661138a565b9050611df28282611dab565b919050565b600067ffffffffffffffff821115611e1257611e11611cc5565b5b602082029050602081019050919050565b600080fd5b600081519050611e3781611488565b92915050565b6000611e50611e4b84611df7565b611ddc565b90508083825260208201905060208402830185811115611e7357611e72611e23565b5b835b81811015611e9c5780611e888882611e28565b845260208401935050602081019050611e75565b5050509392505050565b600082601f830112611ebb57611eba611d95565b5b8151611ecb848260208601611e3d565b91505092915050565b600060208284031215611eea57611ee9611394565b5b600082015167ffffffffffffffff811115611f0857611f07611399565b5b611f1484828501611ea6565b91505092915050565b7f4e487b7100000000000000000000000000000000000000000000000000000000600052603260045260246000fd5b7f4e487b7100000000000000000000000000000000000000000000000000000000600052601260045260246000fd5b6000611f868261147e565b9150611f918361147e565b925082611fa157611fa0611f4c565b5b828206905092915050565b6000611fb782611710565b9150611fc283611710565b92508260ff03821115611fd857611fd76119cc565b5b828201905092915050565b6000611fee82611710565b915060ff821415612002576120016119cc565b5b600182019050919050565b600081905092915050565b7f416363657373436f6e74726f6c3a206163636f756e7420000000000000000000600082015250565b600061204e60178361200d565b915061205982612018565b601782019050919050565b600081519050919050565b60005b8381101561208d578082015181840152602081019050612072565b8381111561209c576000848401525b50505050565b60006120ad82612064565b6120b7818561200d565b93506120c781856020860161206f565b80840191505092915050565b7f206973206d697373696e6720726f6c6520000000000000000000000000000000600082015250565b600061210960118361200d565b9150612114826120d3565b601182019050919050565b600061212a82612041565b915061213682856120a2565b9150612141826120fc565b915061214d82846120a2565b91508190509392505050565b600061216482612064565b61216e8185611929565b935061217e81856020860161206f565b61218781611d9a565b840191505092915050565b600060208201905081810360008301526121ac8184612159565b905092915050565b60006121bf8261147e565b91506121ca8361147e565b9250817fffffffffffffffffffffffffffffffffffffffffffffffffffffffffffffffff0483118215151615612203576122026119cc565b5b828202905092915050565b60006122198261147e565b9150600082141561222d5761222c6119cc565b5b600182039050919050565b7f537472696e67733a20686578206c656e67746820696e73756666696369656e74600082015250565b600061226e602083611929565b915061227982612238565b602082019050919050565b6000602082019050818103600083015261229d81612261565b905091905056fea2646970667358221220494df5a1cbb929c597003baeb6452dd38210da832654f0f53b3d35ca5c87ff9e64736f6c634300080c0033",
  "immutableReferences": {},
  "source": "// SPDX-License-Identifier: MIT\r\npragma solidity >=0.8.7;\r\n\r\nimport \"@openzeppelin/contracts/access/AccessControl.sol\";\r\nimport \"./VRFRandomNumbers.sol\";\r\nimport \"./PseudoRandomNumbers.sol\";\r\n\r\ncontract Monsters is AccessControl {\r\n    enum Rarity {\r\n        Common,\r\n        Rare,\r\n        Epic,\r\n        Legendary\r\n    }\r\n\r\n    mapping(Rarity => uint256[]) public rarityToMonsters;\r\n    mapping(Rarity => uint256) private _rarityToProbability;\r\n    uint256 private maxProbability;\r\n    uint256 public numMonsters;\r\n\r\n    // VRFRandomNumbers chainlinkRNG;\r\n    PseudoRandomNumbers rng;\r\n\r\n    // constructor(VRFRandomNumbers _chainlinkRNG) {\r\n    //     /* Set default chances for each rarity level\r\n    //      * Common = 60%\r\n    //      * Rare = 25%\r\n    //      * Epic = 12.5%\r\n    //      * Legendary = 2.5%\r\n    //      */\r\n    //     maxProbability = 100000;\r\n    //     _rarityToProbability[Rarity.Common] = 60000;\r\n    //     _rarityToProbability[Rarity.Rare] = 85000;\r\n    //     _rarityToProbability[Rarity.Epic] = 97500;\r\n    //     _rarityToProbability[Rarity.Legendary] = 100000;\r\n\r\n    //     // Use chainlink for random number generation\r\n    //     chainlinkRNG = _chainlinkRNG;\r\n\r\n    //     // Setup roles for creator\r\n    //     _setupRole(DEFAULT_ADMIN_ROLE, _msgSender());\r\n    // }\r\n\r\n    constructor(PseudoRandomNumbers _rng) {\r\n        /* Set default chances for each rarity level\r\n         * Common = 60%\r\n         * Rare = 25%\r\n         * Epic = 12.5%\r\n         * Legendary = 2.5%\r\n         */\r\n        maxProbability = 100000;\r\n        _rarityToProbability[Rarity.Common] = 60000;\r\n        _rarityToProbability[Rarity.Rare] = 85000;\r\n        _rarityToProbability[Rarity.Epic] = 97500;\r\n        _rarityToProbability[Rarity.Legendary] = 100000;\r\n\r\n        // Use keccak256 for random number generation\r\n        rng = _rng;\r\n\r\n        // Setup roles for creator\r\n        _setupRole(DEFAULT_ADMIN_ROLE, _msgSender());\r\n    }\r\n\r\n    modifier checkAdmin() {\r\n        require(hasRole(DEFAULT_ADMIN_ROLE, _msgSender()), \"Must have admin role to run this function\");\r\n        _;\r\n    }\r\n\r\n    function addMonster(uint256 id, Rarity rarity) external checkAdmin {\r\n        require(id == numMonsters + 2, \"can only add new monsters ids\");\r\n        require(rarity <= Rarity.Legendary, \"not a valid rarity enum\");\r\n        numMonsters++;\r\n        rarityToMonsters[rarity].push(id); \r\n    }\r\n\r\n    // function getRandomMonster(uint8 num) external checkAdmin returns (uint256[] memory, uint8[] memory) {\r\n    //     // VRFCoordinatorV2 on Chainlink limits the number of random numbers we can generate at once to 500\r\n    //     require(num <= 250, \"cannot mint more than 250 monsters at a time\");\r\n\r\n    //     // Store monster ids and their rarities\r\n    //     uint256[] memory monsterIds = new uint256[](num);\r\n    //     uint8[] memory monsterRarities = new uint8[](num);\r\n    //     // Send one request for random numbers to be used for selecting rarity class, and monster\r\n    //     chainlinkRNG.requestRandomNumbers(2 * num);\r\n    //     uint256[] memory rand = chainlinkRNG.getRandomNumbers();\r\n\r\n    //     for (uint8 i; i < num; i++) {\r\n    //         // Determine rarity\r\n    //         uint256 rollRarity = rand[2 * i] % maxProbability;\r\n    //         uint8 rarity = _getRarityFromRandomNumber(rollRarity);\r\n    //         Rarity monsterRarity = Rarity(rarity);\r\n            \r\n    //         // If rarity class already has monsters minted, randomly select one \r\n    //         if (rarityToMonsters[monsterRarity].length > 0) {\r\n    //             uint256 index = rand[2 * i + 1] % rarityToMonsters[monsterRarity].length;\r\n    //             monsterIds[i] = rarityToMonsters[monsterRarity][index];\r\n    //             monsterRarities[i] = uint8(monsterRarity);\r\n    //         }\r\n    //         else { // otherwise, create a new monster. Minting should be handled by BTokens contract.\r\n    //             monsterIds[i] = numMonsters + 2;\r\n    //             monsterRarities[i] = uint8(monsterRarity);\r\n    //             rarityToMonsters[monsterRarity].push(numMonsters + 2);\r\n    //             numMonsters++;\r\n    //         }\r\n    //     }\r\n\r\n    //     return (monsterIds, monsterRarities);\r\n    // }\r\n\r\n    function getRandomMonster(uint8 num) external checkAdmin returns (uint256[] memory, uint8[] memory) {\r\n        // VRFCoordinatorV2 on Chainlink limits the number of random numbers we can generate at once to 500\r\n        require(num <= 250, \"cannot mint more than 250 monsters at a time\");\r\n\r\n        // Store monster ids and their rarities\r\n        uint256[] memory monsterIds = new uint256[](num);\r\n        uint8[] memory monsterRarities = new uint8[](num);\r\n        // Send one request for random numbers to be used for selecting rarity class, and monster\r\n        uint256[] memory rand = rng.getRandomNumbers(2 * num);\r\n\r\n        for (uint8 i; i < num; i++) {\r\n            // Determine rarity\r\n            uint256 rollRarity = rand[2 * i] % maxProbability;\r\n            uint8 rarity = _getRarityFromRandomNumber(rollRarity);\r\n            Rarity monsterRarity = Rarity(rarity);\r\n            // Determine index to pick monster from\r\n            uint256 index = rand[2 * i + 1] % (numMonsters + 1);\r\n            \r\n            // If index is present in monsters array for selected rarity, take existing monster\r\n            // Otherwise, create a new. This enables random chance for getting new monsters. \r\n            if (index < rarityToMonsters[monsterRarity].length) {\r\n                monsterIds[i] = rarityToMonsters[monsterRarity][index];\r\n                monsterRarities[i] = uint8(monsterRarity);\r\n            }\r\n            else { // otherwise, create a new monster. Minting should be handled by BTokens contract.\r\n                monsterIds[i] = numMonsters + 2;\r\n                monsterRarities[i] = uint8(monsterRarity);\r\n                rarityToMonsters[monsterRarity].push(numMonsters + 2);\r\n                numMonsters++;\r\n            }\r\n        }\r\n\r\n        return (monsterIds, monsterRarities);\r\n    }\r\n\r\n    // Use probability thresholds to select a rarity from random roll based on assigned percentages\r\n    function _getRarityFromRandomNumber(uint256 num) private view returns (uint8) {\r\n        uint8 rarity = uint8(Rarity.Common);\r\n        for (uint8 i = uint8(Rarity.Common); i <= uint8(Rarity.Legendary); i++) {\r\n            Rarity rarityKey = Rarity(i);\r\n            if (num < _rarityToProbability[rarityKey]) {\r\n                rarity = i;\r\n                break;\r\n            }\r\n        }\r\n        return rarity;\r\n    }\r\n\r\n    function setRarityProbability(Rarity rarity, uint256 prob) external checkAdmin {\r\n        _rarityToProbability[rarity] = prob;\r\n    }\r\n\r\n    function getRarityProbability(Rarity rarity) external view checkAdmin returns (uint256) {\r\n        return _rarityToProbability[rarity];\r\n    }\r\n\r\n    function setMaxProbability(uint256 prob) external checkAdmin {\r\n        maxProbability = prob;\r\n    }\r\n\r\n    function getMaxProbability() external view checkAdmin returns (uint256) {\r\n        return maxProbability;\r\n    }\r\n\r\n    function grantAdmin(address account) external onlyRole(DEFAULT_ADMIN_ROLE) {\r\n        _grantRole(DEFAULT_ADMIN_ROLE, account);\r\n    }\r\n}\r\n",
  "sourcePath": "C:\\Users\\raa42\\Documents\\Banguins\\contracts\\Monsters.sol",
  "compiler": {
    "name": "solc",
    "version": "0.8.12+commit.f00d7308.Emscripten.clang"
  },
  "schemaVersion": "3.4.6",
  "updatedAt": "2022-03-13T03:25:01.241Z",
  "networkType": "ethereum",
  "devdoc": {
    "kind": "dev",
    "methods": {
      "getRoleAdmin(bytes32)": {
        "details": "Returns the admin role that controls `role`. See {grantRole} and {revokeRole}. To change a role's admin, use {_setRoleAdmin}."
      },
      "grantRole(bytes32,address)": {
        "details": "Grants `role` to `account`. If `account` had not been already granted `role`, emits a {RoleGranted} event. Requirements: - the caller must have ``role``'s admin role."
      },
      "hasRole(bytes32,address)": {
        "details": "Returns `true` if `account` has been granted `role`."
      },
      "renounceRole(bytes32,address)": {
        "details": "Revokes `role` from the calling account. Roles are often managed via {grantRole} and {revokeRole}: this function's purpose is to provide a mechanism for accounts to lose their privileges if they are compromised (such as when a trusted device is misplaced). If the calling account had been revoked `role`, emits a {RoleRevoked} event. Requirements: - the caller must be `account`."
      },
      "revokeRole(bytes32,address)": {
        "details": "Revokes `role` from `account`. If `account` had been granted `role`, emits a {RoleRevoked} event. Requirements: - the caller must have ``role``'s admin role."
      },
      "supportsInterface(bytes4)": {
        "details": "See {IERC165-supportsInterface}."
      }
    },
    "version": 1
  },
  "userdoc": {
    "kind": "user",
    "methods": {},
    "version": 1
  }
}