{
  "contractName": "Players",
  "abi": [
    {
      "inputs": [],
      "stateMutability": "nonpayable",
      "type": "constructor"
    },
    {
      "anonymous": false,
      "inputs": [
        {
          "indexed": true,
          "internalType": "bytes32",
          "name": "role",
          "type": "bytes32"
        },
        {
          "indexed": true,
          "internalType": "bytes32",
          "name": "previousAdminRole",
          "type": "bytes32"
        },
        {
          "indexed": true,
          "internalType": "bytes32",
          "name": "newAdminRole",
          "type": "bytes32"
        }
      ],
      "name": "RoleAdminChanged",
      "type": "event"
    },
    {
      "anonymous": false,
      "inputs": [
        {
          "indexed": true,
          "internalType": "bytes32",
          "name": "role",
          "type": "bytes32"
        },
        {
          "indexed": true,
          "internalType": "address",
          "name": "account",
          "type": "address"
        },
        {
          "indexed": true,
          "internalType": "address",
          "name": "sender",
          "type": "address"
        }
      ],
      "name": "RoleGranted",
      "type": "event"
    },
    {
      "anonymous": false,
      "inputs": [
        {
          "indexed": true,
          "internalType": "bytes32",
          "name": "role",
          "type": "bytes32"
        },
        {
          "indexed": true,
          "internalType": "address",
          "name": "account",
          "type": "address"
        },
        {
          "indexed": true,
          "internalType": "address",
          "name": "sender",
          "type": "address"
        }
      ],
      "name": "RoleRevoked",
      "type": "event"
    },
    {
      "inputs": [],
      "name": "DEFAULT_ADMIN_ROLE",
      "outputs": [
        {
          "internalType": "bytes32",
          "name": "",
          "type": "bytes32"
        }
      ],
      "stateMutability": "view",
      "type": "function"
    },
    {
      "inputs": [
        {
          "internalType": "bytes32",
          "name": "role",
          "type": "bytes32"
        }
      ],
      "name": "getRoleAdmin",
      "outputs": [
        {
          "internalType": "bytes32",
          "name": "",
          "type": "bytes32"
        }
      ],
      "stateMutability": "view",
      "type": "function"
    },
    {
      "inputs": [
        {
          "internalType": "bytes32",
          "name": "role",
          "type": "bytes32"
        },
        {
          "internalType": "address",
          "name": "account",
          "type": "address"
        }
      ],
      "name": "grantRole",
      "outputs": [],
      "stateMutability": "nonpayable",
      "type": "function"
    },
    {
      "inputs": [
        {
          "internalType": "bytes32",
          "name": "role",
          "type": "bytes32"
        },
        {
          "internalType": "address",
          "name": "account",
          "type": "address"
        }
      ],
      "name": "hasRole",
      "outputs": [
        {
          "internalType": "bool",
          "name": "",
          "type": "bool"
        }
      ],
      "stateMutability": "view",
      "type": "function"
    },
    {
      "inputs": [
        {
          "internalType": "bytes32",
          "name": "role",
          "type": "bytes32"
        },
        {
          "internalType": "address",
          "name": "account",
          "type": "address"
        }
      ],
      "name": "renounceRole",
      "outputs": [],
      "stateMutability": "nonpayable",
      "type": "function"
    },
    {
      "inputs": [
        {
          "internalType": "bytes32",
          "name": "role",
          "type": "bytes32"
        },
        {
          "internalType": "address",
          "name": "account",
          "type": "address"
        }
      ],
      "name": "revokeRole",
      "outputs": [],
      "stateMutability": "nonpayable",
      "type": "function"
    },
    {
      "inputs": [
        {
          "internalType": "bytes4",
          "name": "interfaceId",
          "type": "bytes4"
        }
      ],
      "name": "supportsInterface",
      "outputs": [
        {
          "internalType": "bool",
          "name": "",
          "type": "bool"
        }
      ],
      "stateMutability": "view",
      "type": "function"
    },
    {
      "inputs": [
        {
          "internalType": "address",
          "name": "player",
          "type": "address"
        }
      ],
      "name": "increaseWins",
      "outputs": [],
      "stateMutability": "nonpayable",
      "type": "function"
    },
    {
      "inputs": [
        {
          "internalType": "address",
          "name": "player",
          "type": "address"
        }
      ],
      "name": "increaseLosses",
      "outputs": [],
      "stateMutability": "nonpayable",
      "type": "function"
    },
    {
      "inputs": [
        {
          "internalType": "address",
          "name": "player",
          "type": "address"
        },
        {
          "internalType": "uint8",
          "name": "amount",
          "type": "uint8"
        }
      ],
      "name": "increaseMonsters",
      "outputs": [],
      "stateMutability": "nonpayable",
      "type": "function"
    },
    {
      "inputs": [
        {
          "internalType": "address",
          "name": "player",
          "type": "address"
        },
        {
          "internalType": "uint8",
          "name": "amount",
          "type": "uint8"
        }
      ],
      "name": "decreaseMonsters",
      "outputs": [],
      "stateMutability": "nonpayable",
      "type": "function"
    },
    {
      "inputs": [
        {
          "internalType": "address",
          "name": "player",
          "type": "address"
        }
      ],
      "name": "doCheckIn",
      "outputs": [],
      "stateMutability": "nonpayable",
      "type": "function"
    },
    {
      "inputs": [
        {
          "internalType": "address",
          "name": "player",
          "type": "address"
        },
        {
          "internalType": "uint256",
          "name": "timestamp",
          "type": "uint256"
        }
      ],
      "name": "setCheckIn",
      "outputs": [],
      "stateMutability": "nonpayable",
      "type": "function"
    },
    {
      "inputs": [
        {
          "internalType": "address",
          "name": "player",
          "type": "address"
        }
      ],
      "name": "getCheckIn",
      "outputs": [
        {
          "internalType": "uint256",
          "name": "",
          "type": "uint256"
        }
      ],
      "stateMutability": "view",
      "type": "function"
    },
    {
      "inputs": [
        {
          "internalType": "address",
          "name": "player",
          "type": "address"
        }
      ],
      "name": "getStats",
      "outputs": [
        {
          "internalType": "uint256",
          "name": "",
          "type": "uint256"
        },
        {
          "internalType": "uint256",
          "name": "",
          "type": "uint256"
        },
        {
          "internalType": "uint256",
          "name": "",
          "type": "uint256"
        }
      ],
      "stateMutability": "view",
      "type": "function"
    },
    {
      "inputs": [
        {
          "internalType": "address",
          "name": "account",
          "type": "address"
        }
      ],
      "name": "grantAdmin",
      "outputs": [],
      "stateMutability": "nonpayable",
      "type": "function"
    }
  ],
  "bytecode": "0x60806040523480156200001157600080fd5b50620000366000801b6200002a6200003c60201b60201c565b6200004460201b60201c565b620001b5565b600033905090565b6200005682826200005a60201b60201c565b5050565b6200006c82826200014b60201b60201c565b6200014757600160008084815260200190815260200160002060000160008373ffffffffffffffffffffffffffffffffffffffff1673ffffffffffffffffffffffffffffffffffffffff16815260200190815260200160002060006101000a81548160ff021916908315150217905550620000ec6200003c60201b60201c565b73ffffffffffffffffffffffffffffffffffffffff168173ffffffffffffffffffffffffffffffffffffffff16837f2f8788117e7eff1d82e926ec794901d17c78024a50270940304540a733656f0d60405160405180910390a45b5050565b600080600084815260200190815260200160002060000160008373ffffffffffffffffffffffffffffffffffffffff1673ffffffffffffffffffffffffffffffffffffffff16815260200190815260200160002060009054906101000a900460ff16905092915050565b6118bd80620001c56000396000f3fe608060405234801561001057600080fd5b50600436106101005760003560e01c806391d1485411610097578063d300f14e11610066578063d300f14e146102bd578063d531b97a146102d9578063d547741f146102f5578063ec0a660a1461031157610100565b806391d14854146102215780639b9db6f514610251578063a217fddf1461026d578063c23f85d61461028b57610100565b80632f2ff15d116100d35780632f2ff15d146101b157806335bb3e16146101cd57806336568abe146101e9578063862165c31461020557610100565b806301ffc9a7146101055780630786e6e414610135578063189b18c114610165578063248a9ca314610181575b600080fd5b61011f600480360381019061011a9190610ff6565b61032d565b60405161012c919061103e565b60405180910390f35b61014f600480360381019061014a91906110b7565b6103a7565b60405161015c91906110fd565b60405180910390f35b61017f600480360381019061017a9190611151565b6103f3565b005b61019b600480360381019061019691906111c7565b6104a6565b6040516101a89190611203565b60405180910390f35b6101cb60048036038101906101c6919061121e565b6104c5565b005b6101e760048036038101906101e291906110b7565b6104ee565b005b61020360048036038101906101fe919061121e565b610514565b005b61021f600480360381019061021a9190611151565b610597565b005b61023b6004803603810190610236919061121e565b6106d2565b604051610248919061103e565b60405180910390f35b61026b600480360381019061026691906110b7565b61073c565b005b6102756107eb565b6040516102829190611203565b60405180910390f35b6102a560048036038101906102a091906110b7565b6107f2565b6040516102b49392919061125e565b60405180910390f35b6102d760048036038101906102d291906112c1565b6108cd565b005b6102f360048036038101906102ee91906110b7565b61096b565b005b61030f600480360381019061030a919061121e565b6109b5565b005b61032b600480360381019061032691906110b7565b6109de565b005b60007f7965db0b000000000000000000000000000000000000000000000000000000007bffffffffffffffffffffffffffffffffffffffffffffffffffffffff1916827bffffffffffffffffffffffffffffffffffffffffffffffffffffffff191614806103a0575061039f82610a8d565b5b9050919050565b6000600160008373ffffffffffffffffffffffffffffffffffffffff1673ffffffffffffffffffffffffffffffffffffffff168152602001908152602001600020600301549050919050565b6104076000801b610402610af7565b6106d2565b610446576040517f08c379a000000000000000000000000000000000000000000000000000000000815260040161043d90611384565b60405180910390fd5b8060ff16600160008473ffffffffffffffffffffffffffffffffffffffff1673ffffffffffffffffffffffffffffffffffffffff168152602001908152602001600020600201600082825461049b91906113d3565b925050819055505050565b6000806000838152602001908152602001600020600101549050919050565b6104ce826104a6565b6104df816104da610af7565b610aff565b6104e98383610b9c565b505050565b6000801b610503816104fe610af7565b610aff565b6105106000801b83610b9c565b5050565b61051c610af7565b73ffffffffffffffffffffffffffffffffffffffff168173ffffffffffffffffffffffffffffffffffffffff1614610589576040517f08c379a00000000000000000000000000000000000000000000000000000000081526004016105809061149b565b60405180910390fd5b6105938282610c7c565b5050565b6105ab6000801b6105a6610af7565b6106d2565b6105ea576040517f08c379a00000000000000000000000000000000000000000000000000000000081526004016105e190611384565b60405180910390fd5b8060ff16600160008473ffffffffffffffffffffffffffffffffffffffff1673ffffffffffffffffffffffffffffffffffffffff168152602001908152602001600020600201541015610672576040517f08c379a00000000000000000000000000000000000000000000000000000000081526004016106699061152d565b60405180910390fd5b8060ff16600160008473ffffffffffffffffffffffffffffffffffffffff1673ffffffffffffffffffffffffffffffffffffffff16815260200190815260200160002060020160008282546106c7919061154d565b925050819055505050565b600080600084815260200190815260200160002060000160008373ffffffffffffffffffffffffffffffffffffffff1673ffffffffffffffffffffffffffffffffffffffff16815260200190815260200160002060009054906101000a900460ff16905092915050565b6107506000801b61074b610af7565b6106d2565b61078f576040517f08c379a000000000000000000000000000000000000000000000000000000000815260040161078690611384565b60405180910390fd5b60018060008373ffffffffffffffffffffffffffffffffffffffff1673ffffffffffffffffffffffffffffffffffffffff16815260200190815260200160002060000160008282546107e191906113d3565b9250508190555050565b6000801b81565b6000806000600160008573ffffffffffffffffffffffffffffffffffffffff1673ffffffffffffffffffffffffffffffffffffffff16815260200190815260200160002060000154600160008673ffffffffffffffffffffffffffffffffffffffff1673ffffffffffffffffffffffffffffffffffffffff16815260200190815260200160002060010154600160008773ffffffffffffffffffffffffffffffffffffffff1673ffffffffffffffffffffffffffffffffffffffff168152602001908152602001600020600201549250925092509193909250565b6108e16000801b6108dc610af7565b6106d2565b610920576040517f08c379a000000000000000000000000000000000000000000000000000000000815260040161091790611384565b60405180910390fd5b80600160008473ffffffffffffffffffffffffffffffffffffffff1673ffffffffffffffffffffffffffffffffffffffff168152602001908152602001600020600301819055505050565b42600160008373ffffffffffffffffffffffffffffffffffffffff1673ffffffffffffffffffffffffffffffffffffffff1681526020019081526020016000206003018190555050565b6109be826104a6565b6109cf816109ca610af7565b610aff565b6109d98383610c7c565b505050565b6109f26000801b6109ed610af7565b6106d2565b610a31576040517f08c379a0000000000000000000000000000000000000000000000000000000008152600401610a2890611384565b60405180910390fd5b60018060008373ffffffffffffffffffffffffffffffffffffffff1673ffffffffffffffffffffffffffffffffffffffff1681526020019081526020016000206001016000828254610a8391906113d3565b9250508190555050565b60007f01ffc9a7000000000000000000000000000000000000000000000000000000007bffffffffffffffffffffffffffffffffffffffffffffffffffffffff1916827bffffffffffffffffffffffffffffffffffffffffffffffffffffffff1916149050919050565b600033905090565b610b0982826106d2565b610b9857610b2e8173ffffffffffffffffffffffffffffffffffffffff166014610d5d565b610b3c8360001c6020610d5d565b604051602001610b4d929190611693565b6040516020818303038152906040526040517f08c379a0000000000000000000000000000000000000000000000000000000008152600401610b8f9190611717565b60405180910390fd5b5050565b610ba682826106d2565b610c7857600160008084815260200190815260200160002060000160008373ffffffffffffffffffffffffffffffffffffffff1673ffffffffffffffffffffffffffffffffffffffff16815260200190815260200160002060006101000a81548160ff021916908315150217905550610c1d610af7565b73ffffffffffffffffffffffffffffffffffffffff168173ffffffffffffffffffffffffffffffffffffffff16837f2f8788117e7eff1d82e926ec794901d17c78024a50270940304540a733656f0d60405160405180910390a45b5050565b610c8682826106d2565b15610d5957600080600084815260200190815260200160002060000160008373ffffffffffffffffffffffffffffffffffffffff1673ffffffffffffffffffffffffffffffffffffffff16815260200190815260200160002060006101000a81548160ff021916908315150217905550610cfe610af7565b73ffffffffffffffffffffffffffffffffffffffff168173ffffffffffffffffffffffffffffffffffffffff16837ff6391f5c32d9c69d2a47ea670b442974b53935d1edc7fd64eb21e047a839171b60405160405180910390a45b5050565b606060006002836002610d709190611739565b610d7a91906113d3565b67ffffffffffffffff811115610d9357610d92611793565b5b6040519080825280601f01601f191660200182016040528015610dc55781602001600182028036833780820191505090505b5090507f300000000000000000000000000000000000000000000000000000000000000081600081518110610dfd57610dfc6117c2565b5b60200101907effffffffffffffffffffffffffffffffffffffffffffffffffffffffffffff1916908160001a9053507f780000000000000000000000000000000000000000000000000000000000000081600181518110610e6157610e606117c2565b5b60200101907effffffffffffffffffffffffffffffffffffffffffffffffffffffffffffff1916908160001a90535060006001846002610ea19190611739565b610eab91906113d3565b90505b6001811115610f4b577f3031323334353637383961626364656600000000000000000000000000000000600f861660108110610eed57610eec6117c2565b5b1a60f81b828281518110610f0457610f036117c2565b5b60200101907effffffffffffffffffffffffffffffffffffffffffffffffffffffffffffff1916908160001a905350600485901c945080610f44906117f1565b9050610eae565b5060008414610f8f576040517f08c379a0000000000000000000000000000000000000000000000000000000008152600401610f8690611867565b60405180910390fd5b8091505092915050565b600080fd5b60007fffffffff0000000000000000000000000000000000000000000000000000000082169050919050565b610fd381610f9e565b8114610fde57600080fd5b50565b600081359050610ff081610fca565b92915050565b60006020828403121561100c5761100b610f99565b5b600061101a84828501610fe1565b91505092915050565b60008115159050919050565b61103881611023565b82525050565b6000602082019050611053600083018461102f565b92915050565b600073ffffffffffffffffffffffffffffffffffffffff82169050919050565b600061108482611059565b9050919050565b61109481611079565b811461109f57600080fd5b50565b6000813590506110b18161108b565b92915050565b6000602082840312156110cd576110cc610f99565b5b60006110db848285016110a2565b91505092915050565b6000819050919050565b6110f7816110e4565b82525050565b600060208201905061111260008301846110ee565b92915050565b600060ff82169050919050565b61112e81611118565b811461113957600080fd5b50565b60008135905061114b81611125565b92915050565b6000806040838503121561116857611167610f99565b5b6000611176858286016110a2565b92505060206111878582860161113c565b9150509250929050565b6000819050919050565b6111a481611191565b81146111af57600080fd5b50565b6000813590506111c18161119b565b92915050565b6000602082840312156111dd576111dc610f99565b5b60006111eb848285016111b2565b91505092915050565b6111fd81611191565b82525050565b600060208201905061121860008301846111f4565b92915050565b6000806040838503121561123557611234610f99565b5b6000611243858286016111b2565b9250506020611254858286016110a2565b9150509250929050565b600060608201905061127360008301866110ee565b61128060208301856110ee565b61128d60408301846110ee565b949350505050565b61129e816110e4565b81146112a957600080fd5b50565b6000813590506112bb81611295565b92915050565b600080604083850312156112d8576112d7610f99565b5b60006112e6858286016110a2565b92505060206112f7858286016112ac565b9150509250929050565b600082825260208201905092915050565b7f4d75737420686176652061646d696e20726f6c6520746f2072756e207468697360008201527f2066756e6374696f6e0000000000000000000000000000000000000000000000602082015250565b600061136e602983611301565b915061137982611312565b604082019050919050565b6000602082019050818103600083015261139d81611361565b9050919050565b7f4e487b7100000000000000000000000000000000000000000000000000000000600052601160045260246000fd5b60006113de826110e4565b91506113e9836110e4565b9250827fffffffffffffffffffffffffffffffffffffffffffffffffffffffffffffffff0382111561141e5761141d6113a4565b5b828201905092915050565b7f416363657373436f6e74726f6c3a2063616e206f6e6c792072656e6f756e636560008201527f20726f6c657320666f722073656c660000000000000000000000000000000000602082015250565b6000611485602f83611301565b915061149082611429565b604082019050919050565b600060208201905081810360008301526114b481611478565b9050919050565b7f63616e6e6f74206465637265617365206e756d626572206f66206d6f6e73746560008201527f72732062656c6f77207a65726f00000000000000000000000000000000000000602082015250565b6000611517602d83611301565b9150611522826114bb565b604082019050919050565b600060208201905081810360008301526115468161150a565b9050919050565b6000611558826110e4565b9150611563836110e4565b925082821015611576576115756113a4565b5b828203905092915050565b600081905092915050565b7f416363657373436f6e74726f6c3a206163636f756e7420000000000000000000600082015250565b60006115c2601783611581565b91506115cd8261158c565b601782019050919050565b600081519050919050565b60005b838110156116015780820151818401526020810190506115e6565b83811115611610576000848401525b50505050565b6000611621826115d8565b61162b8185611581565b935061163b8185602086016115e3565b80840191505092915050565b7f206973206d697373696e6720726f6c6520000000000000000000000000000000600082015250565b600061167d601183611581565b915061168882611647565b601182019050919050565b600061169e826115b5565b91506116aa8285611616565b91506116b582611670565b91506116c18284611616565b91508190509392505050565b6000601f19601f8301169050919050565b60006116e9826115d8565b6116f38185611301565b93506117038185602086016115e3565b61170c816116cd565b840191505092915050565b6000602082019050818103600083015261173181846116de565b905092915050565b6000611744826110e4565b915061174f836110e4565b9250817fffffffffffffffffffffffffffffffffffffffffffffffffffffffffffffffff0483118215151615611788576117876113a4565b5b828202905092915050565b7f4e487b7100000000000000000000000000000000000000000000000000000000600052604160045260246000fd5b7f4e487b7100000000000000000000000000000000000000000000000000000000600052603260045260246000fd5b60006117fc826110e4565b915060008214156118105761180f6113a4565b5b600182039050919050565b7f537472696e67733a20686578206c656e67746820696e73756666696369656e74600082015250565b6000611851602083611301565b915061185c8261181b565b602082019050919050565b6000602082019050818103600083015261188081611844565b905091905056fea2646970667358221220c7d013fa7dfc791417c5a64fe88ca3e5ae8ba04bac8e27b2a02b088be133cbc764736f6c634300080c0033",
  "immutableReferences": {},
  "source": "// SPDX-License-Identifier: MIT\r\npragma solidity >=0.8.0;\r\n\r\nimport \"@openzeppelin/contracts/access/AccessControl.sol\";\r\n\r\ncontract Players is AccessControl {\r\n    // Schema to be used to keep track of player wins/losses, number of monsters, last daily check in\r\n    struct PlayerSchema {\r\n        uint256 wins;\r\n        uint256 losses;\r\n        uint256 numPlayerMonsters;\r\n        uint lastCheckIn;\r\n    }\r\n\r\n    mapping(address => PlayerSchema) private playerDb;\r\n\r\n    constructor() {\r\n        _setupRole(DEFAULT_ADMIN_ROLE, _msgSender());\r\n    }\r\n\r\n    modifier checkAdmin() {\r\n        require(hasRole(DEFAULT_ADMIN_ROLE, _msgSender()), \"Must have admin role to run this function\");\r\n        _;\r\n    }\r\n\r\n    function increaseWins(address player) external checkAdmin {\r\n        playerDb[player].wins += 1;\r\n    }\r\n\r\n    function increaseLosses(address player) external checkAdmin  {\r\n        playerDb[player].losses += 1;\r\n    }\r\n\r\n    function increaseMonsters(address player, uint8 amount) external checkAdmin {\r\n        playerDb[player].numPlayerMonsters += amount;\r\n    }\r\n\r\n    function decreaseMonsters(address player, uint8 amount) external checkAdmin {\r\n        require(playerDb[player].numPlayerMonsters >= amount, \"cannot decrease number of monsters below zero\");\r\n        playerDb[player].numPlayerMonsters -= amount;\r\n    }\r\n\r\n    function doCheckIn(address player) external {\r\n        playerDb[player].lastCheckIn = block.timestamp;\r\n    }\r\n\r\n    function setCheckIn(address player, uint timestamp) external checkAdmin {\r\n        playerDb[player].lastCheckIn = timestamp;\r\n    }\r\n\r\n    function getCheckIn(address player) external view returns (uint) {\r\n        return playerDb[player].lastCheckIn;\r\n    }\r\n\r\n    function getStats(address player) external view returns (uint256, uint256, uint256) {\r\n        return (playerDb[player].wins,\r\n                playerDb[player].losses,\r\n                playerDb[player].numPlayerMonsters);\r\n    }\r\n\r\n    function grantAdmin(address account) external onlyRole(DEFAULT_ADMIN_ROLE) {\r\n        _grantRole(DEFAULT_ADMIN_ROLE, account);\r\n    }\r\n\r\n}",
  "sourcePath": "C:\\Users\\raa42\\Documents\\Banguins\\contracts\\Players.sol",
  "compiler": {
    "name": "solc",
    "version": "0.8.12+commit.f00d7308.Emscripten.clang"
  },
  "schemaVersion": "3.4.6",
  "updatedAt": "2022-03-13T06:48:01.613Z",
  "devdoc": {
    "kind": "dev",
    "methods": {
      "getRoleAdmin(bytes32)": {
        "details": "Returns the admin role that controls `role`. See {grantRole} and {revokeRole}. To change a role's admin, use {_setRoleAdmin}."
      },
      "grantRole(bytes32,address)": {
        "details": "Grants `role` to `account`. If `account` had not been already granted `role`, emits a {RoleGranted} event. Requirements: - the caller must have ``role``'s admin role."
      },
      "hasRole(bytes32,address)": {
        "details": "Returns `true` if `account` has been granted `role`."
      },
      "renounceRole(bytes32,address)": {
        "details": "Revokes `role` from the calling account. Roles are often managed via {grantRole} and {revokeRole}: this function's purpose is to provide a mechanism for accounts to lose their privileges if they are compromised (such as when a trusted device is misplaced). If the calling account had been revoked `role`, emits a {RoleRevoked} event. Requirements: - the caller must be `account`."
      },
      "revokeRole(bytes32,address)": {
        "details": "Revokes `role` from `account`. If `account` had been granted `role`, emits a {RoleRevoked} event. Requirements: - the caller must have ``role``'s admin role."
      },
      "supportsInterface(bytes4)": {
        "details": "See {IERC165-supportsInterface}."
      }
    },
    "version": 1
  },
  "userdoc": {
    "kind": "user",
    "methods": {},
    "version": 1
  }
}