{
  "contractName": "PseudoRandomNumbers",
  "abi": [
    {
      "inputs": [
        {
          "internalType": "uint32",
          "name": "numWords",
          "type": "uint32"
        }
      ],
      "name": "getRandomNumbers",
      "outputs": [
        {
          "internalType": "uint256[]",
          "name": "",
          "type": "uint256[]"
        }
      ],
      "stateMutability": "nonpayable",
      "type": "function"
    }
  ],
  "bytecode": "0x608060405234801561001057600080fd5b506104be806100206000396000f3fe608060405234801561001057600080fd5b506004361061002b5760003560e01c8063218cc7a314610030575b600080fd5b61004a60048036038101906100459190610196565b610060565b604051610057919061028b565b60405180910390f35b606060008263ffffffff1667ffffffffffffffff811115610084576100836102ad565b5b6040519080825280602002602001820160405280156100b25781602001602082028036833780820191505090505b50905060005b8363ffffffff168163ffffffff16101561014b5742336000546040516020016100e393929190610377565b6040516020818303038152906040528051906020012060001c828263ffffffff1681518110610115576101146103b4565b5b60200260200101818152505060008081548092919061013390610412565b919050555080806101439061045b565b9150506100b8565b5080915050919050565b600080fd5b600063ffffffff82169050919050565b6101738161015a565b811461017e57600080fd5b50565b6000813590506101908161016a565b92915050565b6000602082840312156101ac576101ab610155565b5b60006101ba84828501610181565b91505092915050565b600081519050919050565b600082825260208201905092915050565b6000819050602082019050919050565b6000819050919050565b610202816101ef565b82525050565b600061021483836101f9565b60208301905092915050565b6000602082019050919050565b6000610238826101c3565b61024281856101ce565b935061024d836101df565b8060005b8381101561027e5781516102658882610208565b975061027083610220565b925050600181019050610251565b5085935050505092915050565b600060208201905081810360008301526102a5818461022d565b905092915050565b7f4e487b7100000000000000000000000000000000000000000000000000000000600052604160045260246000fd5b6000819050919050565b6102f76102f2826101ef565b6102dc565b82525050565b600073ffffffffffffffffffffffffffffffffffffffff82169050919050565b6000610328826102fd565b9050919050565b60008160601b9050919050565b60006103478261032f565b9050919050565b60006103598261033c565b9050919050565b61037161036c8261031d565b61034e565b82525050565b600061038382866102e6565b6020820191506103938285610360565b6014820191506103a382846102e6565b602082019150819050949350505050565b7f4e487b7100000000000000000000000000000000000000000000000000000000600052603260045260246000fd5b7f4e487b7100000000000000000000000000000000000000000000000000000000600052601160045260246000fd5b600061041d826101ef565b91507fffffffffffffffffffffffffffffffffffffffffffffffffffffffffffffffff8214156104505761044f6103e3565b5b600182019050919050565b60006104668261015a565b915063ffffffff82141561047d5761047c6103e3565b5b60018201905091905056fea264697066735822122071c261d079fe776483d6f83c9878d1b98d6acf54c44e12dd8012d0eb5b367dd664736f6c634300080c0033",
  "immutableReferences": {},
  "source": "// SPDX-License-Identifier: MIT\r\npragma solidity >=0.8.7;\r\n\r\ncontract PseudoRandomNumbers {\r\n\r\n    uint256 nonce;\r\n\r\n    function getRandomNumbers(uint32 numWords) public returns (uint[] memory) {\r\n        uint[] memory nums = new uint256[](numWords);\r\n        for (uint32 i; i < numWords; i++) {\r\n            nums[i] = uint(keccak256(abi.encodePacked(block.timestamp, msg.sender, nonce)));\r\n            nonce++;\r\n        }\r\n        return nums;\r\n    }\r\n\r\n}",
  "sourcePath": "C:\\Users\\raa42\\Documents\\Banguins\\contracts\\PseudoRandomNumbers.sol",
  "compiler": {
    "name": "solc",
    "version": "0.8.12+commit.f00d7308.Emscripten.clang"
  },
  "schemaVersion": "3.4.6",
  "updatedAt": "2022-03-13T03:25:01.235Z",
  "networkType": "ethereum",
  "devdoc": {
    "kind": "dev",
    "methods": {},
    "version": 1
  },
  "userdoc": {
    "kind": "user",
    "methods": {},
    "version": 1
  }
}