{
  "contractName": "VRFRandomNumbers",
  "abi": [
    {
      "inputs": [
        {
          "internalType": "uint64",
          "name": "subscriptionId",
          "type": "uint64"
        }
      ],
      "stateMutability": "nonpayable",
      "type": "constructor"
    },
    {
      "inputs": [
        {
          "internalType": "address",
          "name": "have",
          "type": "address"
        },
        {
          "internalType": "address",
          "name": "want",
          "type": "address"
        }
      ],
      "name": "OnlyCoordinatorCanFulfill",
      "type": "error"
    },
    {
      "anonymous": false,
      "inputs": [
        {
          "indexed": true,
          "internalType": "bytes32",
          "name": "role",
          "type": "bytes32"
        },
        {
          "indexed": true,
          "internalType": "bytes32",
          "name": "previousAdminRole",
          "type": "bytes32"
        },
        {
          "indexed": true,
          "internalType": "bytes32",
          "name": "newAdminRole",
          "type": "bytes32"
        }
      ],
      "name": "RoleAdminChanged",
      "type": "event"
    },
    {
      "anonymous": false,
      "inputs": [
        {
          "indexed": true,
          "internalType": "bytes32",
          "name": "role",
          "type": "bytes32"
        },
        {
          "indexed": true,
          "internalType": "address",
          "name": "account",
          "type": "address"
        },
        {
          "indexed": true,
          "internalType": "address",
          "name": "sender",
          "type": "address"
        }
      ],
      "name": "RoleGranted",
      "type": "event"
    },
    {
      "anonymous": false,
      "inputs": [
        {
          "indexed": true,
          "internalType": "bytes32",
          "name": "role",
          "type": "bytes32"
        },
        {
          "indexed": true,
          "internalType": "address",
          "name": "account",
          "type": "address"
        },
        {
          "indexed": true,
          "internalType": "address",
          "name": "sender",
          "type": "address"
        }
      ],
      "name": "RoleRevoked",
      "type": "event"
    },
    {
      "inputs": [],
      "name": "COORDINATOR",
      "outputs": [
        {
          "internalType": "contract VRFCoordinatorV2Interface",
          "name": "",
          "type": "address"
        }
      ],
      "stateMutability": "view",
      "type": "function"
    },
    {
      "inputs": [],
      "name": "DEFAULT_ADMIN_ROLE",
      "outputs": [
        {
          "internalType": "bytes32",
          "name": "",
          "type": "bytes32"
        }
      ],
      "stateMutability": "view",
      "type": "function"
    },
    {
      "inputs": [],
      "name": "DICEMASTER_ROLE",
      "outputs": [
        {
          "internalType": "bytes32",
          "name": "",
          "type": "bytes32"
        }
      ],
      "stateMutability": "view",
      "type": "function"
    },
    {
      "inputs": [
        {
          "internalType": "bytes32",
          "name": "role",
          "type": "bytes32"
        }
      ],
      "name": "getRoleAdmin",
      "outputs": [
        {
          "internalType": "bytes32",
          "name": "",
          "type": "bytes32"
        }
      ],
      "stateMutability": "view",
      "type": "function"
    },
    {
      "inputs": [
        {
          "internalType": "bytes32",
          "name": "role",
          "type": "bytes32"
        },
        {
          "internalType": "address",
          "name": "account",
          "type": "address"
        }
      ],
      "name": "grantRole",
      "outputs": [],
      "stateMutability": "nonpayable",
      "type": "function"
    },
    {
      "inputs": [
        {
          "internalType": "bytes32",
          "name": "role",
          "type": "bytes32"
        },
        {
          "internalType": "address",
          "name": "account",
          "type": "address"
        }
      ],
      "name": "hasRole",
      "outputs": [
        {
          "internalType": "bool",
          "name": "",
          "type": "bool"
        }
      ],
      "stateMutability": "view",
      "type": "function"
    },
    {
      "inputs": [],
      "name": "keyHash",
      "outputs": [
        {
          "internalType": "bytes32",
          "name": "",
          "type": "bytes32"
        }
      ],
      "stateMutability": "view",
      "type": "function"
    },
    {
      "inputs": [],
      "name": "link",
      "outputs": [
        {
          "internalType": "address",
          "name": "",
          "type": "address"
        }
      ],
      "stateMutability": "view",
      "type": "function"
    },
    {
      "inputs": [
        {
          "internalType": "uint256",
          "name": "requestId",
          "type": "uint256"
        },
        {
          "internalType": "uint256[]",
          "name": "randomWords",
          "type": "uint256[]"
        }
      ],
      "name": "rawFulfillRandomWords",
      "outputs": [],
      "stateMutability": "nonpayable",
      "type": "function"
    },
    {
      "inputs": [
        {
          "internalType": "bytes32",
          "name": "role",
          "type": "bytes32"
        },
        {
          "internalType": "address",
          "name": "account",
          "type": "address"
        }
      ],
      "name": "renounceRole",
      "outputs": [],
      "stateMutability": "nonpayable",
      "type": "function"
    },
    {
      "inputs": [
        {
          "internalType": "bytes32",
          "name": "role",
          "type": "bytes32"
        },
        {
          "internalType": "address",
          "name": "account",
          "type": "address"
        }
      ],
      "name": "revokeRole",
      "outputs": [],
      "stateMutability": "nonpayable",
      "type": "function"
    },
    {
      "inputs": [],
      "name": "s_owner",
      "outputs": [
        {
          "internalType": "address",
          "name": "",
          "type": "address"
        }
      ],
      "stateMutability": "view",
      "type": "function"
    },
    {
      "inputs": [
        {
          "internalType": "uint256",
          "name": "",
          "type": "uint256"
        }
      ],
      "name": "s_randomWords",
      "outputs": [
        {
          "internalType": "uint256",
          "name": "",
          "type": "uint256"
        }
      ],
      "stateMutability": "view",
      "type": "function"
    },
    {
      "inputs": [],
      "name": "s_requestId",
      "outputs": [
        {
          "internalType": "uint256",
          "name": "",
          "type": "uint256"
        }
      ],
      "stateMutability": "view",
      "type": "function"
    },
    {
      "inputs": [
        {
          "internalType": "bytes4",
          "name": "interfaceId",
          "type": "bytes4"
        }
      ],
      "name": "supportsInterface",
      "outputs": [
        {
          "internalType": "bool",
          "name": "",
          "type": "bool"
        }
      ],
      "stateMutability": "view",
      "type": "function"
    },
    {
      "inputs": [],
      "name": "vrfCoordinator",
      "outputs": [
        {
          "internalType": "address",
          "name": "",
          "type": "address"
        }
      ],
      "stateMutability": "view",
      "type": "function"
    },
    {
      "inputs": [
        {
          "internalType": "uint32",
          "name": "numWords",
          "type": "uint32"
        }
      ],
      "name": "requestRandomNumbers",
      "outputs": [],
      "stateMutability": "nonpayable",
      "type": "function"
    },
    {
      "inputs": [],
      "name": "getRandomNumbers",
      "outputs": [
        {
          "internalType": "uint256[]",
          "name": "",
          "type": "uint256[]"
        }
      ],
      "stateMutability": "view",
      "type": "function"
    },
    {
      "inputs": [
        {
          "internalType": "address",
          "name": "account",
          "type": "address"
        }
      ],
      "name": "grantDiceMaster",
      "outputs": [],
      "stateMutability": "nonpayable",
      "type": "function"
    }
  ],
  "bytecode": "0x60a0604052736168499c0cffcacd319c818142124b7a15e857ab600360006101000a81548173ffffffffffffffffffffffffffffffffffffffff021916908373ffffffffffffffffffffffffffffffffffffffff1602179055507301be23585060835e02b77ef475b0cc51aa1e0709600460006101000a81548173ffffffffffffffffffffffffffffffffffffffff021916908373ffffffffffffffffffffffffffffffffffffffff1602179055507fd89b2bf150e3b9e13446986e571fb9cab24b13cea0a43ea20a6049a85cc807cc60001b600555620186a0600660006101000a81548163ffffffff021916908363ffffffff1602179055506003600660046101000a81548161ffff021916908361ffff1602179055503480156200012457600080fd5b506040516200222c3803806200222c83398181016040528101906200014a91906200057b565b600360009054906101000a900473ffffffffffffffffffffffffffffffffffffffff168073ffffffffffffffffffffffffffffffffffffffff1660808173ffffffffffffffffffffffffffffffffffffffff168152505050600360009054906101000a900473ffffffffffffffffffffffffffffffffffffffff16600160006101000a81548173ffffffffffffffffffffffffffffffffffffffff021916908373ffffffffffffffffffffffffffffffffffffffff160217905550600460009054906101000a900473ffffffffffffffffffffffffffffffffffffffff16600260006101000a81548173ffffffffffffffffffffffffffffffffffffffff021916908373ffffffffffffffffffffffffffffffffffffffff16021790555033600960006101000a81548173ffffffffffffffffffffffffffffffffffffffff021916908373ffffffffffffffffffffffffffffffffffffffff16021790555080600260146101000a81548167ffffffffffffffff021916908367ffffffffffffffff160217905550620002f66000801b620002ea6200031d60201b60201c565b6200032560201b60201c565b620003166200030a6200031d60201b60201c565b6200033b60201b60201c565b5062000656565b600033905090565b620003378282620003d660201b60201c565b5050565b6200035f6000801b620003536200031d60201b60201c565b620004c760201b60201c565b620003a1576040517f08c379a0000000000000000000000000000000000000000000000000000000008152600401620003989062000634565b60405180910390fd5b620003d37ffd25414f7869e7f0077144ea5ea19a6c141f11d1bb64f0ec02fd4ed85b575d7082620003d660201b60201c565b50565b620003e88282620004c760201b60201c565b620004c357600160008084815260200190815260200160002060000160008373ffffffffffffffffffffffffffffffffffffffff1673ffffffffffffffffffffffffffffffffffffffff16815260200190815260200160002060006101000a81548160ff021916908315150217905550620004686200031d60201b60201c565b73ffffffffffffffffffffffffffffffffffffffff168173ffffffffffffffffffffffffffffffffffffffff16837f2f8788117e7eff1d82e926ec794901d17c78024a50270940304540a733656f0d60405160405180910390a45b5050565b600080600084815260200190815260200160002060000160008373ffffffffffffffffffffffffffffffffffffffff1673ffffffffffffffffffffffffffffffffffffffff16815260200190815260200160002060009054906101000a900460ff16905092915050565b600080fd5b600067ffffffffffffffff82169050919050565b620005558162000536565b81146200056157600080fd5b50565b60008151905062000575816200054a565b92915050565b60006020828403121562000594576200059362000531565b5b6000620005a48482850162000564565b91505092915050565b600082825260208201905092915050565b7f4d75737420686176652061646d696e20726f6c6520746f2072756e207468697360008201527f2066756e6374696f6e0000000000000000000000000000000000000000000000602082015250565b60006200061c602983620005ad565b91506200062982620005be565b604082019050919050565b600060208201905081810360008301526200064f816200060d565b9050919050565b608051611bb3620006796000396000818161043e01526104920152611bb36000f3fe608060405234801561001057600080fd5b50600436106101215760003560e01c80637705a7f6116100ad578063a3e56fa811610071578063a3e56fa8146102f6578063d547741f14610314578063e397824014610330578063e89e106a1461034e578063f6eaffc81461036c57610121565b80637705a7f61461025257806391d148541461026e5780639cf144711461029e578063a217fddf146102ba578063a29dd672146102d857610121565b80632f2ff15d116100f45780632f2ff15d146101c057806336568abe146101dc5780633b2bcbf1146101f85780634fdc84dc1461021657806361728f391461023457610121565b806301ffc9a7146101265780631c4695f4146101565780631fe543e314610174578063248a9ca314610190575b600080fd5b610140600480360381019061013b9190610f4e565b61039c565b60405161014d9190610f96565b60405180910390f35b61015e610416565b60405161016b9190610ff2565b60405180910390f35b61018e6004803603810190610189919061119c565b61043c565b005b6101aa60048036038101906101a5919061122e565b6104fc565b6040516101b7919061126a565b60405180910390f35b6101da60048036038101906101d591906112b1565b61051b565b005b6101f660048036038101906101f191906112b1565b610544565b005b6102006105c7565b60405161020d9190611350565b60405180910390f35b61021e6105ed565b60405161022b9190611429565b60405180910390f35b61023c610645565b604051610249919061126a565b60405180910390f35b61026c60048036038101906102679190611487565b61064b565b005b610288600480360381019061028391906112b1565b61079d565b6040516102959190610f96565b60405180910390f35b6102b860048036038101906102b391906114b4565b610807565b005b6102c2610887565b6040516102cf919061126a565b60405180910390f35b6102e061088e565b6040516102ed919061126a565b60405180910390f35b6102fe6108b2565b60405161030b9190610ff2565b60405180910390f35b61032e600480360381019061032991906112b1565b6108d8565b005b610338610901565b6040516103459190610ff2565b60405180910390f35b610356610927565b60405161036391906114f0565b60405180910390f35b6103866004803603810190610381919061150b565b61092d565b60405161039391906114f0565b60405180910390f35b60007f7965db0b000000000000000000000000000000000000000000000000000000007bffffffffffffffffffffffffffffffffffffffffffffffffffffffff1916827bffffffffffffffffffffffffffffffffffffffffffffffffffffffff1916148061040f575061040e82610951565b5b9050919050565b600460009054906101000a900473ffffffffffffffffffffffffffffffffffffffff1681565b7f000000000000000000000000000000000000000000000000000000000000000073ffffffffffffffffffffffffffffffffffffffff163373ffffffffffffffffffffffffffffffffffffffff16146104ee57337f00000000000000000000000000000000000000000000000000000000000000006040517f1cf993f40000000000000000000000000000000000000000000000000000000081526004016104e5929190611538565b60405180910390fd5b6104f882826109bb565b5050565b6000806000838152602001908152602001600020600101549050919050565b610524826104fc565b610535816105306109d6565b6109de565b61053f8383610a7b565b505050565b61054c6109d6565b73ffffffffffffffffffffffffffffffffffffffff168173ffffffffffffffffffffffffffffffffffffffff16146105b9576040517f08c379a00000000000000000000000000000000000000000000000000000000081526004016105b0906115e4565b60405180910390fd5b6105c38282610b5b565b5050565b600160009054906101000a900473ffffffffffffffffffffffffffffffffffffffff1681565b6060600780548060200260200160405190810160405280929190818152602001828054801561063b57602002820191906000526020600020905b815481526020019060010190808311610627575b5050505050905090565b60055481565b6106757ffd25414f7869e7f0077144ea5ea19a6c141f11d1bb64f0ec02fd4ed85b575d703361079d565b6106b4576040517f08c379a00000000000000000000000000000000000000000000000000000000081526004016106ab9061169c565b60405180910390fd5b600160009054906101000a900473ffffffffffffffffffffffffffffffffffffffff1673ffffffffffffffffffffffffffffffffffffffff16635d3b1d30600554600260149054906101000a900467ffffffffffffffff16600660049054906101000a900461ffff16600660009054906101000a900463ffffffff16866040518663ffffffff1660e01b815260040161075195949392919061170b565b6020604051808303816000875af1158015610770573d6000803e3d6000fd5b505050506040513d601f19601f820116820180604052508101906107949190611773565b60088190555050565b600080600084815260200190815260200160002060000160008373ffffffffffffffffffffffffffffffffffffffff1673ffffffffffffffffffffffffffffffffffffffff16815260200190815260200160002060009054906101000a900460ff16905092915050565b61081b6000801b6108166109d6565b61079d565b61085a576040517f08c379a000000000000000000000000000000000000000000000000000000000815260040161085190611812565b60405180910390fd5b6108847ffd25414f7869e7f0077144ea5ea19a6c141f11d1bb64f0ec02fd4ed85b575d7082610a7b565b50565b6000801b81565b7ffd25414f7869e7f0077144ea5ea19a6c141f11d1bb64f0ec02fd4ed85b575d7081565b600360009054906101000a900473ffffffffffffffffffffffffffffffffffffffff1681565b6108e1826104fc565b6108f2816108ed6109d6565b6109de565b6108fc8383610b5b565b505050565b600960009054906101000a900473ffffffffffffffffffffffffffffffffffffffff1681565b60085481565b6007818154811061093d57600080fd5b906000526020600020016000915090505481565b60007f01ffc9a7000000000000000000000000000000000000000000000000000000007bffffffffffffffffffffffffffffffffffffffffffffffffffffffff1916827bffffffffffffffffffffffffffffffffffffffffffffffffffffffff1916149050919050565b80600790805190602001906109d1929190610e78565b505050565b600033905090565b6109e8828261079d565b610a7757610a0d8173ffffffffffffffffffffffffffffffffffffffff166014610c3c565b610a1b8360001c6020610c3c565b604051602001610a2c929190611944565b6040516020818303038152906040526040517f08c379a0000000000000000000000000000000000000000000000000000000008152600401610a6e91906119b7565b60405180910390fd5b5050565b610a85828261079d565b610b5757600160008084815260200190815260200160002060000160008373ffffffffffffffffffffffffffffffffffffffff1673ffffffffffffffffffffffffffffffffffffffff16815260200190815260200160002060006101000a81548160ff021916908315150217905550610afc6109d6565b73ffffffffffffffffffffffffffffffffffffffff168173ffffffffffffffffffffffffffffffffffffffff16837f2f8788117e7eff1d82e926ec794901d17c78024a50270940304540a733656f0d60405160405180910390a45b5050565b610b65828261079d565b15610c3857600080600084815260200190815260200160002060000160008373ffffffffffffffffffffffffffffffffffffffff1673ffffffffffffffffffffffffffffffffffffffff16815260200190815260200160002060006101000a81548160ff021916908315150217905550610bdd6109d6565b73ffffffffffffffffffffffffffffffffffffffff168173ffffffffffffffffffffffffffffffffffffffff16837ff6391f5c32d9c69d2a47ea670b442974b53935d1edc7fd64eb21e047a839171b60405160405180910390a45b5050565b606060006002836002610c4f9190611a08565b610c599190611a62565b67ffffffffffffffff811115610c7257610c71611059565b5b6040519080825280601f01601f191660200182016040528015610ca45781602001600182028036833780820191505090505b5090507f300000000000000000000000000000000000000000000000000000000000000081600081518110610cdc57610cdb611ab8565b5b60200101907effffffffffffffffffffffffffffffffffffffffffffffffffffffffffffff1916908160001a9053507f780000000000000000000000000000000000000000000000000000000000000081600181518110610d4057610d3f611ab8565b5b60200101907effffffffffffffffffffffffffffffffffffffffffffffffffffffffffffff1916908160001a90535060006001846002610d809190611a08565b610d8a9190611a62565b90505b6001811115610e2a577f3031323334353637383961626364656600000000000000000000000000000000600f861660108110610dcc57610dcb611ab8565b5b1a60f81b828281518110610de357610de2611ab8565b5b60200101907effffffffffffffffffffffffffffffffffffffffffffffffffffffffffffff1916908160001a905350600485901c945080610e2390611ae7565b9050610d8d565b5060008414610e6e576040517f08c379a0000000000000000000000000000000000000000000000000000000008152600401610e6590611b5d565b60405180910390fd5b8091505092915050565b828054828255906000526020600020908101928215610eb4579160200282015b82811115610eb3578251825591602001919060010190610e98565b5b509050610ec19190610ec5565b5090565b5b80821115610ede576000816000905550600101610ec6565b5090565b6000604051905090565b600080fd5b600080fd5b60007fffffffff0000000000000000000000000000000000000000000000000000000082169050919050565b610f2b81610ef6565b8114610f3657600080fd5b50565b600081359050610f4881610f22565b92915050565b600060208284031215610f6457610f63610eec565b5b6000610f7284828501610f39565b91505092915050565b60008115159050919050565b610f9081610f7b565b82525050565b6000602082019050610fab6000830184610f87565b92915050565b600073ffffffffffffffffffffffffffffffffffffffff82169050919050565b6000610fdc82610fb1565b9050919050565b610fec81610fd1565b82525050565b60006020820190506110076000830184610fe3565b92915050565b6000819050919050565b6110208161100d565b811461102b57600080fd5b50565b60008135905061103d81611017565b92915050565b600080fd5b6000601f19601f8301169050919050565b7f4e487b7100000000000000000000000000000000000000000000000000000000600052604160045260246000fd5b61109182611048565b810181811067ffffffffffffffff821117156110b0576110af611059565b5b80604052505050565b60006110c3610ee2565b90506110cf8282611088565b919050565b600067ffffffffffffffff8211156110ef576110ee611059565b5b602082029050602081019050919050565b600080fd5b6000611118611113846110d4565b6110b9565b9050808382526020820190506020840283018581111561113b5761113a611100565b5b835b818110156111645780611150888261102e565b84526020840193505060208101905061113d565b5050509392505050565b600082601f83011261118357611182611043565b5b8135611193848260208601611105565b91505092915050565b600080604083850312156111b3576111b2610eec565b5b60006111c18582860161102e565b925050602083013567ffffffffffffffff8111156111e2576111e1610ef1565b5b6111ee8582860161116e565b9150509250929050565b6000819050919050565b61120b816111f8565b811461121657600080fd5b50565b60008135905061122881611202565b92915050565b60006020828403121561124457611243610eec565b5b600061125284828501611219565b91505092915050565b611264816111f8565b82525050565b600060208201905061127f600083018461125b565b92915050565b61128e81610fd1565b811461129957600080fd5b50565b6000813590506112ab81611285565b92915050565b600080604083850312156112c8576112c7610eec565b5b60006112d685828601611219565b92505060206112e78582860161129c565b9150509250929050565b6000819050919050565b600061131661131161130c84610fb1565b6112f1565b610fb1565b9050919050565b6000611328826112fb565b9050919050565b600061133a8261131d565b9050919050565b61134a8161132f565b82525050565b60006020820190506113656000830184611341565b92915050565b600081519050919050565b600082825260208201905092915050565b6000819050602082019050919050565b6113a08161100d565b82525050565b60006113b28383611397565b60208301905092915050565b6000602082019050919050565b60006113d68261136b565b6113e08185611376565b93506113eb83611387565b8060005b8381101561141c57815161140388826113a6565b975061140e836113be565b9250506001810190506113ef565b5085935050505092915050565b6000602082019050818103600083015261144381846113cb565b905092915050565b600063ffffffff82169050919050565b6114648161144b565b811461146f57600080fd5b50565b6000813590506114818161145b565b92915050565b60006020828403121561149d5761149c610eec565b5b60006114ab84828501611472565b91505092915050565b6000602082840312156114ca576114c9610eec565b5b60006114d88482850161129c565b91505092915050565b6114ea8161100d565b82525050565b600060208201905061150560008301846114e1565b92915050565b60006020828403121561152157611520610eec565b5b600061152f8482850161102e565b91505092915050565b600060408201905061154d6000830185610fe3565b61155a6020830184610fe3565b9392505050565b600082825260208201905092915050565b7f416363657373436f6e74726f6c3a2063616e206f6e6c792072656e6f756e636560008201527f20726f6c657320666f722073656c660000000000000000000000000000000000602082015250565b60006115ce602f83611561565b91506115d982611572565b604082019050919050565b600060208201905081810360008301526115fd816115c1565b9050919050565b7f64656e6965642c206d616b6520737572652063616c6c6572206861732062656560008201527f6e206772616e74656420646963656d617374657220726f6c652076696120677260208201527f616e74446963654d617374657228290000000000000000000000000000000000604082015250565b6000611686604f83611561565b915061169182611604565b606082019050919050565b600060208201905081810360008301526116b581611679565b9050919050565b600067ffffffffffffffff82169050919050565b6116d9816116bc565b82525050565b600061ffff82169050919050565b6116f6816116df565b82525050565b6117058161144b565b82525050565b600060a082019050611720600083018861125b565b61172d60208301876116d0565b61173a60408301866116ed565b61174760608301856116fc565b61175460808301846116fc565b9695505050505050565b60008151905061176d81611017565b92915050565b60006020828403121561178957611788610eec565b5b60006117978482850161175e565b91505092915050565b7f4d75737420686176652061646d696e20726f6c6520746f2072756e207468697360008201527f2066756e6374696f6e0000000000000000000000000000000000000000000000602082015250565b60006117fc602983611561565b9150611807826117a0565b604082019050919050565b6000602082019050818103600083015261182b816117ef565b9050919050565b600081905092915050565b7f416363657373436f6e74726f6c3a206163636f756e7420000000000000000000600082015250565b6000611873601783611832565b915061187e8261183d565b601782019050919050565b600081519050919050565b60005b838110156118b2578082015181840152602081019050611897565b838111156118c1576000848401525b50505050565b60006118d282611889565b6118dc8185611832565b93506118ec818560208601611894565b80840191505092915050565b7f206973206d697373696e6720726f6c6520000000000000000000000000000000600082015250565b600061192e601183611832565b9150611939826118f8565b601182019050919050565b600061194f82611866565b915061195b82856118c7565b915061196682611921565b915061197282846118c7565b91508190509392505050565b600061198982611889565b6119938185611561565b93506119a3818560208601611894565b6119ac81611048565b840191505092915050565b600060208201905081810360008301526119d1818461197e565b905092915050565b7f4e487b7100000000000000000000000000000000000000000000000000000000600052601160045260246000fd5b6000611a138261100d565b9150611a1e8361100d565b9250817fffffffffffffffffffffffffffffffffffffffffffffffffffffffffffffffff0483118215151615611a5757611a566119d9565b5b828202905092915050565b6000611a6d8261100d565b9150611a788361100d565b9250827fffffffffffffffffffffffffffffffffffffffffffffffffffffffffffffffff03821115611aad57611aac6119d9565b5b828201905092915050565b7f4e487b7100000000000000000000000000000000000000000000000000000000600052603260045260246000fd5b6000611af28261100d565b91506000821415611b0657611b056119d9565b5b600182039050919050565b7f537472696e67733a20686578206c656e67746820696e73756666696369656e74600082015250565b6000611b47602083611561565b9150611b5282611b11565b602082019050919050565b60006020820190508181036000830152611b7681611b3a565b905091905056fea264697066735822122096aa91f99b7f8a64efde81cfee4f848f6424ea8d24130ad693e2941d6140798864736f6c634300080c0033",
  "immutableReferences": {
    "10": [
      {
        "length": 32,
        "start": 1086
      },
      {
        "length": 32,
        "start": 1170
      }
    ]
  },
  "source": "// SPDX-License-Identifier: MIT\r\npragma solidity >=0.8.7;\r\n\r\nimport \"@chainlink/contracts/src/v0.8/interfaces/LinkTokenInterface.sol\";\r\nimport \"@chainlink/contracts/src/v0.8/interfaces/VRFCoordinatorV2Interface.sol\";\r\nimport \"@chainlink/contracts/src/v0.8/VRFConsumerBaseV2.sol\";\r\n\r\nimport \"@openzeppelin/contracts/access/AccessControl.sol\";\r\n\r\ncontract VRFRandomNumbers is VRFConsumerBaseV2, AccessControl {\r\n    VRFCoordinatorV2Interface public COORDINATOR;\r\n    LinkTokenInterface LINKTOKEN;\r\n\r\n    // Your subscription ID.\r\n    uint64 s_subscriptionId;\r\n\r\n    // Rinkeby coordinator. For other networks,\r\n    // see https://docs.chain.link/docs/vrf-contracts/#configurations\r\n    address public vrfCoordinator = 0x6168499c0cFfCaCD319c818142124B7A15E857ab;\r\n\r\n    // Rinkeby LINK token contract. For other networks,\r\n    // see https://docs.chain.link/docs/vrf-contracts/#configurations\r\n    address public link = 0x01BE23585060835E02B77ef475b0Cc51aA1e0709;\r\n\r\n    // The gas lane to use, which specifies the maximum gas price to bump to.\r\n    // For a list of available gas lanes on each network,\r\n    // see https://docs.chain.link/docs/vrf-contracts/#configurations\r\n    bytes32 public keyHash = 0xd89b2bf150e3b9e13446986e571fb9cab24b13cea0a43ea20a6049a85cc807cc;\r\n\r\n    // Depends on the number of requested values that you want sent to the\r\n    // fulfillRandomWords() function. Storing each word costs about 20,000 gas,\r\n    // so 100,000 is a safe default for this example contract. Test and adjust\r\n    // this limit based on the network that you select, the size of the request,\r\n    // and the processing of the callback request in the fulfillRandomWords()\r\n    // function.\r\n    uint32 callbackGasLimit = 100000;\r\n\r\n    // The default is 3, but you can set this higher.\r\n    uint16 requestConfirmations = 3;\r\n\r\n    uint256[] public s_randomWords;\r\n    uint256 public s_requestId;\r\n    address public s_owner;\r\n\r\n    bytes32 public constant DICEMASTER_ROLE = keccak256(\"DICEMASTER_ROLE\");\r\n\r\n    constructor(uint64 subscriptionId) VRFConsumerBaseV2(vrfCoordinator) {\r\n        COORDINATOR = VRFCoordinatorV2Interface(vrfCoordinator);\r\n        LINKTOKEN = LinkTokenInterface(link);\r\n        s_owner = msg.sender;\r\n        s_subscriptionId = subscriptionId;\r\n\r\n        _setupRole(DEFAULT_ADMIN_ROLE, _msgSender());\r\n        grantDiceMaster(_msgSender());\r\n    }\r\n\r\n    // Assumes the subscription is funded sufficiently.\r\n    function requestRandomNumbers(uint32 numWords) external onlyDiceMaster {\r\n        // Will revert if subscription is not set and funded.\r\n        s_requestId = COORDINATOR.requestRandomWords(\r\n            keyHash,\r\n            s_subscriptionId,\r\n            requestConfirmations,\r\n            callbackGasLimit,\r\n            numWords\r\n        );\r\n    }\r\n    \r\n    function fulfillRandomWords(\r\n        uint256, /* requestId */\r\n        uint256[] memory randomWords\r\n    ) internal override {\r\n        s_randomWords = randomWords;\r\n    }\r\n\r\n    function getRandomNumbers() external view returns (uint256[] memory) {\r\n        return s_randomWords;\r\n    }\r\n\r\n    function grantDiceMaster(address account) public checkAdmin {\r\n        _grantRole(DICEMASTER_ROLE, account);\r\n    }\r\n\r\n    modifier onlyDiceMaster() {\r\n        require(hasRole(DICEMASTER_ROLE, msg.sender), \"denied, make sure caller has been granted dicemaster role via grantDiceMaster()\");\r\n        _;\r\n    }\r\n\r\n    modifier checkAdmin() {\r\n        require(hasRole(DEFAULT_ADMIN_ROLE, _msgSender()), \"Must have admin role to run this function\");\r\n        _;\r\n    }\r\n}\r\n",
  "sourcePath": "C:\\Users\\raa42\\Documents\\Banguins\\contracts\\VRFRandomNumbers.sol",
  "compiler": {
    "name": "solc",
    "version": "0.8.12+commit.f00d7308.Emscripten.clang"
  },
  "schemaVersion": "3.4.6",
  "updatedAt": "2022-03-13T03:20:42.127Z",
  "devdoc": {
    "kind": "dev",
    "methods": {
      "getRoleAdmin(bytes32)": {
        "details": "Returns the admin role that controls `role`. See {grantRole} and {revokeRole}. To change a role's admin, use {_setRoleAdmin}."
      },
      "grantRole(bytes32,address)": {
        "details": "Grants `role` to `account`. If `account` had not been already granted `role`, emits a {RoleGranted} event. Requirements: - the caller must have ``role``'s admin role."
      },
      "hasRole(bytes32,address)": {
        "details": "Returns `true` if `account` has been granted `role`."
      },
      "renounceRole(bytes32,address)": {
        "details": "Revokes `role` from the calling account. Roles are often managed via {grantRole} and {revokeRole}: this function's purpose is to provide a mechanism for accounts to lose their privileges if they are compromised (such as when a trusted device is misplaced). If the calling account had been revoked `role`, emits a {RoleRevoked} event. Requirements: - the caller must be `account`."
      },
      "revokeRole(bytes32,address)": {
        "details": "Revokes `role` from `account`. If `account` had been granted `role`, emits a {RoleRevoked} event. Requirements: - the caller must have ``role``'s admin role."
      },
      "supportsInterface(bytes4)": {
        "details": "See {IERC165-supportsInterface}."
      }
    },
    "version": 1
  },
  "userdoc": {
    "kind": "user",
    "methods": {},
    "version": 1
  }
}